{
  "_format": "hh-sol-artifact-1",
  "contractName": "Bits",
  "sourceName": "src/BulkDisbursableNFTs.sol",
  "abi": [
    {
      "inputs": [],
      "name": "ADDRESS_TYPE",
      "outputs": [
        {
          "internalType": "uint256",
          "name": "",
          "type": "uint256"
        }
      ],
      "stateMutability": "view",
      "type": "function"
    },
    {
      "inputs": [],
      "name": "COUNTER_MASK",
      "outputs": [
        {
          "internalType": "uint256",
          "name": "",
          "type": "uint256"
        }
      ],
      "stateMutability": "view",
      "type": "function"
    },
    {
      "inputs": [],
      "name": "COUNTER_WIDTH",
      "outputs": [
        {
          "internalType": "uint8",
          "name": "",
          "type": "uint8"
        }
      ],
      "stateMutability": "view",
      "type": "function"
    },
    {
      "inputs": [],
      "name": "DISABLING_TYPE",
      "outputs": [
        {
          "internalType": "uint256",
          "name": "",
          "type": "uint256"
        }
      ],
      "stateMutability": "view",
      "type": "function"
    },
    {
      "inputs": [],
      "name": "EXPERIMENTAL_TYPE",
      "outputs": [
        {
          "internalType": "uint256",
          "name": "",
          "type": "uint256"
        }
      ],
      "stateMutability": "view",
      "type": "function"
    },
    {
      "inputs": [],
      "name": "GATING_TYPE",
      "outputs": [
        {
          "internalType": "uint256",
          "name": "",
          "type": "uint256"
        }
      ],
      "stateMutability": "view",
      "type": "function"
    },
    {
      "inputs": [],
      "name": "INTERNAL_BOUNDARY",
      "outputs": [
        {
          "internalType": "uint8",
          "name": "",
          "type": "uint8"
        }
      ],
      "stateMutability": "view",
      "type": "function"
    },
    {
      "inputs": [],
      "name": "INTERNAL_MASK",
      "outputs": [
        {
          "internalType": "uint256",
          "name": "",
          "type": "uint256"
        }
      ],
      "stateMutability": "view",
      "type": "function"
    },
    {
      "inputs": [],
      "name": "INTERNAL_WIDTH",
      "outputs": [
        {
          "internalType": "uint8",
          "name": "",
          "type": "uint8"
        }
      ],
      "stateMutability": "view",
      "type": "function"
    },
    {
      "inputs": [],
      "name": "MEMBERSHIP_TYPE",
      "outputs": [
        {
          "internalType": "uint256",
          "name": "",
          "type": "uint256"
        }
      ],
      "stateMutability": "view",
      "type": "function"
    },
    {
      "inputs": [],
      "name": "NO_MATCH_FLAGS",
      "outputs": [
        {
          "internalType": "uint256",
          "name": "",
          "type": "uint256"
        }
      ],
      "stateMutability": "view",
      "type": "function"
    },
    {
      "inputs": [],
      "name": "REACTION_TYPE",
      "outputs": [
        {
          "internalType": "uint256",
          "name": "",
          "type": "uint256"
        }
      ],
      "stateMutability": "view",
      "type": "function"
    },
    {
      "inputs": [],
      "name": "RECORDED_TIME_TYPE",
      "outputs": [
        {
          "internalType": "uint256",
          "name": "",
          "type": "uint256"
        }
      ],
      "stateMutability": "view",
      "type": "function"
    },
    {
      "inputs": [],
      "name": "RECORDING_TYPE",
      "outputs": [
        {
          "internalType": "uint256",
          "name": "",
          "type": "uint256"
        }
      ],
      "stateMutability": "view",
      "type": "function"
    },
    {
      "inputs": [],
      "name": "REPETITION_BOUNDARY",
      "outputs": [
        {
          "internalType": "uint8",
          "name": "",
          "type": "uint8"
        }
      ],
      "stateMutability": "view",
      "type": "function"
    },
    {
      "inputs": [],
      "name": "REPETITION_MASK",
      "outputs": [
        {
          "internalType": "uint256",
          "name": "",
          "type": "uint256"
        }
      ],
      "stateMutability": "view",
      "type": "function"
    },
    {
      "inputs": [],
      "name": "REPETITION_WIDTH",
      "outputs": [
        {
          "internalType": "uint8",
          "name": "",
          "type": "uint8"
        }
      ],
      "stateMutability": "view",
      "type": "function"
    },
    {
      "inputs": [],
      "name": "REQUIREMENT_BOUNDARY",
      "outputs": [
        {
          "internalType": "uint8",
          "name": "",
          "type": "uint8"
        }
      ],
      "stateMutability": "view",
      "type": "function"
    },
    {
      "inputs": [],
      "name": "REQUIREMENT_MASK",
      "outputs": [
        {
          "internalType": "uint256",
          "name": "",
          "type": "uint256"
        }
      ],
      "stateMutability": "view",
      "type": "function"
    },
    {
      "inputs": [],
      "name": "REQUIREMENT_WIDTH",
      "outputs": [
        {
          "internalType": "uint8",
          "name": "",
          "type": "uint8"
        }
      ],
      "stateMutability": "view",
      "type": "function"
    },
    {
      "inputs": [],
      "name": "REQUIRE_ALL",
      "outputs": [
        {
          "internalType": "uint256",
          "name": "",
          "type": "uint256"
        }
      ],
      "stateMutability": "view",
      "type": "function"
    },
    {
      "inputs": [],
      "name": "REQUIRE_NONE",
      "outputs": [
        {
          "internalType": "uint256",
          "name": "",
          "type": "uint256"
        }
      ],
      "stateMutability": "view",
      "type": "function"
    },
    {
      "inputs": [],
      "name": "REQUIRE_ONE",
      "outputs": [
        {
          "internalType": "uint256",
          "name": "",
          "type": "uint256"
        }
      ],
      "stateMutability": "view",
      "type": "function"
    },
    {
      "inputs": [],
      "name": "REVIEW_TYPE",
      "outputs": [
        {
          "internalType": "uint256",
          "name": "",
          "type": "uint256"
        }
      ],
      "stateMutability": "view",
      "type": "function"
    },
    {
      "inputs": [],
      "name": "ROLE_BOUNDARY",
      "outputs": [
        {
          "internalType": "uint8",
          "name": "",
          "type": "uint8"
        }
      ],
      "stateMutability": "view",
      "type": "function"
    },
    {
      "inputs": [],
      "name": "ROLE_MASK",
      "outputs": [
        {
          "internalType": "uint256",
          "name": "",
          "type": "uint256"
        }
      ],
      "stateMutability": "view",
      "type": "function"
    },
    {
      "inputs": [],
      "name": "ROLE_WIDTH",
      "outputs": [
        {
          "internalType": "uint8",
          "name": "",
          "type": "uint8"
        }
      ],
      "stateMutability": "view",
      "type": "function"
    },
    {
      "inputs": [],
      "name": "TEAM_1",
      "outputs": [
        {
          "internalType": "uint256",
          "name": "",
          "type": "uint256"
        }
      ],
      "stateMutability": "view",
      "type": "function"
    },
    {
      "inputs": [],
      "name": "TEAM_2",
      "outputs": [
        {
          "internalType": "uint256",
          "name": "",
          "type": "uint256"
        }
      ],
      "stateMutability": "view",
      "type": "function"
    },
    {
      "inputs": [],
      "name": "TEAM_3",
      "outputs": [
        {
          "internalType": "uint256",
          "name": "",
          "type": "uint256"
        }
      ],
      "stateMutability": "view",
      "type": "function"
    },
    {
      "inputs": [],
      "name": "TEAM_4",
      "outputs": [
        {
          "internalType": "uint256",
          "name": "",
          "type": "uint256"
        }
      ],
      "stateMutability": "view",
      "type": "function"
    },
    {
      "inputs": [],
      "name": "TEAM_5",
      "outputs": [
        {
          "internalType": "uint256",
          "name": "",
          "type": "uint256"
        }
      ],
      "stateMutability": "view",
      "type": "function"
    },
    {
      "inputs": [],
      "name": "TEAM_6",
      "outputs": [
        {
          "internalType": "uint256",
          "name": "",
          "type": "uint256"
        }
      ],
      "stateMutability": "view",
      "type": "function"
    },
    {
      "inputs": [],
      "name": "TEAM_7",
      "outputs": [
        {
          "internalType": "uint256",
          "name": "",
          "type": "uint256"
        }
      ],
      "stateMutability": "view",
      "type": "function"
    },
    {
      "inputs": [],
      "name": "TEAM_8",
      "outputs": [
        {
          "internalType": "uint256",
          "name": "",
          "type": "uint256"
        }
      ],
      "stateMutability": "view",
      "type": "function"
    },
    {
      "inputs": [],
      "name": "TEAM_9",
      "outputs": [
        {
          "internalType": "uint256",
          "name": "",
          "type": "uint256"
        }
      ],
      "stateMutability": "view",
      "type": "function"
    },
    {
      "inputs": [],
      "name": "TEAM_A",
      "outputs": [
        {
          "internalType": "uint256",
          "name": "",
          "type": "uint256"
        }
      ],
      "stateMutability": "view",
      "type": "function"
    },
    {
      "inputs": [],
      "name": "TEAM_B",
      "outputs": [
        {
          "internalType": "uint256",
          "name": "",
          "type": "uint256"
        }
      ],
      "stateMutability": "view",
      "type": "function"
    },
    {
      "inputs": [],
      "name": "TEAM_BOUNDARY",
      "outputs": [
        {
          "internalType": "uint8",
          "name": "",
          "type": "uint8"
        }
      ],
      "stateMutability": "view",
      "type": "function"
    },
    {
      "inputs": [],
      "name": "TEAM_C",
      "outputs": [
        {
          "internalType": "uint256",
          "name": "",
          "type": "uint256"
        }
      ],
      "stateMutability": "view",
      "type": "function"
    },
    {
      "inputs": [],
      "name": "TEAM_D",
      "outputs": [
        {
          "internalType": "uint256",
          "name": "",
          "type": "uint256"
        }
      ],
      "stateMutability": "view",
      "type": "function"
    },
    {
      "inputs": [],
      "name": "TEAM_MASK",
      "outputs": [
        {
          "internalType": "uint256",
          "name": "",
          "type": "uint256"
        }
      ],
      "stateMutability": "view",
      "type": "function"
    },
    {
      "inputs": [],
      "name": "TEAM_WIDTH",
      "outputs": [
        {
          "internalType": "uint8",
          "name": "",
          "type": "uint8"
        }
      ],
      "stateMutability": "view",
      "type": "function"
    },
    {
      "inputs": [],
      "name": "TYPE_BOUNDARY",
      "outputs": [
        {
          "internalType": "uint8",
          "name": "",
          "type": "uint8"
        }
      ],
      "stateMutability": "view",
      "type": "function"
    },
    {
      "inputs": [],
      "name": "TYPE_MASK",
      "outputs": [
        {
          "internalType": "uint256",
          "name": "",
          "type": "uint256"
        }
      ],
      "stateMutability": "view",
      "type": "function"
    },
    {
      "inputs": [],
      "name": "TYPE_WIDTH",
      "outputs": [
        {
          "internalType": "uint8",
          "name": "",
          "type": "uint8"
        }
      ],
      "stateMutability": "view",
      "type": "function"
    },
    {
      "inputs": [],
      "name": "UNIQUE",
      "outputs": [
        {
          "internalType": "uint256",
          "name": "",
          "type": "uint256"
        }
      ],
      "stateMutability": "view",
      "type": "function"
    },
    {
      "inputs": [],
      "name": "UNIQUENESS_BOUNDARY",
      "outputs": [
        {
          "internalType": "uint8",
          "name": "",
          "type": "uint8"
        }
      ],
      "stateMutability": "view",
      "type": "function"
    },
    {
      "inputs": [],
      "name": "UNIQUENESS_MASK",
      "outputs": [
        {
          "internalType": "uint256",
          "name": "",
          "type": "uint256"
        }
      ],
      "stateMutability": "view",
      "type": "function"
    },
    {
      "inputs": [],
      "name": "UNIQUENESS_WIDTH",
      "outputs": [
        {
          "internalType": "uint8",
          "name": "",
          "type": "uint8"
        }
      ],
      "stateMutability": "view",
      "type": "function"
    },
    {
      "inputs": [],
      "name": "USE_AFTER",
      "outputs": [
        {
          "internalType": "uint256",
          "name": "",
          "type": "uint256"
        }
      ],
      "stateMutability": "view",
      "type": "function"
    },
    {
      "inputs": [],
      "name": "USE_ONCE",
      "outputs": [
        {
          "internalType": "uint256",
          "name": "",
          "type": "uint256"
        }
      ],
      "stateMutability": "view",
      "type": "function"
    },
    {
      "inputs": [],
      "name": "USE_UNLIMITED",
      "outputs": [
        {
          "internalType": "uint256",
          "name": "",
          "type": "uint256"
        }
      ],
      "stateMutability": "view",
      "type": "function"
    },
    {
      "inputs": [],
      "name": "USE_UNTIL",
      "outputs": [
        {
          "internalType": "uint256",
          "name": "",
          "type": "uint256"
        }
      ],
      "stateMutability": "view",
      "type": "function"
    },
    {
      "inputs": [],
      "name": "VANILLA_TYPE",
      "outputs": [
        {
          "internalType": "uint256",
          "name": "",
          "type": "uint256"
        }
      ],
      "stateMutability": "view",
      "type": "function"
    },
    {
      "inputs": [],
      "name": "VOUCHED_TIME_TYPE",
      "outputs": [
        {
          "internalType": "uint256",
          "name": "",
          "type": "uint256"
        }
      ],
      "stateMutability": "view",
      "type": "function"
    },
    {
      "inputs": [],
      "name": "numRoles",
      "outputs": [
        {
          "internalType": "uint8",
          "name": "",
          "type": "uint8"
        }
      ],
      "stateMutability": "view",
      "type": "function"
    }
  ],
  "bytecode": "0x610c6d61003a600b82828239805160001a60731461002d57634e487b7160e01b600052600060045260246000fd5b30600052607381538281f3fe730000000000000000000000000000000000000000301460806040526004361061029d5760003560e01c8063067ff866146102a25780630daec9e4146102c15780630f94cc50146102d757806311bb8afd146102df57806313affe4f146102e757806318ae2375146102ef5780631c45349c146102f75780632ed58d81146102ff57806330c9cf931461030757806333d810881461030f57806334628c1f1461031757806335ab86291461031f57806339054c23146103275780633adbbbc11461032f5780633b60bd01146103375780633c176d9f1461033f5780633f79f1a41461034757806344cca2df1461034f5780634ce7a244146103575780634f06c0fb1461035f578063513e15d9146103675780635157b5631461036f57806351d2942514610377578063552376611461037f5780635e2a338614610387578063666e6fd51461038f578063669d5bfa146103975780636fa09a791461039f5780637e8ceec7146103a757806383e5b21a146103af57806384bb0fe6146103b7578063891fbef01461033f5780638b2ed388146103bf57806392e4267b146103c7578063957dc9a0146103cf5780639c37625c146103d75780639eb3f243146103df5780639f31459a146103e7578063a8410bc1146103ef578063a9c906ae146103f7578063aae5270f146103ff578063aaeec72d14610407578063b8785f8a146103e7578063ba952df11461040f578063baf42f9314610417578063c5a0d9b2146102ff578063d3e62b091461041f578063d701765014610427578063d7fcc1131461042f578063db58fe9514610437578063dbd406e81461043f578063e5587f7a14610447578063e86410921461044f578063f28a726d14610457578063f449d92f1461045f578063f73a731114610467578063f8418ef31461046f575b600080fd5b6102aa610477565b60405160ff90911681526020015b60405180910390f35b6102c9610493565b6040519081526020016102b8565b6102c96104ab565b6102aa602081565b6102c96104e4565b6102aa6104fb565b6102c9610516565b6102aa600381565b6102c9610539565b6102c961055c565b6102c9610605565b6102c961061c565b6102c9610634565b6102c961066e565b6102aa600d81565b6102aa600881565b6102c9610691565b6102aa6106a0565b6102c96106bc565b6102c96106eb565b6102c9610703565b6102c9610726565b6102c9610755565b6102c9610764565b6102c961078a565b6102c96107a2565b6102c96107b1565b6102c96107ee565b6102c96107ff565b6102c9610817565b6102c961083a565b6102aa600b81565b6102c961087b565b6102c961088c565b6102aa6108b4565b6102c96108e8565b6102aa600181565b6102c96108f5565b6102c9610902565b6102c961090f565b6102c9610937565b6102aa610953565b6102c9610968565b6102c961098b565b6102c96109d7565b6102c96109e4565b6102c9610a02565b6102c9610a1a565b6102aa610a31565b6102c9610a45565b6102c9610a68565b6102c9610a7a565b6102aa610aa4565b6102c9610ab1565b6008610486600d610100610bc4565b6104909190610bfe565b81565b6104a0600d610100610bc4565b60ff16610400901b81565b60086104ba600d610100610bc4565b6104c49190610bfe565b60ff1660016104d560086002610b0b565b6104df9190610be7565b901b81565b6104f1600d610100610bc4565b60ff166010901b81565b6003600861050c600d610100610bc4565b6104869190610bfe565b6008610525600d610100610bc4565b61052f9190610bfe565b60ff166006901b81565b6008610548600d610100610bc4565b6105529190610bfe565b60ff166004901b81565b600160088160038083610572600d610100610bc4565b61057c9190610bfe565b6105869190610bfe565b6105909190610bfe565b61059a9190610bfe565b6105a49190610bfe565b6105ae9190610bfe565b60ff1660016105be816002610b0b565b6105c89190610be7565b901b60038060086105dc600d610100610bc4565b6105e69190610bfe565b6105f09190610bfe565b6105fa9190610bfe565b60ff166001901b1781565b610612600d610100610bc4565b60ff166020901b81565b610629600d610100610bc4565b60ff16611000901b81565b6003806008610646600d610100610bc4565b6106509190610bfe565b61065a9190610bfe565b6106649190610bfe565b60ff166002901b81565b600861067d600d610100610bc4565b6106879190610bfe565b60ff166005901b81565b600861065a600d610100610bc4565b60038060086106b2600d610100610bc4565b61050c9190610bfe565b600360086106cd600d610100610bc4565b6106d79190610bfe565b6106e19190610bfe565b60ff166003901b81565b6106f8600d610100610bc4565b60ff16610800901b81565b6008610712600d610100610bc4565b61071c9190610bfe565b60ff16600a901b81565b60036008610737600d610100610bc4565b6107419190610bfe565b61074b9190610bfe565b60ff166001901b81565b6008610741600d610100610bc4565b6003806008610776600d610100610bc4565b6107809190610bfe565b6105489190610bfe565b610797600d610100610bc4565b60ff16610100901b81565b60086106d7600d610100610bc4565b60086001600380836107c6600d610100610bc4565b6107d09190610bfe565b6107da9190610bfe565b6107e49190610bfe565b6104ba9190610bfe565b60036008610650600d610100610bc4565b600161080d60206002610b0b565b6104909190610be7565b6008610826600d610100610bc4565b6108309190610bfe565b60ff166008901b81565b600380600861084c600d610100610bc4565b6108569190610bfe565b6108609190610bfe565b61086a9190610bfe565b60ff1660016104d560036002610b0b565b60036008610856600d610100610bc4565b600861089b600d610100610bc4565b6108a59190610bfe565b60ff166104df60086002610b0b565b6001600881600380836108ca600d610100610bc4565b6108d49190610bfe565b6108de9190610bfe565b6106b29190610bfe565b610552600d610100610bc4565b610664600d610100610bc4565b610830600d610100610bc4565b60016003806008610923600d610100610bc4565b61092d9190610bfe565b6107379190610bfe565b6003806008610949600d610100610bc4565b6106cd9190610bfe565b60086001600380836108d4600d610100610bc4565b6008610977600d610100610bc4565b6109819190610bfe565b60ff166007901b81565b6001600380600861099f600d610100610bc4565b6109a99190610bfe565b6109b39190610bfe565b6109bd9190610bfe565b6109c79190610bfe565b60ff1660016104d5816002610b0b565b61074b600d610100610bc4565b6109f1600d610100610bc4565b60ff1660016104d5600d6002610b0b565b610a0f600d610100610bc4565b60ff16610200901b81565b610a27600d610100610bc4565b60ff166040901b81565b600160038060086108de600d610100610bc4565b6008610a54600d610100610bc4565b610a5e9190610bfe565b60ff166009901b81565b600380600861092d600d610100610bc4565b600160088160038083610a90600d610100610bc4565b610a9a9190610bfe565b61099f9190610bfe565b610490600d610100610bc4565b610abe600d610100610bc4565b60ff166080901b81565b600181815b80851115610b03578160001904821115610ae957610ae9610c21565b80851615610af657918102915b93841c9390800290610acd565b509250929050565b6000610b1a60ff841683610b21565b9392505050565b600082610b3057506001610bbe565b81610b3d57506000610bbe565b8160018114610b535760028114610b5d57610b79565b6001915050610bbe565b60ff841115610b6e57610b6e610c21565b50506001821b610bbe565b5060208310610133831016604e8410600b8410161715610b9c575081810a610bbe565b610ba68383610ac8565b8060001904821115610bba57610bba610c21565b0290505b92915050565b600061ffff83811690831681811015610bdf57610bdf610c21565b039392505050565b600082821015610bf957610bf9610c21565b500390565b600060ff821660ff841680821015610c1857610c18610c21565b90039392505050565b634e487b7160e01b600052601160045260246000fdfea2646970667358221220b13e918f211ea94051c3675179532c9ac578b962a9f7f0e0bbba08510710500964736f6c63430008040033",
  "linkReferences": {},
  "deployedLinkReferences": {}
}