{
  "_format": "hh-sol-artifact-1",
  "contractName": "BulkDisbursableNFTs",
  "sourceName": "src/BulkDisbursableNFTs.sol",
  "abi": [
    {
      "inputs": [],
      "stateMutability": "nonpayable",
      "type": "constructor"
    },
    {
      "anonymous": false,
      "inputs": [
        {
          "indexed": false,
          "internalType": "address",
          "name": "previousAdmin",
          "type": "address"
        },
        {
          "indexed": false,
          "internalType": "address",
          "name": "newAdmin",
          "type": "address"
        }
      ],
      "name": "AdminChanged",
      "type": "event"
    },
    {
      "anonymous": false,
      "inputs": [
        {
          "indexed": true,
          "internalType": "address",
          "name": "account",
          "type": "address"
        },
        {
          "indexed": true,
          "internalType": "address",
          "name": "operator",
          "type": "address"
        },
        {
          "indexed": false,
          "internalType": "bool",
          "name": "approved",
          "type": "bool"
        }
      ],
      "name": "ApprovalForAll",
      "type": "event"
    },
    {
      "anonymous": false,
      "inputs": [
        {
          "indexed": true,
          "internalType": "address",
          "name": "beacon",
          "type": "address"
        }
      ],
      "name": "BeaconUpgraded",
      "type": "event"
    },
    {
      "anonymous": false,
      "inputs": [
        {
          "indexed": false,
          "internalType": "uint256",
          "name": "id",
          "type": "uint256"
        },
        {
          "indexed": false,
          "internalType": "address",
          "name": "controller",
          "type": "address"
        }
      ],
      "name": "Created",
      "type": "event"
    },
    {
      "anonymous": false,
      "inputs": [
        {
          "indexed": true,
          "internalType": "address",
          "name": "previousOwner",
          "type": "address"
        },
        {
          "indexed": true,
          "internalType": "address",
          "name": "newOwner",
          "type": "address"
        }
      ],
      "name": "OwnershipTransferred",
      "type": "event"
    },
    {
      "anonymous": false,
      "inputs": [
        {
          "indexed": true,
          "internalType": "address",
          "name": "operator",
          "type": "address"
        },
        {
          "indexed": true,
          "internalType": "address",
          "name": "from",
          "type": "address"
        },
        {
          "indexed": true,
          "internalType": "address",
          "name": "to",
          "type": "address"
        },
        {
          "indexed": false,
          "internalType": "uint256[]",
          "name": "ids",
          "type": "uint256[]"
        },
        {
          "indexed": false,
          "internalType": "uint256[]",
          "name": "values",
          "type": "uint256[]"
        }
      ],
      "name": "TransferBatch",
      "type": "event"
    },
    {
      "anonymous": false,
      "inputs": [
        {
          "indexed": true,
          "internalType": "address",
          "name": "operator",
          "type": "address"
        },
        {
          "indexed": true,
          "internalType": "address",
          "name": "from",
          "type": "address"
        },
        {
          "indexed": true,
          "internalType": "address",
          "name": "to",
          "type": "address"
        },
        {
          "indexed": false,
          "internalType": "uint256",
          "name": "id",
          "type": "uint256"
        },
        {
          "indexed": false,
          "internalType": "uint256",
          "name": "value",
          "type": "uint256"
        }
      ],
      "name": "TransferSingle",
      "type": "event"
    },
    {
      "anonymous": false,
      "inputs": [
        {
          "indexed": false,
          "internalType": "string",
          "name": "value",
          "type": "string"
        },
        {
          "indexed": true,
          "internalType": "uint256",
          "name": "id",
          "type": "uint256"
        }
      ],
      "name": "URI",
      "type": "event"
    },
    {
      "anonymous": false,
      "inputs": [
        {
          "indexed": true,
          "internalType": "address",
          "name": "implementation",
          "type": "address"
        }
      ],
      "name": "Upgraded",
      "type": "event"
    },
    {
      "inputs": [
        {
          "internalType": "uint256",
          "name": "",
          "type": "uint256"
        }
      ],
      "name": "Roles",
      "outputs": [
        {
          "internalType": "string",
          "name": "",
          "type": "string"
        }
      ],
      "stateMutability": "view",
      "type": "function"
    },
    {
      "inputs": [
        {
          "internalType": "address",
          "name": "account",
          "type": "address"
        },
        {
          "internalType": "uint256",
          "name": "id",
          "type": "uint256"
        }
      ],
      "name": "balanceOf",
      "outputs": [
        {
          "internalType": "uint256",
          "name": "",
          "type": "uint256"
        }
      ],
      "stateMutability": "view",
      "type": "function"
    },
    {
      "inputs": [
        {
          "internalType": "address[]",
          "name": "accounts",
          "type": "address[]"
        },
        {
          "internalType": "uint256[]",
          "name": "ids",
          "type": "uint256[]"
        }
      ],
      "name": "balanceOfBatch",
      "outputs": [
        {
          "internalType": "uint256[]",
          "name": "",
          "type": "uint256[]"
        }
      ],
      "stateMutability": "view",
      "type": "function"
    },
    {
      "inputs": [
        {
          "internalType": "address",
          "name": "owner",
          "type": "address"
        },
        {
          "internalType": "uint256",
          "name": "id",
          "type": "uint256"
        },
        {
          "internalType": "uint256",
          "name": "quantity",
          "type": "uint256"
        }
      ],
      "name": "burn",
      "outputs": [],
      "stateMutability": "nonpayable",
      "type": "function"
    },
    {
      "inputs": [
        {
          "internalType": "address",
          "name": "account",
          "type": "address"
        },
        {
          "internalType": "uint256[]",
          "name": "ids",
          "type": "uint256[]"
        },
        {
          "internalType": "uint256[]",
          "name": "values",
          "type": "uint256[]"
        }
      ],
      "name": "burnBatch",
      "outputs": [],
      "stateMutability": "nonpayable",
      "type": "function"
    },
    {
      "inputs": [
        {
          "internalType": "uint256",
          "name": "id",
          "type": "uint256"
        },
        {
          "internalType": "string",
          "name": "newURI",
          "type": "string"
        },
        {
          "internalType": "uint256",
          "name": "max",
          "type": "uint256"
        }
      ],
      "name": "configure",
      "outputs": [],
      "stateMutability": "nonpayable",
      "type": "function"
    },
    {
      "inputs": [
        {
          "internalType": "enum BulkDisbursableNFTs.Role[]",
          "name": "grants",
          "type": "uint8[]"
        },
        {
          "internalType": "enum BulkDisbursableNFTs.Role[]",
          "name": "disables",
          "type": "uint8[]"
        }
      ],
      "name": "create",
      "outputs": [
        {
          "internalType": "uint256",
          "name": "id",
          "type": "uint256"
        }
      ],
      "stateMutability": "nonpayable",
      "type": "function"
    },
    {
      "inputs": [
        {
          "internalType": "address",
          "name": "maintainer",
          "type": "address"
        },
        {
          "internalType": "enum BulkDisbursableNFTs.Role[]",
          "name": "grants",
          "type": "uint8[]"
        },
        {
          "internalType": "enum BulkDisbursableNFTs.Role[]",
          "name": "disables",
          "type": "uint8[]"
        }
      ],
      "name": "create",
      "outputs": [
        {
          "internalType": "uint256",
          "name": "id",
          "type": "uint256"
        }
      ],
      "stateMutability": "nonpayable",
      "type": "function"
    },
    {
      "inputs": [],
      "name": "create",
      "outputs": [
        {
          "internalType": "uint256",
          "name": "id",
          "type": "uint256"
        }
      ],
      "stateMutability": "nonpayable",
      "type": "function"
    },
    {
      "inputs": [
        {
          "internalType": "enum BulkDisbursableNFTs.Role",
          "name": "toDisable",
          "type": "uint8"
        },
        {
          "internalType": "uint256",
          "name": "tokenId",
          "type": "uint256"
        }
      ],
      "name": "disableRole",
      "outputs": [],
      "stateMutability": "nonpayable",
      "type": "function"
    },
    {
      "inputs": [
        {
          "internalType": "uint256",
          "name": "id",
          "type": "uint256"
        }
      ],
      "name": "exists",
      "outputs": [
        {
          "internalType": "bool",
          "name": "",
          "type": "bool"
        }
      ],
      "stateMutability": "view",
      "type": "function"
    },
    {
      "inputs": [
        {
          "internalType": "enum BulkDisbursableNFTs.Role",
          "name": "role",
          "type": "uint8"
        },
        {
          "internalType": "address",
          "name": "user",
          "type": "address"
        },
        {
          "internalType": "uint256",
          "name": "index",
          "type": "uint256"
        }
      ],
      "name": "gateToken",
      "outputs": [
        {
          "internalType": "uint256",
          "name": "id",
          "type": "uint256"
        }
      ],
      "stateMutability": "view",
      "type": "function"
    },
    {
      "inputs": [
        {
          "internalType": "enum BulkDisbursableNFTs.Role",
          "name": "role",
          "type": "uint8"
        },
        {
          "internalType": "address",
          "name": "user",
          "type": "address"
        }
      ],
      "name": "grantRole",
      "outputs": [],
      "stateMutability": "nonpayable",
      "type": "function"
    },
    {
      "inputs": [
        {
          "internalType": "enum BulkDisbursableNFTs.Role",
          "name": "role",
          "type": "uint8"
        },
        {
          "internalType": "address",
          "name": "user",
          "type": "address"
        },
        {
          "internalType": "uint256",
          "name": "index",
          "type": "uint256"
        }
      ],
      "name": "grantRole",
      "outputs": [],
      "stateMutability": "nonpayable",
      "type": "function"
    },
    {
      "inputs": [
        {
          "internalType": "enum BulkDisbursableNFTs.Role",
          "name": "role",
          "type": "uint8"
        }
      ],
      "name": "hasRole",
      "outputs": [
        {
          "internalType": "bool",
          "name": "has",
          "type": "bool"
        }
      ],
      "stateMutability": "view",
      "type": "function"
    },
    {
      "inputs": [
        {
          "internalType": "enum BulkDisbursableNFTs.Role",
          "name": "role",
          "type": "uint8"
        },
        {
          "internalType": "address",
          "name": "user",
          "type": "address"
        },
        {
          "internalType": "uint256",
          "name": "id",
          "type": "uint256"
        }
      ],
      "name": "hasRole",
      "outputs": [
        {
          "internalType": "bool",
          "name": "has",
          "type": "bool"
        }
      ],
      "stateMutability": "view",
      "type": "function"
    },
    {
      "inputs": [
        {
          "internalType": "enum BulkDisbursableNFTs.Role",
          "name": "role",
          "type": "uint8"
        },
        {
          "internalType": "uint256",
          "name": "id",
          "type": "uint256"
        }
      ],
      "name": "hasRole",
      "outputs": [
        {
          "internalType": "bool",
          "name": "has",
          "type": "bool"
        }
      ],
      "stateMutability": "view",
      "type": "function"
    },
    {
      "inputs": [
        {
          "internalType": "enum BulkDisbursableNFTs.Role",
          "name": "role",
          "type": "uint8"
        },
        {
          "internalType": "address",
          "name": "user",
          "type": "address"
        }
      ],
      "name": "hasRole",
      "outputs": [
        {
          "internalType": "bool",
          "name": "has",
          "type": "bool"
        }
      ],
      "stateMutability": "view",
      "type": "function"
    },
    {
      "inputs": [
        {
          "internalType": "string",
          "name": "_name",
          "type": "string"
        },
        {
          "internalType": "string",
          "name": "_symbol",
          "type": "string"
        }
      ],
      "name": "initialize",
      "outputs": [],
      "stateMutability": "nonpayable",
      "type": "function"
    },
    {
      "inputs": [
        {
          "internalType": "address",
          "name": "account",
          "type": "address"
        },
        {
          "internalType": "address",
          "name": "operator",
          "type": "address"
        }
      ],
      "name": "isApprovedForAll",
      "outputs": [
        {
          "internalType": "bool",
          "name": "",
          "type": "bool"
        }
      ],
      "stateMutability": "view",
      "type": "function"
    },
    {
      "inputs": [
        {
          "internalType": "address",
          "name": "user",
          "type": "address"
        }
      ],
      "name": "isSuper",
      "outputs": [
        {
          "internalType": "bool",
          "name": "superuser",
          "type": "bool"
        }
      ],
      "stateMutability": "view",
      "type": "function"
    },
    {
      "inputs": [],
      "name": "isSuper",
      "outputs": [
        {
          "internalType": "bool",
          "name": "superuser",
          "type": "bool"
        }
      ],
      "stateMutability": "view",
      "type": "function"
    },
    {
      "inputs": [
        {
          "internalType": "address[]",
          "name": "to",
          "type": "address[]"
        },
        {
          "internalType": "uint256",
          "name": "id",
          "type": "uint256"
        },
        {
          "internalType": "bytes",
          "name": "data",
          "type": "bytes"
        }
      ],
      "name": "mint",
      "outputs": [],
      "stateMutability": "nonpayable",
      "type": "function"
    },
    {
      "inputs": [
        {
          "internalType": "address",
          "name": "recipient",
          "type": "address"
        },
        {
          "internalType": "uint256",
          "name": "id",
          "type": "uint256"
        },
        {
          "internalType": "uint256",
          "name": "amount",
          "type": "uint256"
        },
        {
          "internalType": "bytes",
          "name": "data",
          "type": "bytes"
        }
      ],
      "name": "mint",
      "outputs": [
        {
          "internalType": "bool",
          "name": "minted",
          "type": "bool"
        }
      ],
      "stateMutability": "nonpayable",
      "type": "function"
    },
    {
      "inputs": [],
      "name": "name",
      "outputs": [
        {
          "internalType": "string",
          "name": "",
          "type": "string"
        }
      ],
      "stateMutability": "view",
      "type": "function"
    },
    {
      "inputs": [],
      "name": "numRoles",
      "outputs": [
        {
          "internalType": "uint8",
          "name": "",
          "type": "uint8"
        }
      ],
      "stateMutability": "view",
      "type": "function"
    },
    {
      "inputs": [],
      "name": "owner",
      "outputs": [
        {
          "internalType": "address",
          "name": "",
          "type": "address"
        }
      ],
      "stateMutability": "view",
      "type": "function"
    },
    {
      "inputs": [],
      "name": "proxiableUUID",
      "outputs": [
        {
          "internalType": "bytes32",
          "name": "",
          "type": "bytes32"
        }
      ],
      "stateMutability": "view",
      "type": "function"
    },
    {
      "inputs": [],
      "name": "renounceOwnership",
      "outputs": [],
      "stateMutability": "nonpayable",
      "type": "function"
    },
    {
      "inputs": [
        {
          "internalType": "string",
          "name": "roleName",
          "type": "string"
        }
      ],
      "name": "roleIndexForName",
      "outputs": [
        {
          "internalType": "enum BulkDisbursableNFTs.Role",
          "name": "role",
          "type": "uint8"
        }
      ],
      "stateMutability": "pure",
      "type": "function"
    },
    {
      "inputs": [
        {
          "internalType": "enum BulkDisbursableNFTs.Role",
          "name": "index",
          "type": "uint8"
        }
      ],
      "name": "roleNameByIndex",
      "outputs": [
        {
          "internalType": "string",
          "name": "",
          "type": "string"
        }
      ],
      "stateMutability": "pure",
      "type": "function"
    },
    {
      "inputs": [
        {
          "internalType": "enum BulkDisbursableNFTs.Role",
          "name": "role",
          "type": "uint8"
        }
      ],
      "name": "roleToken",
      "outputs": [
        {
          "internalType": "uint256",
          "name": "id",
          "type": "uint256"
        }
      ],
      "stateMutability": "view",
      "type": "function"
    },
    {
      "inputs": [
        {
          "internalType": "enum BulkDisbursableNFTs.Role",
          "name": "role",
          "type": "uint8"
        },
        {
          "internalType": "uint256",
          "name": "index",
          "type": "uint256"
        }
      ],
      "name": "roleToken",
      "outputs": [
        {
          "internalType": "uint256",
          "name": "id",
          "type": "uint256"
        }
      ],
      "stateMutability": "view",
      "type": "function"
    },
    {
      "inputs": [
        {
          "internalType": "address",
          "name": "from",
          "type": "address"
        },
        {
          "internalType": "address",
          "name": "to",
          "type": "address"
        },
        {
          "internalType": "uint256[]",
          "name": "ids",
          "type": "uint256[]"
        },
        {
          "internalType": "uint256[]",
          "name": "amounts",
          "type": "uint256[]"
        },
        {
          "internalType": "bytes",
          "name": "data",
          "type": "bytes"
        }
      ],
      "name": "safeBatchTransferFrom",
      "outputs": [],
      "stateMutability": "nonpayable",
      "type": "function"
    },
    {
      "inputs": [
        {
          "internalType": "address",
          "name": "from",
          "type": "address"
        },
        {
          "internalType": "address",
          "name": "to",
          "type": "address"
        },
        {
          "internalType": "uint256",
          "name": "id",
          "type": "uint256"
        },
        {
          "internalType": "uint256",
          "name": "amount",
          "type": "uint256"
        },
        {
          "internalType": "bytes",
          "name": "data",
          "type": "bytes"
        }
      ],
      "name": "safeTransferFrom",
      "outputs": [],
      "stateMutability": "nonpayable",
      "type": "function"
    },
    {
      "inputs": [
        {
          "internalType": "address",
          "name": "operator",
          "type": "address"
        },
        {
          "internalType": "bool",
          "name": "approved",
          "type": "bool"
        }
      ],
      "name": "setApprovalForAll",
      "outputs": [],
      "stateMutability": "nonpayable",
      "type": "function"
    },
    {
      "inputs": [
        {
          "internalType": "string",
          "name": "_name",
          "type": "string"
        },
        {
          "internalType": "string",
          "name": "_symbol",
          "type": "string"
        }
      ],
      "name": "setDescription",
      "outputs": [],
      "stateMutability": "nonpayable",
      "type": "function"
    },
    {
      "inputs": [
        {
          "internalType": "uint256",
          "name": "id",
          "type": "uint256"
        },
        {
          "internalType": "uint256",
          "name": "max",
          "type": "uint256"
        }
      ],
      "name": "setMax",
      "outputs": [],
      "stateMutability": "nonpayable",
      "type": "function"
    },
    {
      "inputs": [
        {
          "internalType": "uint256",
          "name": "id",
          "type": "uint256"
        },
        {
          "internalType": "string",
          "name": "newURI",
          "type": "string"
        }
      ],
      "name": "setURI",
      "outputs": [],
      "stateMutability": "nonpayable",
      "type": "function"
    },
    {
      "inputs": [
        {
          "internalType": "bytes4",
          "name": "interfaceId",
          "type": "bytes4"
        }
      ],
      "name": "supportsInterface",
      "outputs": [
        {
          "internalType": "bool",
          "name": "",
          "type": "bool"
        }
      ],
      "stateMutability": "view",
      "type": "function"
    },
    {
      "inputs": [],
      "name": "symbol",
      "outputs": [
        {
          "internalType": "string",
          "name": "",
          "type": "string"
        }
      ],
      "stateMutability": "view",
      "type": "function"
    },
    {
      "inputs": [
        {
          "internalType": "uint256",
          "name": "index",
          "type": "uint256"
        }
      ],
      "name": "tokenByIndex",
      "outputs": [
        {
          "internalType": "uint256",
          "name": "id",
          "type": "uint256"
        }
      ],
      "stateMutability": "view",
      "type": "function"
    },
    {
      "inputs": [
        {
          "internalType": "uint256",
          "name": "id",
          "type": "uint256"
        }
      ],
      "name": "tokenIndex",
      "outputs": [
        {
          "internalType": "uint256",
          "name": "index",
          "type": "uint256"
        }
      ],
      "stateMutability": "view",
      "type": "function"
    },
    {
      "inputs": [
        {
          "internalType": "address",
          "name": "owner",
          "type": "address"
        },
        {
          "internalType": "uint256",
          "name": "index",
          "type": "uint256"
        }
      ],
      "name": "tokenOfOwnerByIndex",
      "outputs": [
        {
          "internalType": "uint256",
          "name": "id",
          "type": "uint256"
        }
      ],
      "stateMutability": "view",
      "type": "function"
    },
    {
      "inputs": [
        {
          "internalType": "uint256",
          "name": "id",
          "type": "uint256"
        }
      ],
      "name": "totalSupply",
      "outputs": [
        {
          "internalType": "uint256",
          "name": "",
          "type": "uint256"
        }
      ],
      "stateMutability": "view",
      "type": "function"
    },
    {
      "inputs": [
        {
          "internalType": "address",
          "name": "newOwner",
          "type": "address"
        }
      ],
      "name": "transferOwnership",
      "outputs": [],
      "stateMutability": "nonpayable",
      "type": "function"
    },
    {
      "inputs": [],
      "name": "typeSupply",
      "outputs": [
        {
          "internalType": "uint256",
          "name": "count",
          "type": "uint256"
        }
      ],
      "stateMutability": "view",
      "type": "function"
    },
    {
      "inputs": [
        {
          "internalType": "address",
          "name": "newImplementation",
          "type": "address"
        }
      ],
      "name": "upgradeTo",
      "outputs": [],
      "stateMutability": "nonpayable",
      "type": "function"
    },
    {
      "inputs": [
        {
          "internalType": "address",
          "name": "newImplementation",
          "type": "address"
        },
        {
          "internalType": "bytes",
          "name": "data",
          "type": "bytes"
        }
      ],
      "name": "upgradeToAndCall",
      "outputs": [],
      "stateMutability": "payable",
      "type": "function"
    },
    {
      "inputs": [
        {
          "internalType": "uint256",
          "name": "id",
          "type": "uint256"
        }
      ],
      "name": "uri",
      "outputs": [
        {
          "internalType": "string",
          "name": "metadata",
          "type": "string"
        }
      ],
      "stateMutability": "view",
      "type": "function"
    }
  ],
  "bytecode": "0x60a06040523060601b6080523480156200001857600080fd5b50600054610100900460ff16620000365760005460ff161562000040565b62000040620000e5565b620000a85760405162461bcd60e51b815260206004820152602e60248201527f496e697469616c697a61626c653a20636f6e747261637420697320616c72656160448201526d191e481a5b9a5d1a585b1a5e995960921b606482015260840160405180910390fd5b600054610100900460ff16158015620000cb576000805461ffff19166101011790555b8015620000de576000805461ff00191690555b5062000112565b6000620000fd306200010360201b620029fd1760201c565b15905090565b6001600160a01b03163b151590565b60805160601c61581b6200014d600039600081816112d9015281816113190152818161188d015281816118cd0152611a01015261581b6000f3fe6080604052600436106102385760003560e01c8062fdd58e1461023d57806301ffc9a7146102705780630583e9f8146102a057806306fdde03146102c05780630e89341c146102e25780630ec0370f1461030257806314c464271461032457806316730ab01461034457806319e0755c146103645780632eb2c2d6146103845780632f745c59146103a45780633659cfe6146103c45780633b91ceef146103e45780633dbe35de146104045780634468031f1461042457806348289589146104445780634a80070f146104645780634cd88b76146104845780634e1273f4146104a45780634f1ef286146104d15780634f558e79146104e45780634f6ccce71461051357806352d1902d146105335780635d5664e1146105485780636755d456146105685780636b20c454146105885780636fc0020b146105a8578063715018a6146105c8578063731133e9146105dd578063778f5a7b146105fd578063814c24501461062a578063862440e21461064a5780638b2ed3881461066a5780638da5cb5b1461069157806395d89b41146106be5780639d6d7eaa146106d35780639d969a9c146106f35780639e97b8f614610708578063a22cb46514610728578063aa8e906614610748578063b0bdf26114610768578063bd85b03914610788578063c3c8df99146107b5578063e985e9c5146107d5578063edc79bac1461081e578063efc81a8c14610833578063f242432a14610848578063f2fde38b14610868578063f5298aca14610888578063fde4047a146108a8575b600080fd5b34801561024957600080fd5b5061025d610258366004614a97565b6108c8565b6040519081526020015b60405180910390f35b34801561027c57600080fd5b5061029061028b366004614c73565b610964565b6040519015158152602001610267565b3480156102ac57600080fd5b5061025d6102bb366004614de3565b6109b4565b3480156102cc57600080fd5b506102d5610a22565b60405161026791906150a4565b3480156102ee57600080fd5b506102d56102fd366004614de3565b610ab1565b34801561030e57600080fd5b5061032261031d366004614ba6565b610d24565b005b34801561033057600080fd5b5061025d61033f366004614cab565b610d7b565b34801561035057600080fd5b5061025d61035f366004614ce0565b610d88565b34801561037057600080fd5b5061029061037f366004614cab565b6111a7565b34801561039057600080fd5b5061032261039f366004614835565b6111b3565b3480156103b057600080fd5b5061025d6103bf366004614a97565b61124a565b3480156103d057600080fd5b506103226103df3660046147e9565b6112ce565b3480156103f057600080fd5b506103226103ff366004614e94565b611397565b34801561041057600080fd5b5061025d61041f366004614d1b565b61141a565b34801561043057600080fd5b5061029061043f366004614ce0565b611595565b34801561045057600080fd5b5061029061045f366004614d1b565b6115bc565b34801561047057600080fd5b5061025d61047f366004614c05565b6115c9565b34801561049057600080fd5b5061032261049f366004614d36565b6115d6565b3480156104b057600080fd5b506104c46104bf366004614b50565b611721565b6040516102679190615015565b6103226104df366004614a4c565b611882565b3480156104f057600080fd5b506102906104ff366004614de3565b600090815260fb6020526040902054151590565b34801561051f57600080fd5b5061025d61052e366004614de3565b611938565b34801561053f57600080fd5b5061025d6119f4565b34801561055457600080fd5b50610322610563366004614cc5565b611aa3565b34801561057457600080fd5b50610322610583366004614d36565b611aaf565b34801561059457600080fd5b506103226105a33660046149ac565b611af9565b3480156105b457600080fd5b506102d56105c3366004614de3565b611b41565b3480156105d457600080fd5b50610322611b61565b3480156105e957600080fd5b506102906105f8366004614af2565b611b9c565b34801561060957600080fd5b5061061d610618366004614d9e565b611da4565b604051610267919061504d565b34801561063657600080fd5b506102d5610645366004614cab565b6120ec565b34801561065657600080fd5b50610322610665366004614dfb565b6124a3565b34801561067657600080fd5b5061067f600b81565b60405160ff9091168152602001610267565b34801561069d57600080fd5b506106a661257f565b6040516001600160a01b039091168152602001610267565b3480156106ca57600080fd5b506102d561258e565b3480156106df57600080fd5b506103226106ee366004614e44565b61259c565b3480156106ff57600080fd5b5061025d6125b1565b34801561071457600080fd5b50610290610723366004614cc5565b6125c9565b34801561073457600080fd5b50610322610743366004614a12565b6125d7565b34801561075457600080fd5b50610322610763366004614ce0565b6125e2565b34801561077457600080fd5b5061025d61078336600461493c565b6125ef565b34801561079457600080fd5b5061025d6107a3366004614de3565b600090815260fb602052604090205490565b3480156107c157600080fd5b506102906107d03660046147e9565b6127b6565b3480156107e157600080fd5b506102906107f0366004614803565b6001600160a01b03918216600090815260666020908152604080832093909416825291909152205460ff1690565b34801561082a57600080fd5b506102906127eb565b34801561083f57600080fd5b5061025d6127f6565b34801561085457600080fd5b506103226108633660046148da565b612817565b34801561087457600080fd5b506103226108833660046147e9565b61285c565b34801561089457600080fd5b506103226108a3366004614ac0565b6128f9565b3480156108b457600080fd5b506103226108c3366004614d1b565b612983565b60006001600160a01b0383166109395760405162461bcd60e51b815260206004820152602b60248201527f455243313135353a2062616c616e636520717565727920666f7220746865207a60448201526a65726f206164647265737360a81b60648201526084015b60405180910390fd5b5060008181526065602090815260408083206001600160a01b03861684529091529020545b92915050565b60006001600160e01b03198216636cdb3d1360e11b148061099557506001600160e01b031982166303a24d0760e21b145b8061095e57506301ffc9a760e01b6001600160e01b031983161461095e565b6000818152610195602052604090205480610a1d5760405162461bcd60e51b815260206004820152602360248201527f5468652072657175657374656420746f6b656e20646f6573206e6f742065786960448201526239ba1760e91b6064820152608401610930565b919050565b6101918054610a309061559a565b80601f0160208091040260200160405190810160405280929190818152602001828054610a5c9061559a565b8015610aa95780601f10610a7e57610100808354040283529160200191610aa9565b820191906000526020600020905b815481529060010190602001808311610a8c57829003601f168201915b505050505081565b600081815261019360205260409020805460609190610acf9061559a565b80601f0160208091040260200160405190810160405280929190818152602001828054610afb9061559a565b8015610b485780601f10610b1d57610100808354040283529160200191610b48565b820191906000526020600020905b815481529060010190602001808311610b2b57829003601f168201915b50505050509050805160001415610a1d576008610b68600d610100615511565b610b72919061554b565b600160ff919091161b6008610b8a600d610100615511565b610b94919061554b565b60ff166001610ba560086002615466565b610baf9190615534565b901b83161415610a1d576000600160088160038083610bd1600d610100615511565b610bdb919061554b565b610be5919061554b565b610bef919061554b565b610bf9919061554b565b610c03919061554b565b610c0d919061554b565b60ff166001610c1d816002615466565b610c279190615534565b901b6003806008610c3b600d610100615511565b610c45919061554b565b610c4f919061554b565b610c59919061554b565b60ff166001901b1719600160206002610c729190615466565b610c7c9190615534565b19841616600081815261019360205260409020805491925090610c9e9061559a565b80601f0160208091040260200160405190810160405280929190818152602001828054610cca9061559a565b8015610d175780601f10610cec57610100808354040283529160200191610d17565b820191906000526020600020905b815481529060010190602001808311610cfa57829003601f168201915b5050505050915050919050565b60005b8351811015610d7557610d64848281518110610d5357634e487b7160e01b600052603260045260246000fd5b602002602001015184600185611b9c565b50610d6e81615601565b9050610d27565b50505050565b600061095e82600061141a565b600080610d9485610d7b565b9050600061019581856008610dac600d610100615511565b610db6919061554b565b60ff16600a901b851717815260200190815260200160002054905080600014610e1057610194805482908110610dfc57634e487b7160e01b600052603260045260246000fd5b9060005260206000200154925050506111a0565b6000604051806101000160405280866001600860016003806008600d60ff16610100610e3c9190615511565b610e46919061554b565b610e50919061554b565b610e5a919061554b565b610e64919061554b565b610e6e919061554b565b610e78919061554b565b60ff166001610e88816002615466565b610e929190615534565b901b6003806008610ea6600d610100615511565b610eb0919061554b565b610eba919061554b565b610ec4919061554b565b600160ff919091161b871717178152602001866003806008610ee9600d610100615511565b610ef3919061554b565b610efd919061554b565b610f07919061554b565b60ff166001901b86171781526020016001600860016003806008600d60ff16610100610f339190615511565b610f3d919061554b565b610f47919061554b565b610f51919061554b565b610f5b919061554b565b610f65919061554b565b610f6f919061554b565b60ff166001610f7f816002615466565b610f899190615534565b901b6003806008610f9d600d610100615511565b610fa7919061554b565b610fb1919061554b565b610fbb919061554b565b600160ff919091161b86171781526020016003806008610fde600d610100615511565b610fe8919061554b565b610ff2919061554b565b610ffc919061554b565b60ff166001901b85178152602001866001600860016003806008600d60ff166101006110289190615511565b611032919061554b565b61103c919061554b565b611046919061554b565b611050919061554b565b61105a919061554b565b611064919061554b565b60ff166001611074816002615466565b61107e9190615534565b901b861717815260200160016008816003808361109e600d610100615511565b6110a8919061554b565b6110b2919061554b565b6110bc919061554b565b6110c6919061554b565b6110d0919061554b565b6110da919061554b565b60ff1660016110ea816002615466565b6110f49190615534565b901b851781528685176020820152604001849052905060005b60088160ff16101561119757600061114c88848460ff166008811061114257634e487b7160e01b600052603260045260246000fd5b60200201516108c8565b111561118557818160ff166008811061117557634e487b7160e01b600052603260045260246000fd5b60200201519450505050506111a0565b8061118f8161561c565b91505061110d565b50600093505050505b9392505050565b600061095e82336125c9565b6001600160a01b0385163314806111cf57506111cf85336107f0565b6112365760405162461bcd60e51b815260206004820152603260248201527f455243313135353a207472616e736665722063616c6c6572206973206e6f74206044820152711bdddb995c881b9bdc88185c1c1c9bdd995960721b6064820152608401610930565b6112438585858585612a0c565b5050505050565b6001600160a01b0382166000908152610196602052604081205482106112825760405162461bcd60e51b815260040161093090615307565b6001600160a01b0383166000908152610196602052604090208054839081106112bb57634e487b7160e01b600052603260045260246000fd5b9060005260206000200154905092915050565b306001600160a01b037f00000000000000000000000000000000000000000000000000000000000000001614156113175760405162461bcd60e51b815260040161093090615143565b7f00000000000000000000000000000000000000000000000000000000000000006001600160a01b0316611349612bc3565b6001600160a01b03161461136f5760405162461bcd60e51b8152600401610930906151c6565b61137881612bdf565b6040805160008082526020820190925261139491839190612c65565b50565b6113a26008836115bc565b806113b057506113b06127eb565b6114165760405162461bcd60e51b815260206004820152603160248201527f596f75206d75737420686176652061204c696d6974657220746f6b656e20746f6044820152701031b430b733b29038bab0b73a34ba3c9760791b6064820152608401610930565b5050565b600061142860206002615466565b82106114765760405162461bcd60e51b815260206004820152601f60248201527f496e64696365732063616e206265206174206d6f737420333220426974732e006044820152606401610930565b81600184600c81111561149957634e487b7160e01b600052602160045260246000fd5b146114a55760006114fe565b600160038060086114b9600d610100615511565b6114c3919061554b565b6114cd919061554b565b6114d7919061554b565b6114e1919061554b565b60ff1660016114f1816002615466565b6114fb9190615534565b901b5b6008600160038083611513600d610100615511565b61151d919061554b565b611527919061554b565b611531919061554b565b61153b919061554b565b611545919061554b565b60ff1685600c81111561156857634e487b7160e01b600052602160045260246000fd5b901b6008611579600d610100615511565b611583919061554b565b60ff166001901b171717905092915050565b600081815261019560205260408120546115b29085908590610d88565b1515949350505050565b60006111a0833384611595565b60006111a03384846125ef565b600054610100900460ff166115f15760005460ff16156115f9565b6115f9612ddf565b61165c5760405162461bcd60e51b815260206004820152602e60248201527f496e697469616c697a61626c653a20636f6e747261637420697320616c72656160448201526d191e481a5b9a5d1a585b1a5e995960921b6064820152608401610930565b600054610100900460ff1615801561167e576000805461ffff19166101011790555b611686612df0565b6116c46040518060400160405280602081526020017f4572726f723a2053696e676c6520546f6b656e20555249204e6f742055736564815250612e1f565b6116cc612e4f565b6116d4612e4f565b6116dc612e4f565b6101948054600181018255600091825260008051602061575f833981519152015561170985858585611aaf565b8015611243576000805461ff00191690555050505050565b606081518351146117865760405162461bcd60e51b815260206004820152602960248201527f455243313135353a206163636f756e747320616e6420696473206c656e677468604482015268040dad2e6dac2e8c6d60bb1b6064820152608401610930565b600083516001600160401b038111156117af57634e487b7160e01b600052604160045260246000fd5b6040519080825280602002602001820160405280156117d8578160200160208202803683370190505b50905060005b845181101561187a5761183f85828151811061180a57634e487b7160e01b600052603260045260246000fd5b602002602001015185838151811061183257634e487b7160e01b600052603260045260246000fd5b60200260200101516108c8565b82828151811061185f57634e487b7160e01b600052603260045260246000fd5b602090810291909101015261187381615601565b90506117de565b509392505050565b306001600160a01b037f00000000000000000000000000000000000000000000000000000000000000001614156118cb5760405162461bcd60e51b815260040161093090615143565b7f00000000000000000000000000000000000000000000000000000000000000006001600160a01b03166118fd612bc3565b6001600160a01b0316146119235760405162461bcd60e51b8152600401610930906151c6565b61192c82612bdf565b61141682826001612c65565b600080821161199c5760405162461bcd60e51b815260206004820152602a60248201527f4552432d3131353520456e756d657261626c653a20746f6b656e7320696e64656044820152697865642066726f6d203160b01b6064820152608401610930565b610194548211156119bf5760405162461bcd60e51b815260040161093090615307565b6101948054839081106119e257634e487b7160e01b600052603260045260246000fd5b90600052602060002001549050919050565b6000306001600160a01b037f00000000000000000000000000000000000000000000000000000000000000001614611a8f5760405162461bcd60e51b815260206004820152603860248201527f555550535570677261646561626c653a206d757374206e6f742062652063616c6044820152771b1959081d1a1c9bdd59da0819195b1959d85d1958d85b1b60421b6064820152608401610930565b5060008051602061579f8339815191525b90565b611416828260006125e2565b33611ab861257f565b6001600160a01b031614611ade5760405162461bcd60e51b8152600401610930906152d2565b611aeb61019185856144a4565b5061124361019283836144a4565b6001600160a01b038316331480611b155750611b1583336107f0565b611b315760405162461bcd60e51b81526004016109309061517d565b611b3c838383612e76565b505050565b61019781600b8110611b5257600080fd5b018054909150610a309061559a565b33611b6a61257f565b6001600160a01b031614611b905760405162461bcd60e51b8152600401610930906152d2565b611b9a6000613011565b565b6000600160088160038083611bb4600d610100615511565b611bbe919061554b565b611bc8919061554b565b611bd2919061554b565b611bdc919061554b565b611be6919061554b565b611bf0919061554b565b60ff166001611c00816002615466565b611c0a9190615534565b901b600160088160038083611c22600d610100615511565b611c2c919061554b565b611c36919061554b565b611c40919061554b565b611c4a919061554b565b611c54919061554b565b611c5e919061554b565b60ff166001611c6e816002615466565b611c789190615534565b901b85161415611cdc5760405162461bcd60e51b815260206004820152602960248201527f43616e6e6f74206d696e7420696e7465726e616c20746f6b656e732066726f6d6044820152681037baba39b4b2329760b91b6064820152608401610930565b60016003806008611cf0600d610100615511565b611cfa919061554b565b611d04919061554b565b611d0e919061554b565b611d18919061554b565b60ff166001901b60016003806008600d60ff16610100611d389190615511565b611d42919061554b565b611d4c919061554b565b611d56919061554b565b611d60919061554b565b60ff166001901b8516148015611d7f57506000611d7d86866108c8565b115b15611d8c57506000611d9c565b611d9885858585613063565b5060015b949350505050565b60008082604051602001611db89190614f1b565b604051602081830303815290604052805190602001209050604051602001611def906829bab832b93ab9b2b960b91b815260090190565b60405160208183030381529060405280519060200120811415611e155750600192915050565b6040516526b4b73a32b960d11b602082015260260160405160208183030381529060405280519060200120811415611e505750600292915050565b6040516521b0b9ba32b960d11b602082015260260160405160208183030381529060405280519060200120811415611e8b5750600392915050565b604051692a3930b739b332b932b960b11b6020820152602a0160405160208183030381529060405280519060200120811415611eca5750600492915050565b6040516921b7b73334b3bab932b960b11b6020820152602a0160405160208183030381529060405280519060200120811415611f095750600592915050565b6040516926b0b4b73a30b4b732b960b11b6020820152602a0160405160208183030381529060405280519060200120811415611f485750600692915050565b6040516621b932b0ba37b960c91b602082015260270160405160208183030381529060405280519060200120811415611f845750600792915050565b604051662634b6b4ba32b960c91b602082015260270160405160208183030381529060405280519060200120811415611fc05750600892915050565b60405165213ab93732b960d11b602082015260260160405160208183030381529060405280519060200120811415611ffb5750600992915050565b604051682232b9ba3937bcb2b960b91b6020820152602901604051602081830303815290604052805190602001208114156120395750600a92915050565b604051654f7261636c6560d01b6020820152602601604051602081830303815290604052805190602001208114156120745750600b92915050565b6040516b14995cd95c9d995913185cdd60a21b6020820152602c01604051602081830303815290604052805190602001208114156120b55750600c92915050565b826040516020016120c69190614f37565b60408051601f198184030181529082905262461bcd60e51b8252610930916004016150a4565b6060600182600c81111561211057634e487b7160e01b600052602160045260246000fd5b141561213b57505060408051808201909152600981526829bab832b93ab9b2b960b91b602082015290565b600282600c81111561215d57634e487b7160e01b600052602160045260246000fd5b141561218557505060408051808201909152600681526526b4b73a32b960d11b602082015290565b600382600c8111156121a757634e487b7160e01b600052602160045260246000fd5b14156121cf57505060408051808201909152600681526521b0b9ba32b960d11b602082015290565b600482600c8111156121f157634e487b7160e01b600052602160045260246000fd5b141561221d57505060408051808201909152600a8152692a3930b739b332b932b960b11b602082015290565b600582600c81111561223f57634e487b7160e01b600052602160045260246000fd5b141561226b57505060408051808201909152600a81526921b7b73334b3bab932b960b11b602082015290565b600682600c81111561228d57634e487b7160e01b600052602160045260246000fd5b14156122b957505060408051808201909152600a81526926b0b4b73a30b4b732b960b11b602082015290565b600782600c8111156122db57634e487b7160e01b600052602160045260246000fd5b141561230457505060408051808201909152600781526621b932b0ba37b960c91b602082015290565b600882600c81111561232657634e487b7160e01b600052602160045260246000fd5b141561234f5750506040805180820190915260078152662634b6b4ba32b960c91b602082015290565b600982600c81111561237157634e487b7160e01b600052602160045260246000fd5b1415612399575050604080518082019091526006815265213ab93732b960d11b602082015290565b600a82600c8111156123bb57634e487b7160e01b600052602160045260246000fd5b14156123e65750506040805180820190915260098152682232b9ba3937bcb2b960b91b602082015290565b600b82600c81111561240857634e487b7160e01b600052602160045260246000fd5b14156124305750506040805180820190915260068152654f7261636c6560d01b602082015290565b600c82600c81111561245257634e487b7160e01b600052602160045260246000fd5b141561248057505060408051808201909152600c81526b14995cd95c9d995913185cdd60a21b602082015290565b50506040805180820190915260078152662ab735b737bbb760c91b602082015290565b6124ae6005846115bc565b806124bc57506124bc6127eb565b6125255760405162461bcd60e51b815260206004820152603460248201527f596f75206d7573742068617665206120436f6e6669677572657220746f6b656e604482015273103a379031b430b733b29036b2ba30b230ba309760611b6064820152608401610930565b60008381526101936020526040902061253f9083836144a4565b50827f6bb7ff708619ba0610cba295a58592e0451dee2622938c8755667688daf3529b8383604051612572929190615075565b60405180910390a2505050565b6097546001600160a01b031690565b6101928054610a309061559a565b6125a78484846124a3565b610d758482611397565b610194546000906125c490600190615534565b905090565b60006111a083836000611595565b611416338383613163565b611b3c8383836000613244565b61019454600090806008612606600d610100615511565b612610919061554b565b60ff166009901b1791506126256007836115bc565b8061263357506126336127eb565b61269b5760405162461bcd60e51b815260206004820152603360248201527f596f75206d757374206861766520612043726561746f7220746f6b656e20746f6044820152721031b932b0ba32903732bb903a37b5b2b7399760691b6064820152608401610930565b61019480546001810190915560008051602061575f833981519152018290556000828152610195602052604081208290555b845181101561271c5761270a8582815181106126f957634e487b7160e01b600052603260045260246000fd5b602002602001015187846001613244565b8061271481615601565b9150506126cd565b5060005b835181101561276c5761275a84828151811061274c57634e487b7160e01b600052603260045260246000fd5b602002602001015183612983565b8061276481615601565b915050612720565b50604080518381526001600160a01b03871660208201527f7757890bcab34d673dfca6b71df1b57f75a2fe4231d6e8de726caf534ab1fdd6910160405180910390a1509392505050565b60006127c36001836125c9565b8061095e57506127d161257f565b6001600160a01b0316826001600160a01b03161492915050565b60006125c4336127b6565b604080516000808252602082019092526128113382836125ef565b91505090565b6001600160a01b038516331480612833575061283385336107f0565b61284f5760405162461bcd60e51b81526004016109309061517d565b61124385858585856133ff565b3361286561257f565b6001600160a01b03161461288b5760405162461bcd60e51b8152600401610930906152d2565b6001600160a01b0381166128f05760405162461bcd60e51b815260206004820152602660248201527f4f776e61626c653a206e6577206f776e657220697320746865207a65726f206160448201526564647265737360d01b6064820152608401610930565b61139481613011565b61290560098484611595565b806129145750612914836127b6565b6129785760405162461bcd60e51b815260206004820152602f60248201527f596f75206d75737420686176652061204275726e657220746f6b656e20746f2060448201526e3232b9ba3937bc903a37b5b2b7399760891b6064820152608401610930565b611b3c83838361350e565b6000818152610195602052604081205461299e90849061141a565b905060086129af600d610100615511565b6129b9919061554b565b610194805460018101909155600a60ff929092169190911b9190911760008051602061575f8339815191528201819055600090815261019560205260409020555050565b6001600160a01b03163b151590565b8151835114612a2d5760405162461bcd60e51b8152600401610930906153a0565b6001600160a01b038416612a535760405162461bcd60e51b815260040161093090615200565b33612a62818787878787613601565b60005b8451811015612b67576000858281518110612a9057634e487b7160e01b600052603260045260246000fd5b602002602001015190506000858381518110612abc57634e487b7160e01b600052603260045260246000fd5b60209081029190910181015160008481526065835260408082206001600160a01b038e168352909352919091205490915081811015612b0d5760405162461bcd60e51b815260040161093090615288565b60008381526065602090815260408083206001600160a01b038e8116855292528083208585039055908b16825281208054849290612b4c90849061540b565b9250508190555050505080612b6090615601565b9050612a65565b50846001600160a01b0316866001600160a01b0316826001600160a01b031660008051602061571f8339815191528787604051612ba5929190615028565b60405180910390a4612bbb818787878787613e27565b505050505050565b60008051602061579f833981519152546001600160a01b031690565b612be960066111a7565b80612bf75750612bf76127eb565b6113945760405162461bcd60e51b815260206004820152603960248201527f596f75206d75737420686176652061204d61696e7461696e657220746f6b656e604482015278103a37903ab833b930b232903a34329031b7b73a3930b1ba1760391b6064820152608401610930565b7f4910fdfa16fed3260ed0e7147f7cc6da11a60208b5b9406d12a635614ffd91435460ff1615612c9857611b3c83613f99565b826001600160a01b03166352d1902d6040518163ffffffff1660e01b815260040160206040518083038186803b158015612cd157600080fd5b505afa925050508015612d01575060408051601f3d908101601f19168201909252612cfe91810190614c5b565b60015b612d645760405162461bcd60e51b815260206004820152602e60248201527f45524331393637557067726164653a206e657720696d706c656d656e7461746960448201526d6f6e206973206e6f74205555505360901b6064820152608401610930565b60008051602061579f8339815191528114612dd35760405162461bcd60e51b815260206004820152602960248201527f45524331393637557067726164653a20756e737570706f727465642070726f786044820152681a58589b195555525160ba1b6064820152608401610930565b50611b3c838383614033565b6000612dea306129fd565b15905090565b600054610100900460ff16612e175760405162461bcd60e51b815260040161093090615355565b611b9a614058565b600054610100900460ff16612e465760405162461bcd60e51b815260040161093090615355565b61139481614088565b600054610100900460ff16611b9a5760405162461bcd60e51b815260040161093090615355565b6001600160a01b038316612e9c5760405162461bcd60e51b815260040161093090615245565b8051825114612ebd5760405162461bcd60e51b8152600401610930906153a0565b6000339050612ee081856000868660405180602001604052806000815250613601565b60005b8351811015612fc4576000848281518110612f0e57634e487b7160e01b600052603260045260246000fd5b602002602001015190506000848381518110612f3a57634e487b7160e01b600052603260045260246000fd5b60209081029190910181015160008481526065835260408082206001600160a01b038c168352909352919091205490915081811015612f8b5760405162461bcd60e51b8152600401610930906150ff565b60009283526065602090815260408085206001600160a01b038b1686529091529092209103905580612fbc81615601565b915050612ee3565b5060006001600160a01b0316846001600160a01b0316826001600160a01b031660008051602061571f8339815191528686604051613003929190615028565b60405180910390a450505050565b609780546001600160a01b038381166001600160a01b0319831681179093556040519116919082907f8be0079c531659141344cd1fd0a4f28419497f9722a3daafe3b4186f6b6457e090600090a35050565b6001600160a01b0384166130c35760405162461bcd60e51b815260206004820152602160248201527f455243313135353a206d696e7420746f20746865207a65726f206164647265736044820152607360f81b6064820152608401610930565b336130e3816000876130d4886140b8565b6130dd886140b8565b87613601565b60008481526065602090815260408083206001600160a01b03891684529091528120805485929061311590849061540b565b909155505060408051858152602081018590526001600160a01b03808816926000929185169160008051602061573f833981519152910160405180910390a461124381600087878787614111565b816001600160a01b0316836001600160a01b031614156131d75760405162461bcd60e51b815260206004820152602960248201527f455243313135353a2073657474696e6720617070726f76616c20737461747573604482015268103337b91039b2b63360b91b6064820152608401610930565b6001600160a01b03838116600081815260666020908152604080832094871680845294825291829020805460ff191686151590811790915591519182527f17307eab39ab6107e8899845ad3d59bd9653f200f220920489ca2b5937696c31910160405180910390a3505050565b8061335e57600184600c81111561326b57634e487b7160e01b600052602160045260246000fd5b14156132de576132796127eb565b6132d95760405162461bcd60e51b815260206004820152602b60248201527f596f75206d75737420626520612073757065727573657220746f20637265617460448201526a32903732bb9037b732b99760a91b6064820152608401610930565b61335e565b6132e96003836115bc565b806132f757506132f76127eb565b61335e5760405162461bcd60e51b815260206004820152603260248201527f596f75206d7573742068617665207468652043617374657220726f6c6520746f6044820152711030b9b9b4b3b7103732bb903937b632b99760711b6064820152608401610930565b610d75838261336e5760006133dd565b600160088160038083613384600d610100615511565b61338e919061554b565b613398919061554b565b6133a2919061554b565b6133ac919061554b565b6133b6919061554b565b6133c0919061554b565b60ff1660016133d0816002615466565b6133da9190615534565b901b5b6133e7878661141a565b17600160405180602001604052806000815250613063565b6001600160a01b0384166134255760405162461bcd60e51b815260040161093090615200565b336134358187876130d4886140b8565b60008481526065602090815260408083206001600160a01b038a168452909152902054838110156134785760405162461bcd60e51b815260040161093090615288565b60008581526065602090815260408083206001600160a01b038b81168552925280832087850390559088168252812080548692906134b790849061540b565b909155505060408051868152602081018690526001600160a01b03808916928a8216929186169160008051602061573f833981519152910160405180910390a4613505828888888888614111565b50505050505050565b6001600160a01b0383166135345760405162461bcd60e51b815260040161093090615245565b3361356381856000613545876140b8565b61354e876140b8565b60405180602001604052806000815250613601565b60008381526065602090815260408083206001600160a01b0388168452909152902054828110156135a65760405162461bcd60e51b8152600401610930906150ff565b60008481526065602090815260408083206001600160a01b038981168086529184528285208887039055825189815293840188905290929086169160008051602061573f833981519152910160405180910390a45050505050565b6136096127eb565b613a5f5760005b8351811015613a5d5760016008816003808361362f600d610100615511565b613639919061554b565b613643919061554b565b61364d919061554b565b613657919061554b565b613661919061554b565b61366b919061554b565b60ff16600161367b816002615466565b6136859190615534565b901b60016008816003808361369d600d610100615511565b6136a7919061554b565b6136b1919061554b565b6136bb919061554b565b6136c5919061554b565b6136cf919061554b565b6136d9919061554b565b60ff1660016136e9816002615466565b6136f39190615534565b901b85838151811061371557634e487b7160e01b600052603260045260246000fd5b60200260200101511614613a4d5760006001600160a01b0387161561373b57600461373e565b60025b9050600281600c81111561376257634e487b7160e01b600052602160045260246000fd5b14156139af576008613777600d610100615511565b613781919061554b565b600160ff919091161b6008613799600d610100615511565b6137a3919061554b565b60ff1660016137b460086002615466565b6137be9190615534565b901b8684815181106137e057634e487b7160e01b600052603260045260246000fd5b602002602001015116141561389a57613821600386848151811061381457634e487b7160e01b600052603260045260246000fd5b60200260200101516115bc565b8061382f575061382f6127eb565b6138955760405162461bcd60e51b815260206004820152603160248201527f596f75206d757374206861766520612043617374657220746f6b656e20746f2060448201527036b4b73a103a37b5b2b71033b0ba32b99760791b6064820152608401610930565b613a4b565b60006138d1823361035f8987815181106138c457634e487b7160e01b600052603260045260246000fd5b60200260200101516109b4565b90506138f78287858151811061381457634e487b7160e01b600052603260045260246000fd5b61395c5760405162461bcd60e51b815260206004820152603060248201527f596f75206d75737420686176652061204d696e74657220746f6b656e20746f2060448201526f33b2b732b930ba32903a37b5b2b7399760811b6064820152608401610930565b60006003806008613970600d610100615511565b61397a919061554b565b613984919061554b565b61398e919061554b565b60ff166001901b821611156139a9576139a93382600161350e565b50613a4b565b6001600160a01b03861615613a4b576139e28186848151811061381457634e487b7160e01b600052603260045260246000fd5b613a4b5760405162461bcd60e51b815260206004820152603460248201527f596f75206d75737420686176652061205472616e73666572657220746f6b656e604482015273103a37903a3930b739b332b9103a37b5b2b7399760611b6064820152608401610930565b505b613a5681615601565b9050613610565b505b6001600160a01b03841615613c855760005b8351811015613c83576101946001016000858381518110613aa257634e487b7160e01b600052603260045260246000fd5b602002602001015181526020019081526020016000205460001415613b4e57610194600001848281518110613ae757634e487b7160e01b600052603260045260246000fd5b6020908102919091018101518254600181018455600093845291832090910155610194548551909161019591879085908110613b3357634e487b7160e01b600052603260045260246000fd5b60200260200101518152602001908152602001600020819055505b6101966000866001600160a01b03166001600160a01b031681526020019081526020016000206001016000858381518110613b9957634e487b7160e01b600052603260045260246000fd5b602002602001015181526020019081526020016000205460001415613c73576001600160a01b0385166000908152610196602052604090208451859083908110613bf357634e487b7160e01b600052603260045260246000fd5b6020908102919091018101518254600181810185556000948552838520909101919091556001600160a01b0388168352610196909152604082208054875190939190920191879085908110613c5857634e487b7160e01b600052603260045260246000fd5b60200260200101518152602001908152602001600020819055505b613c7c81615601565b9050613a71565b505b6001600160a01b03851615613e195760005b8351811015613e1757828181518110613cc057634e487b7160e01b600052603260045260246000fd5b6020026020010151613cec8786848151811061183257634e487b7160e01b600052603260045260246000fd5b11613e07576001600160a01b03861660009081526101966020526040812085516001918201908390889086908110613d3457634e487b7160e01b600052603260045260246000fd5b6020026020010151815260200190815260200160002054613d559190615534565b6001600160a01b03881660009081526101966020526040902080549192509082908110613d9257634e487b7160e01b600052603260045260246000fd5b90600052602060002001600090556101966000886001600160a01b03166001600160a01b031681526020019081526020016000206001016000868481518110613deb57634e487b7160e01b600052603260045260246000fd5b6020026020010151815260200190815260200160002060009055505b613e1081615601565b9050613c97565b505b612bbb8686868686866141e2565b613e39846001600160a01b03166129fd565b15612bbb5760405163bc197c8160e01b81526001600160a01b0385169063bc197c8190613e729089908990889088908890600401614f72565b602060405180830381600087803b158015613e8c57600080fd5b505af1925050508015613ebc575060408051601f3d908101601f19168201909252613eb991810190614c8f565b60015b613f6957613ec8615668565b806308c379a01415613f025750613edd61567f565b80613ee85750613f04565b8060405162461bcd60e51b815260040161093091906150a4565b505b60405162461bcd60e51b815260206004820152603460248201527f455243313135353a207472616e7366657220746f206e6f6e20455243313135356044820152732932b1b2b4bb32b91034b6b83632b6b2b73a32b960611b6064820152608401610930565b6001600160e01b0319811663bc197c8160e01b146135055760405162461bcd60e51b8152600401610930906150b7565b613fa2816129fd565b6140045760405162461bcd60e51b815260206004820152602d60248201527f455243313936373a206e657720696d706c656d656e746174696f6e206973206e60448201526c1bdd08184818dbdb9d1c9858dd609a1b6064820152608401610930565b60008051602061579f83398151915280546001600160a01b0319166001600160a01b0392909216919091179055565b61403c83614326565b6000825111806140495750805b15611b3c57610d758383614366565b600054610100900460ff1661407f5760405162461bcd60e51b815260040161093090615355565b611b9a33613011565b600054610100900460ff166140af5760405162461bcd60e51b815260040161093090615355565b61139481614458565b6040805160018082528183019092526060916000919060208083019080368337019050509050828160008151811061410057634e487b7160e01b600052603260045260246000fd5b602090810291909101015292915050565b614123846001600160a01b03166129fd565b15612bbb5760405163f23a6e6160e01b81526001600160a01b0385169063f23a6e619061415c9089908990889088908890600401614fd0565b602060405180830381600087803b15801561417657600080fd5b505af19250505080156141a6575060408051601f3d908101601f191682019092526141a391810190614c8f565b60015b6141b257613ec8615668565b6001600160e01b0319811663f23a6e6160e01b146135055760405162461bcd60e51b8152600401610930906150b7565b6001600160a01b0385166142855760005b83518110156142835782818151811061421c57634e487b7160e01b600052603260045260246000fd5b602002602001015160fb600086848151811061424857634e487b7160e01b600052603260045260246000fd5b60200260200101518152602001908152602001600020600082825461426d919061540b565b9091555061427c905081615601565b90506141f3565b505b6001600160a01b038416612bbb5760005b8351811015613505578281815181106142bf57634e487b7160e01b600052603260045260246000fd5b602002602001015160fb60008684815181106142eb57634e487b7160e01b600052603260045260246000fd5b6020026020010151815260200190815260200160002060008282546143109190615534565b9091555061431f905081615601565b9050614296565b61432f81613f99565b6040516001600160a01b038216907fbc7cd75a20ee27fd9adebab32041f755214dbc6bffa90cc0225b39da2e5c2d3b90600090a250565b6060614371836129fd565b6143cc5760405162461bcd60e51b815260206004820152602660248201527f416464726573733a2064656c65676174652063616c6c20746f206e6f6e2d636f6044820152651b9d1c9858dd60d21b6064820152608401610930565b600080846001600160a01b0316846040516143e79190614f1b565b600060405180830381855af49150503d8060008114614422576040519150601f19603f3d011682016040523d82523d6000602084013e614427565b606091505b509150915061444f82826040518060600160405280602781526020016157bf6027913961446b565b95945050505050565b8051611416906067906020840190614528565b6060831561447a5750816111a0565b82511561448a5782518084602001fd5b8160405162461bcd60e51b815260040161093091906150a4565b8280546144b09061559a565b90600052602060002090601f0160209004810192826144d25760008555614518565b82601f106144eb5782800160ff19823516178555614518565b82800160010185558215614518579182015b828111156145185782358255916020019190600101906144fd565b5061452492915061459c565b5090565b8280546145349061559a565b90600052602060002090601f0160209004810192826145565760008555614518565b82601f1061456f57805160ff1916838001178555614518565b82800160010185558215614518579182015b82811115614518578251825591602001919060010190614581565b5b80821115614524576000815560010161459d565b60006001600160401b038311156145ca576145ca615652565b6040516145e1601f8501601f1916602001826155d5565b8091508381528484840111156145f657600080fd5b83836020830137600060208583010152509392505050565b80356001600160a01b0381168114610a1d57600080fd5b600082601f830112614635578081fd5b81356020614642826153e8565b60405161464f82826155d5565b8381528281019150858301600585901b8701840188101561466e578586fd5b855b85811015614693576146818261460e565b84529284019290840190600101614670565b5090979650505050505050565b600082601f8301126146b0578081fd5b813560206146bd826153e8565b6040516146ca82826155d5565b8381528281019150858301600585901b870184018810156146e9578586fd5b855b85811015614693576146fc82614794565b845292840192908401906001016146eb565b600082601f83011261471e578081fd5b8135602061472b826153e8565b60405161473882826155d5565b8381528281019150858301600585901b87018401881015614757578586fd5b855b8581101561469357813584529284019290840190600101614759565b600082601f830112614785578081fd5b6111a0838335602085016145b1565b8035600d8110610a1d57600080fd5b60008083601f8401126147b4578182fd5b5081356001600160401b038111156147ca578182fd5b6020830191508360208285010111156147e257600080fd5b9250929050565b6000602082840312156147fa578081fd5b6111a08261460e565b60008060408385031215614815578081fd5b61481e8361460e565b915061482c6020840161460e565b90509250929050565b600080600080600060a0868803121561484c578081fd5b6148558661460e565b94506148636020870161460e565b935060408601356001600160401b038082111561487e578283fd5b61488a89838a0161470e565b9450606088013591508082111561489f578283fd5b6148ab89838a0161470e565b935060808801359150808211156148c0578283fd5b506148cd88828901614775565b9150509295509295909350565b600080600080600060a086880312156148f1578081fd5b6148fa8661460e565b94506149086020870161460e565b9350604086013592506060860135915060808601356001600160401b03811115614930578182fd5b6148cd88828901614775565b600080600060608486031215614950578081fd5b6149598461460e565b925060208401356001600160401b0380821115614974578283fd5b614980878388016146a0565b93506040860135915080821115614995578283fd5b506149a2868287016146a0565b9150509250925092565b6000806000606084860312156149c0578081fd5b6149c98461460e565b925060208401356001600160401b03808211156149e4578283fd5b6149f08783880161470e565b93506040860135915080821115614a05578283fd5b506149a28682870161470e565b60008060408385031215614a24578182fd5b614a2d8361460e565b915060208301358015158114614a41578182fd5b809150509250929050565b60008060408385031215614a5e578182fd5b614a678361460e565b915060208301356001600160401b03811115614a81578182fd5b614a8d85828601614775565b9150509250929050565b60008060408385031215614aa9578182fd5b614ab28361460e565b946020939093013593505050565b600080600060608486031215614ad4578081fd5b614add8461460e565b95602085013595506040909401359392505050565b60008060008060808587031215614b07578182fd5b614b108561460e565b9350602085013592506040850135915060608501356001600160401b03811115614b38578182fd5b614b4487828801614775565b91505092959194509250565b60008060408385031215614b62578182fd5b82356001600160401b0380821115614b78578384fd5b614b8486838701614625565b93506020850135915080821115614b99578283fd5b50614a8d8582860161470e565b600080600060608486031215614bba578081fd5b83356001600160401b0380821115614bd0578283fd5b614bdc87838801614625565b9450602086013593506040860135915080821115614bf8578283fd5b506149a286828701614775565b60008060408385031215614c17578182fd5b82356001600160401b0380821115614c2d578384fd5b614c39868387016146a0565b93506020850135915080821115614c4e578283fd5b50614a8d858286016146a0565b600060208284031215614c6c578081fd5b5051919050565b600060208284031215614c84578081fd5b81356111a081615708565b600060208284031215614ca0578081fd5b81516111a081615708565b600060208284031215614cbc578081fd5b6111a082614794565b60008060408385031215614cd7578182fd5b61481e83614794565b600080600060608486031215614cf4578081fd5b614cfd84614794565b9250614d0b6020850161460e565b9150604084013590509250925092565b60008060408385031215614d2d578182fd5b614ab283614794565b60008060008060408587031215614d4b578182fd5b84356001600160401b0380821115614d61578384fd5b614d6d888389016147a3565b90965094506020870135915080821115614d85578384fd5b50614d92878288016147a3565b95989497509550505050565b600060208284031215614daf578081fd5b81356001600160401b03811115614dc4578182fd5b8201601f81018413614dd4578182fd5b611d9c848235602084016145b1565b600060208284031215614df4578081fd5b5035919050565b600080600060408486031215614e0f578081fd5b8335925060208401356001600160401b03811115614e2b578182fd5b614e37868287016147a3565b9497909650939450505050565b60008060008060608587031215614e59578182fd5b8435935060208501356001600160401b03811115614e75578283fd5b614e81878288016147a3565b9598909750949560400135949350505050565b60008060408385031215614ea6578182fd5b50508035926020909101359150565b6000815180845260208085019450808401835b83811015614ee457815187529582019590820190600101614ec8565b509495945050505050565b60008151808452614f0781602086016020860161556e565b601f01601f19169290920160200192915050565b60008251614f2d81846020870161556e565b9190910192915050565b7202ab735b737bbb7103937b632903a3cb8329d1606d1b815260008251614f6581601385016020870161556e565b9190910160130192915050565b6001600160a01b0386811682528516602082015260a060408201819052600090614f9e90830186614eb5565b8281036060840152614fb08186614eb5565b90508281036080840152614fc48185614eef565b98975050505050505050565b6001600160a01b03868116825285166020820152604081018490526060810183905260a06080820181905260009061500a90830184614eef565b979650505050505050565b6020815260006111a06020830184614eb5565b60408152600061503b6040830185614eb5565b828103602084015261444f8185614eb5565b60208101600d831061506f57634e487b7160e01b600052602160045260246000fd5b91905290565b60208152816020820152818360408301376000818301604090810191909152601f909201601f19160101919050565b6020815260006111a06020830184614eef565b60208082526028908201527f455243313135353a204552433131353552656365697665722072656a656374656040820152676420746f6b656e7360c01b606082015260800190565b60208082526024908201527f455243313135353a206275726e20616d6f756e7420657863656564732062616c604082015263616e636560e01b606082015260800190565b6020808252602c9082015260008051602061577f83398151915260408201526b19195b1959d85d1958d85b1b60a21b606082015260800190565b60208082526029908201527f455243313135353a2063616c6c6572206973206e6f74206f776e6572206e6f7260408201526808185c1c1c9bdd995960ba1b606082015260800190565b6020808252602c9082015260008051602061577f83398151915260408201526b6163746976652070726f787960a01b606082015260800190565b60208082526025908201527f455243313135353a207472616e7366657220746f20746865207a65726f206164604082015264647265737360d81b606082015260800190565b60208082526023908201527f455243313135353a206275726e2066726f6d20746865207a65726f206164647260408201526265737360e81b606082015260800190565b6020808252602a908201527f455243313135353a20696e73756666696369656e742062616c616e636520666f60408201526939103a3930b739b332b960b11b606082015260800190565b6020808252818101527f4f776e61626c653a2063616c6c6572206973206e6f7420746865206f776e6572604082015260600190565b6020808252602e908201527f4552432d3131353520456e756d657261626c653a20746f6b656e20696e64657860408201526d206f7574206f6620626f756e647360901b606082015260800190565b6020808252602b908201527f496e697469616c697a61626c653a20636f6e7472616374206973206e6f74206960408201526a6e697469616c697a696e6760a81b606082015260800190565b60208082526028908201527f455243313135353a2069647320616e6420616d6f756e7473206c656e677468206040820152670dad2e6dac2e8c6d60c31b606082015260800190565b60006001600160401b0382111561540157615401615652565b5060051b60200190565b6000821982111561541e5761541e61563c565b500190565b600181815b8085111561545e5781600019048211156154445761544461563c565b8085161561545157918102915b93841c9390800290615428565b509250929050565b60006111a060ff84168360008261547f5750600161095e565b8161548c5750600061095e565b81600181146154a257600281146154ac576154c8565b600191505061095e565b60ff8411156154bd576154bd61563c565b50506001821b61095e565b5060208310610133831016604e8410600b84101617156154eb575081810a61095e565b6154f58383615423565b80600019048211156155095761550961563c565b029392505050565b600061ffff8381169083168181101561552c5761552c61563c565b039392505050565b6000828210156155465761554661563c565b500390565b600060ff821660ff8416808210156155655761556561563c565b90039392505050565b60005b83811015615589578181015183820152602001615571565b83811115610d755750506000910152565b600181811c908216806155ae57607f821691505b602082108114156155cf57634e487b7160e01b600052602260045260246000fd5b50919050565b601f8201601f191681016001600160401b03811182821017156155fa576155fa615652565b6040525050565b60006000198214156156155761561561563c565b5060010190565b600060ff821660ff8114156156335761563361563c565b60010192915050565b634e487b7160e01b600052601160045260246000fd5b634e487b7160e01b600052604160045260246000fd5b600060033d1115611aa057600481823e5160e01c90565b600060443d101561568d5790565b6040516003193d81016004833e81513d6001600160401b0380831160248401831017156156bc57505050505090565b82850191508151818111156156d45750505050505090565b843d87010160208285010111156156ee5750505050505090565b6156fd602082860101876155d5565b509095945050505050565b6001600160e01b03198116811461139457600080fdfe4a39dc06d4c0dbc64b70af90fd698a233a518aa5d07e595d983b8c0526c8f7fbc3d58168c5ae7397731d063d5bbf3d657854427343f4c083240f7aacaa2d0f62a6f1ac7ad7b125ba5a5e1c96b00ad6914f90a503b1ac3d85a9dadbb4c639df9246756e6374696f6e206d7573742062652063616c6c6564207468726f75676820360894a13ba1a3210667c828492db98dca3e2076cc3735a920a3ca505d382bbc416464726573733a206c6f772d6c6576656c2064656c65676174652063616c6c206661696c6564a2646970667358221220a1d78f0ae64c8253725c4a47e2fd1f3a9ae1520543b560f14585101908c3504164736f6c63430008040033",
  "linkReferences": {},
  "deployedLinkReferences": {}
}