{
  "_format": "hh-sol-artifact-1",
  "contractName": "BulkDisbursableNFTs",
  "sourceName": "src/BulkDisbursableNFTs.sol",
  "abi": [
    {
      "inputs": [],
      "stateMutability": "nonpayable",
      "type": "constructor"
    },
    {
      "anonymous": false,
      "inputs": [
        {
          "indexed": false,
          "internalType": "address",
          "name": "previousAdmin",
          "type": "address"
        },
        {
          "indexed": false,
          "internalType": "address",
          "name": "newAdmin",
          "type": "address"
        }
      ],
      "name": "AdminChanged",
      "type": "event"
    },
    {
      "anonymous": false,
      "inputs": [
        {
          "indexed": true,
          "internalType": "address",
          "name": "account",
          "type": "address"
        },
        {
          "indexed": true,
          "internalType": "address",
          "name": "operator",
          "type": "address"
        },
        {
          "indexed": false,
          "internalType": "bool",
          "name": "approved",
          "type": "bool"
        }
      ],
      "name": "ApprovalForAll",
      "type": "event"
    },
    {
      "anonymous": false,
      "inputs": [
        {
          "indexed": true,
          "internalType": "address",
          "name": "beacon",
          "type": "address"
        }
      ],
      "name": "BeaconUpgraded",
      "type": "event"
    },
    {
      "anonymous": false,
      "inputs": [
        {
          "indexed": false,
          "internalType": "uint256",
          "name": "id",
          "type": "uint256"
        },
        {
          "indexed": false,
          "internalType": "address",
          "name": "controller",
          "type": "address"
        }
      ],
      "name": "Created",
      "type": "event"
    },
    {
      "anonymous": false,
      "inputs": [
        {
          "indexed": true,
          "internalType": "address",
          "name": "previousOwner",
          "type": "address"
        },
        {
          "indexed": true,
          "internalType": "address",
          "name": "newOwner",
          "type": "address"
        }
      ],
      "name": "OwnershipTransferred",
      "type": "event"
    },
    {
      "anonymous": false,
      "inputs": [
        {
          "indexed": true,
          "internalType": "address",
          "name": "operator",
          "type": "address"
        },
        {
          "indexed": true,
          "internalType": "address",
          "name": "from",
          "type": "address"
        },
        {
          "indexed": true,
          "internalType": "address",
          "name": "to",
          "type": "address"
        },
        {
          "indexed": false,
          "internalType": "uint256[]",
          "name": "ids",
          "type": "uint256[]"
        },
        {
          "indexed": false,
          "internalType": "uint256[]",
          "name": "values",
          "type": "uint256[]"
        }
      ],
      "name": "TransferBatch",
      "type": "event"
    },
    {
      "anonymous": false,
      "inputs": [
        {
          "indexed": true,
          "internalType": "address",
          "name": "operator",
          "type": "address"
        },
        {
          "indexed": true,
          "internalType": "address",
          "name": "from",
          "type": "address"
        },
        {
          "indexed": true,
          "internalType": "address",
          "name": "to",
          "type": "address"
        },
        {
          "indexed": false,
          "internalType": "uint256",
          "name": "id",
          "type": "uint256"
        },
        {
          "indexed": false,
          "internalType": "uint256",
          "name": "value",
          "type": "uint256"
        }
      ],
      "name": "TransferSingle",
      "type": "event"
    },
    {
      "anonymous": false,
      "inputs": [
        {
          "indexed": false,
          "internalType": "string",
          "name": "value",
          "type": "string"
        },
        {
          "indexed": true,
          "internalType": "uint256",
          "name": "id",
          "type": "uint256"
        }
      ],
      "name": "URI",
      "type": "event"
    },
    {
      "anonymous": false,
      "inputs": [
        {
          "indexed": true,
          "internalType": "address",
          "name": "implementation",
          "type": "address"
        }
      ],
      "name": "Upgraded",
      "type": "event"
    },
    {
      "inputs": [
        {
          "internalType": "uint256",
          "name": "",
          "type": "uint256"
        }
      ],
      "name": "Roles",
      "outputs": [
        {
          "internalType": "string",
          "name": "",
          "type": "string"
        }
      ],
      "stateMutability": "view",
      "type": "function"
    },
    {
      "inputs": [
        {
          "internalType": "address",
          "name": "account",
          "type": "address"
        },
        {
          "internalType": "uint256",
          "name": "id",
          "type": "uint256"
        }
      ],
      "name": "balanceOf",
      "outputs": [
        {
          "internalType": "uint256",
          "name": "",
          "type": "uint256"
        }
      ],
      "stateMutability": "view",
      "type": "function"
    },
    {
      "inputs": [
        {
          "internalType": "address[]",
          "name": "accounts",
          "type": "address[]"
        },
        {
          "internalType": "uint256[]",
          "name": "ids",
          "type": "uint256[]"
        }
      ],
      "name": "balanceOfBatch",
      "outputs": [
        {
          "internalType": "uint256[]",
          "name": "",
          "type": "uint256[]"
        }
      ],
      "stateMutability": "view",
      "type": "function"
    },
    {
      "inputs": [
        {
          "internalType": "address",
          "name": "owner",
          "type": "address"
        },
        {
          "internalType": "uint256",
          "name": "id",
          "type": "uint256"
        },
        {
          "internalType": "uint256",
          "name": "quantity",
          "type": "uint256"
        }
      ],
      "name": "burn",
      "outputs": [],
      "stateMutability": "nonpayable",
      "type": "function"
    },
    {
      "inputs": [
        {
          "internalType": "address",
          "name": "account",
          "type": "address"
        },
        {
          "internalType": "uint256[]",
          "name": "ids",
          "type": "uint256[]"
        },
        {
          "internalType": "uint256[]",
          "name": "values",
          "type": "uint256[]"
        }
      ],
      "name": "burnBatch",
      "outputs": [],
      "stateMutability": "nonpayable",
      "type": "function"
    },
    {
      "inputs": [
        {
          "internalType": "uint256",
          "name": "id",
          "type": "uint256"
        },
        {
          "internalType": "string",
          "name": "newURI",
          "type": "string"
        },
        {
          "internalType": "uint256",
          "name": "max",
          "type": "uint256"
        }
      ],
      "name": "configure",
      "outputs": [],
      "stateMutability": "nonpayable",
      "type": "function"
    },
    {
      "inputs": [
        {
          "internalType": "enum BulkDisbursableNFTs.Role[]",
          "name": "grants",
          "type": "uint8[]"
        },
        {
          "internalType": "enum BulkDisbursableNFTs.Role[]",
          "name": "disables",
          "type": "uint8[]"
        }
      ],
      "name": "create",
      "outputs": [
        {
          "internalType": "uint256",
          "name": "id",
          "type": "uint256"
        }
      ],
      "stateMutability": "nonpayable",
      "type": "function"
    },
    {
      "inputs": [
        {
          "internalType": "address",
          "name": "maintainer",
          "type": "address"
        },
        {
          "internalType": "enum BulkDisbursableNFTs.Role[]",
          "name": "grants",
          "type": "uint8[]"
        },
        {
          "internalType": "enum BulkDisbursableNFTs.Role[]",
          "name": "disables",
          "type": "uint8[]"
        }
      ],
      "name": "create",
      "outputs": [
        {
          "internalType": "uint256",
          "name": "id",
          "type": "uint256"
        }
      ],
      "stateMutability": "nonpayable",
      "type": "function"
    },
    {
      "inputs": [],
      "name": "create",
      "outputs": [
        {
          "internalType": "uint256",
          "name": "id",
          "type": "uint256"
        }
      ],
      "stateMutability": "nonpayable",
      "type": "function"
    },
    {
      "inputs": [
        {
          "internalType": "enum BulkDisbursableNFTs.Role",
          "name": "toDisable",
          "type": "uint8"
        },
        {
          "internalType": "uint256",
          "name": "tokenId",
          "type": "uint256"
        }
      ],
      "name": "disableRole",
      "outputs": [],
      "stateMutability": "nonpayable",
      "type": "function"
    },
    {
      "inputs": [
        {
          "internalType": "uint256",
          "name": "id",
          "type": "uint256"
        }
      ],
      "name": "exists",
      "outputs": [
        {
          "internalType": "bool",
          "name": "",
          "type": "bool"
        }
      ],
      "stateMutability": "view",
      "type": "function"
    },
    {
      "inputs": [
        {
          "internalType": "enum BulkDisbursableNFTs.Role",
          "name": "role",
          "type": "uint8"
        },
        {
          "internalType": "address",
          "name": "user",
          "type": "address"
        },
        {
          "internalType": "uint256",
          "name": "index",
          "type": "uint256"
        }
      ],
      "name": "gateToken",
      "outputs": [
        {
          "internalType": "uint256",
          "name": "id",
          "type": "uint256"
        }
      ],
      "stateMutability": "view",
      "type": "function"
    },
    {
      "inputs": [
        {
          "internalType": "enum BulkDisbursableNFTs.Role",
          "name": "role",
          "type": "uint8"
        },
        {
          "internalType": "address",
          "name": "user",
          "type": "address"
        }
      ],
      "name": "grantRole",
      "outputs": [],
      "stateMutability": "nonpayable",
      "type": "function"
    },
    {
      "inputs": [
        {
          "internalType": "enum BulkDisbursableNFTs.Role",
          "name": "role",
          "type": "uint8"
        },
        {
          "internalType": "address",
          "name": "user",
          "type": "address"
        },
        {
          "internalType": "uint256",
          "name": "index",
          "type": "uint256"
        }
      ],
      "name": "grantRole",
      "outputs": [],
      "stateMutability": "nonpayable",
      "type": "function"
    },
    {
      "inputs": [
        {
          "internalType": "enum BulkDisbursableNFTs.Role",
          "name": "role",
          "type": "uint8"
        }
      ],
      "name": "hasRole",
      "outputs": [
        {
          "internalType": "bool",
          "name": "has",
          "type": "bool"
        }
      ],
      "stateMutability": "view",
      "type": "function"
    },
    {
      "inputs": [
        {
          "internalType": "enum BulkDisbursableNFTs.Role",
          "name": "role",
          "type": "uint8"
        },
        {
          "internalType": "address",
          "name": "user",
          "type": "address"
        },
        {
          "internalType": "uint256",
          "name": "id",
          "type": "uint256"
        }
      ],
      "name": "hasRole",
      "outputs": [
        {
          "internalType": "bool",
          "name": "has",
          "type": "bool"
        }
      ],
      "stateMutability": "view",
      "type": "function"
    },
    {
      "inputs": [
        {
          "internalType": "enum BulkDisbursableNFTs.Role",
          "name": "role",
          "type": "uint8"
        },
        {
          "internalType": "uint256",
          "name": "id",
          "type": "uint256"
        }
      ],
      "name": "hasRole",
      "outputs": [
        {
          "internalType": "bool",
          "name": "has",
          "type": "bool"
        }
      ],
      "stateMutability": "view",
      "type": "function"
    },
    {
      "inputs": [
        {
          "internalType": "enum BulkDisbursableNFTs.Role",
          "name": "role",
          "type": "uint8"
        },
        {
          "internalType": "address",
          "name": "user",
          "type": "address"
        }
      ],
      "name": "hasRole",
      "outputs": [
        {
          "internalType": "bool",
          "name": "has",
          "type": "bool"
        }
      ],
      "stateMutability": "view",
      "type": "function"
    },
    {
      "inputs": [
        {
          "internalType": "string",
          "name": "_name",
          "type": "string"
        },
        {
          "internalType": "string",
          "name": "_symbol",
          "type": "string"
        }
      ],
      "name": "initialize",
      "outputs": [],
      "stateMutability": "nonpayable",
      "type": "function"
    },
    {
      "inputs": [
        {
          "internalType": "address",
          "name": "account",
          "type": "address"
        },
        {
          "internalType": "address",
          "name": "operator",
          "type": "address"
        }
      ],
      "name": "isApprovedForAll",
      "outputs": [
        {
          "internalType": "bool",
          "name": "",
          "type": "bool"
        }
      ],
      "stateMutability": "view",
      "type": "function"
    },
    {
      "inputs": [
        {
          "internalType": "address",
          "name": "user",
          "type": "address"
        }
      ],
      "name": "isSuper",
      "outputs": [
        {
          "internalType": "bool",
          "name": "superuser",
          "type": "bool"
        }
      ],
      "stateMutability": "view",
      "type": "function"
    },
    {
      "inputs": [],
      "name": "isSuper",
      "outputs": [
        {
          "internalType": "bool",
          "name": "superuser",
          "type": "bool"
        }
      ],
      "stateMutability": "view",
      "type": "function"
    },
    {
      "inputs": [
        {
          "internalType": "address[]",
          "name": "to",
          "type": "address[]"
        },
        {
          "internalType": "uint256",
          "name": "id",
          "type": "uint256"
        },
        {
          "internalType": "bytes",
          "name": "data",
          "type": "bytes"
        }
      ],
      "name": "mint",
      "outputs": [],
      "stateMutability": "nonpayable",
      "type": "function"
    },
    {
      "inputs": [
        {
          "internalType": "address",
          "name": "recipient",
          "type": "address"
        },
        {
          "internalType": "uint256",
          "name": "id",
          "type": "uint256"
        },
        {
          "internalType": "uint256",
          "name": "amount",
          "type": "uint256"
        },
        {
          "internalType": "bytes",
          "name": "data",
          "type": "bytes"
        }
      ],
      "name": "mint",
      "outputs": [
        {
          "internalType": "bool",
          "name": "minted",
          "type": "bool"
        }
      ],
      "stateMutability": "nonpayable",
      "type": "function"
    },
    {
      "inputs": [],
      "name": "name",
      "outputs": [
        {
          "internalType": "string",
          "name": "",
          "type": "string"
        }
      ],
      "stateMutability": "view",
      "type": "function"
    },
    {
      "inputs": [],
      "name": "numRoles",
      "outputs": [
        {
          "internalType": "uint8",
          "name": "",
          "type": "uint8"
        }
      ],
      "stateMutability": "view",
      "type": "function"
    },
    {
      "inputs": [],
      "name": "owner",
      "outputs": [
        {
          "internalType": "address",
          "name": "",
          "type": "address"
        }
      ],
      "stateMutability": "view",
      "type": "function"
    },
    {
      "inputs": [],
      "name": "proxiableUUID",
      "outputs": [
        {
          "internalType": "bytes32",
          "name": "",
          "type": "bytes32"
        }
      ],
      "stateMutability": "view",
      "type": "function"
    },
    {
      "inputs": [],
      "name": "renounceOwnership",
      "outputs": [],
      "stateMutability": "nonpayable",
      "type": "function"
    },
    {
      "inputs": [
        {
          "internalType": "enum BulkDisbursableNFTs.Role",
          "name": "index",
          "type": "uint8"
        }
      ],
      "name": "roleNameByIndex",
      "outputs": [
        {
          "internalType": "string",
          "name": "name",
          "type": "string"
        }
      ],
      "stateMutability": "pure",
      "type": "function"
    },
    {
      "inputs": [
        {
          "internalType": "enum BulkDisbursableNFTs.Role",
          "name": "role",
          "type": "uint8"
        }
      ],
      "name": "roleToken",
      "outputs": [
        {
          "internalType": "uint256",
          "name": "id",
          "type": "uint256"
        }
      ],
      "stateMutability": "view",
      "type": "function"
    },
    {
      "inputs": [
        {
          "internalType": "enum BulkDisbursableNFTs.Role",
          "name": "role",
          "type": "uint8"
        },
        {
          "internalType": "uint256",
          "name": "index",
          "type": "uint256"
        }
      ],
      "name": "roleToken",
      "outputs": [
        {
          "internalType": "uint256",
          "name": "id",
          "type": "uint256"
        }
      ],
      "stateMutability": "view",
      "type": "function"
    },
    {
      "inputs": [
        {
          "internalType": "string",
          "name": "roleName",
          "type": "string"
        }
      ],
      "name": "roleValueForName",
      "outputs": [
        {
          "internalType": "enum BulkDisbursableNFTs.Role",
          "name": "role",
          "type": "uint8"
        }
      ],
      "stateMutability": "pure",
      "type": "function"
    },
    {
      "inputs": [
        {
          "internalType": "address",
          "name": "from",
          "type": "address"
        },
        {
          "internalType": "address",
          "name": "to",
          "type": "address"
        },
        {
          "internalType": "uint256[]",
          "name": "ids",
          "type": "uint256[]"
        },
        {
          "internalType": "uint256[]",
          "name": "amounts",
          "type": "uint256[]"
        },
        {
          "internalType": "bytes",
          "name": "data",
          "type": "bytes"
        }
      ],
      "name": "safeBatchTransferFrom",
      "outputs": [],
      "stateMutability": "nonpayable",
      "type": "function"
    },
    {
      "inputs": [
        {
          "internalType": "address",
          "name": "from",
          "type": "address"
        },
        {
          "internalType": "address",
          "name": "to",
          "type": "address"
        },
        {
          "internalType": "uint256",
          "name": "id",
          "type": "uint256"
        },
        {
          "internalType": "uint256",
          "name": "amount",
          "type": "uint256"
        },
        {
          "internalType": "bytes",
          "name": "data",
          "type": "bytes"
        }
      ],
      "name": "safeTransferFrom",
      "outputs": [],
      "stateMutability": "nonpayable",
      "type": "function"
    },
    {
      "inputs": [
        {
          "internalType": "address",
          "name": "operator",
          "type": "address"
        },
        {
          "internalType": "bool",
          "name": "approved",
          "type": "bool"
        }
      ],
      "name": "setApprovalForAll",
      "outputs": [],
      "stateMutability": "nonpayable",
      "type": "function"
    },
    {
      "inputs": [
        {
          "internalType": "string",
          "name": "_name",
          "type": "string"
        },
        {
          "internalType": "string",
          "name": "_symbol",
          "type": "string"
        }
      ],
      "name": "setDescription",
      "outputs": [],
      "stateMutability": "nonpayable",
      "type": "function"
    },
    {
      "inputs": [
        {
          "internalType": "uint256",
          "name": "id",
          "type": "uint256"
        },
        {
          "internalType": "uint256",
          "name": "max",
          "type": "uint256"
        }
      ],
      "name": "setMax",
      "outputs": [],
      "stateMutability": "nonpayable",
      "type": "function"
    },
    {
      "inputs": [
        {
          "internalType": "uint256",
          "name": "id",
          "type": "uint256"
        },
        {
          "internalType": "string",
          "name": "newURI",
          "type": "string"
        }
      ],
      "name": "setURI",
      "outputs": [],
      "stateMutability": "nonpayable",
      "type": "function"
    },
    {
      "inputs": [
        {
          "internalType": "bytes4",
          "name": "interfaceId",
          "type": "bytes4"
        }
      ],
      "name": "supportsInterface",
      "outputs": [
        {
          "internalType": "bool",
          "name": "",
          "type": "bool"
        }
      ],
      "stateMutability": "view",
      "type": "function"
    },
    {
      "inputs": [],
      "name": "symbol",
      "outputs": [
        {
          "internalType": "string",
          "name": "",
          "type": "string"
        }
      ],
      "stateMutability": "view",
      "type": "function"
    },
    {
      "inputs": [
        {
          "internalType": "uint256",
          "name": "index",
          "type": "uint256"
        }
      ],
      "name": "tokenByIndex",
      "outputs": [
        {
          "internalType": "uint256",
          "name": "id",
          "type": "uint256"
        }
      ],
      "stateMutability": "view",
      "type": "function"
    },
    {
      "inputs": [
        {
          "internalType": "uint256",
          "name": "id",
          "type": "uint256"
        }
      ],
      "name": "tokenIndex",
      "outputs": [
        {
          "internalType": "uint256",
          "name": "index",
          "type": "uint256"
        }
      ],
      "stateMutability": "view",
      "type": "function"
    },
    {
      "inputs": [
        {
          "internalType": "address",
          "name": "owner",
          "type": "address"
        },
        {
          "internalType": "uint256",
          "name": "index",
          "type": "uint256"
        }
      ],
      "name": "tokenOfOwnerByIndex",
      "outputs": [
        {
          "internalType": "uint256",
          "name": "id",
          "type": "uint256"
        }
      ],
      "stateMutability": "view",
      "type": "function"
    },
    {
      "inputs": [
        {
          "internalType": "uint256",
          "name": "id",
          "type": "uint256"
        }
      ],
      "name": "totalSupply",
      "outputs": [
        {
          "internalType": "uint256",
          "name": "",
          "type": "uint256"
        }
      ],
      "stateMutability": "view",
      "type": "function"
    },
    {
      "inputs": [
        {
          "internalType": "address",
          "name": "newOwner",
          "type": "address"
        }
      ],
      "name": "transferOwnership",
      "outputs": [],
      "stateMutability": "nonpayable",
      "type": "function"
    },
    {
      "inputs": [],
      "name": "typeSupply",
      "outputs": [
        {
          "internalType": "uint256",
          "name": "count",
          "type": "uint256"
        }
      ],
      "stateMutability": "view",
      "type": "function"
    },
    {
      "inputs": [
        {
          "internalType": "address",
          "name": "newImplementation",
          "type": "address"
        }
      ],
      "name": "upgradeTo",
      "outputs": [],
      "stateMutability": "nonpayable",
      "type": "function"
    },
    {
      "inputs": [
        {
          "internalType": "address",
          "name": "newImplementation",
          "type": "address"
        },
        {
          "internalType": "bytes",
          "name": "data",
          "type": "bytes"
        }
      ],
      "name": "upgradeToAndCall",
      "outputs": [],
      "stateMutability": "payable",
      "type": "function"
    },
    {
      "inputs": [
        {
          "internalType": "uint256",
          "name": "id",
          "type": "uint256"
        }
      ],
      "name": "uri",
      "outputs": [
        {
          "internalType": "string",
          "name": "metadata",
          "type": "string"
        }
      ],
      "stateMutability": "view",
      "type": "function"
    }
  ],
  "bytecode": "0x60a06040523060601b6080523480156200001857600080fd5b50600054610100900460ff16620000365760005460ff161562000040565b62000040620000e5565b620000a85760405162461bcd60e51b815260206004820152602e60248201527f496e697469616c697a61626c653a20636f6e747261637420697320616c72656160448201526d191e481a5b9a5d1a585b1a5e995960921b606482015260840160405180910390fd5b600054610100900460ff16158015620000cb576000805461ffff19166101011790555b8015620000de576000805461ff00191690555b5062000112565b6000620000fd306200010360201b620029da1760201c565b15905090565b6001600160a01b03163b151590565b60805160601c6157f86200014d600039600081816116210152818161166101528181611bd501528181611c150152611d4901526157f86000f3fe6080604052600436106102385760003560e01c8062fdd58e1461023d57806301ffc9a7146102705780630583e9f8146102a057806306fdde03146102c05780630e89341c146102e25780630ec0370f1461030257806314c464271461032457806316730ab01461034457806319e0755c146103645780632a7ccf13146103845780632eb2c2d6146103b15780632f745c59146103d15780633659cfe6146103f15780633b91ceef146104115780633dbe35de146104315780634468031f1461045157806348289589146104715780634a80070f146104915780634cd88b76146104b15780634e1273f4146104d15780634f1ef286146104fe5780634f558e79146105115780634f6ccce71461054057806352d1902d146105605780635d5664e1146105755780636755d456146105955780636b20c454146105b55780636fc0020b146105d5578063715018a6146105f5578063731133e91461060a578063814c24501461062a578063862440e21461064a5780638b2ed3881461066a5780638da5cb5b1461069157806395d89b41146106be5780639d6d7eaa146106d35780639d969a9c146106f35780639e97b8f614610708578063a22cb46514610728578063aa8e906614610748578063b0bdf26114610768578063bd85b03914610788578063c3c8df99146107b5578063e985e9c5146107d5578063edc79bac1461081e578063efc81a8c14610833578063f242432a14610848578063f2fde38b14610868578063f5298aca14610888578063fde4047a146108a8575b600080fd5b34801561024957600080fd5b5061025d610258366004614a74565b6108c8565b6040519081526020015b60405180910390f35b34801561027c57600080fd5b5061029061028b366004614c50565b610964565b6040519015158152602001610267565b3480156102ac57600080fd5b5061025d6102bb366004614dc0565b6109b4565b3480156102cc57600080fd5b506102d5610a22565b6040516102679190615081565b3480156102ee57600080fd5b506102d56102fd366004614dc0565b610ab1565b34801561030e57600080fd5b5061032261031d366004614b83565b610d24565b005b34801561033057600080fd5b5061025d61033f366004614c88565b610d7b565b34801561035057600080fd5b5061025d61035f366004614cbd565b610d88565b34801561037057600080fd5b5061029061037f366004614c88565b6111a7565b34801561039057600080fd5b506103a461039f366004614d7b565b6111b3565b604051610267919061502a565b3480156103bd57600080fd5b506103226103cc366004614812565b6114fb565b3480156103dd57600080fd5b5061025d6103ec366004614a74565b611592565b3480156103fd57600080fd5b5061032261040c3660046147c6565b611616565b34801561041d57600080fd5b5061032261042c366004614e71565b6116df565b34801561043d57600080fd5b5061025d61044c366004614cf8565b611762565b34801561045d57600080fd5b5061029061046c366004614cbd565b6118dd565b34801561047d57600080fd5b5061029061048c366004614cf8565b611904565b34801561049d57600080fd5b5061025d6104ac366004614be2565b611911565b3480156104bd57600080fd5b506103226104cc366004614d13565b61191e565b3480156104dd57600080fd5b506104f16104ec366004614b2d565b611a69565b6040516102679190614ff2565b61032261050c366004614a29565b611bca565b34801561051d57600080fd5b5061029061052c366004614dc0565b600090815260fb6020526040902054151590565b34801561054c57600080fd5b5061025d61055b366004614dc0565b611c80565b34801561056c57600080fd5b5061025d611d3c565b34801561058157600080fd5b50610322610590366004614ca2565b611deb565b3480156105a157600080fd5b506103226105b0366004614d13565b611df7565b3480156105c157600080fd5b506103226105d0366004614989565b611e41565b3480156105e157600080fd5b506102d56105f0366004614dc0565b611e89565b34801561060157600080fd5b50610322611ea9565b34801561061657600080fd5b50610290610625366004614acf565b611ee4565b34801561063657600080fd5b506102d5610645366004614c88565b6120ec565b34801561065657600080fd5b50610322610665366004614dd8565b612480565b34801561067657600080fd5b5061067f600b81565b60405160ff9091168152602001610267565b34801561069d57600080fd5b506106a661255c565b6040516001600160a01b039091168152602001610267565b3480156106ca57600080fd5b506102d561256b565b3480156106df57600080fd5b506103226106ee366004614e21565b612579565b3480156106ff57600080fd5b5061025d61258e565b34801561071457600080fd5b50610290610723366004614ca2565b6125a6565b34801561073457600080fd5b506103226107433660046149ef565b6125b4565b34801561075457600080fd5b50610322610763366004614cbd565b6125bf565b34801561077457600080fd5b5061025d610783366004614919565b6125cc565b34801561079457600080fd5b5061025d6107a3366004614dc0565b600090815260fb602052604090205490565b3480156107c157600080fd5b506102906107d03660046147c6565b612793565b3480156107e157600080fd5b506102906107f03660046147e0565b6001600160a01b03918216600090815260666020908152604080832093909416825291909152205460ff1690565b34801561082a57600080fd5b506102906127c8565b34801561083f57600080fd5b5061025d6127d3565b34801561085457600080fd5b506103226108633660046148b7565b6127f4565b34801561087457600080fd5b506103226108833660046147c6565b612839565b34801561089457600080fd5b506103226108a3366004614a9d565b6128d6565b3480156108b457600080fd5b506103226108c3366004614cf8565b612960565b60006001600160a01b0383166109395760405162461bcd60e51b815260206004820152602b60248201527f455243313135353a2062616c616e636520717565727920666f7220746865207a60448201526a65726f206164647265737360a81b60648201526084015b60405180910390fd5b5060008181526065602090815260408083206001600160a01b03861684529091529020545b92915050565b60006001600160e01b03198216636cdb3d1360e11b148061099557506001600160e01b031982166303a24d0760e21b145b8061095e57506301ffc9a760e01b6001600160e01b031983161461095e565b6000818152610195602052604090205480610a1d5760405162461bcd60e51b815260206004820152602360248201527f5468652072657175657374656420746f6b656e20646f6573206e6f742065786960448201526239ba1760e91b6064820152608401610930565b919050565b6101918054610a3090615577565b80601f0160208091040260200160405190810160405280929190818152602001828054610a5c90615577565b8015610aa95780601f10610a7e57610100808354040283529160200191610aa9565b820191906000526020600020905b815481529060010190602001808311610a8c57829003601f168201915b505050505081565b600081815261019360205260409020805460609190610acf90615577565b80601f0160208091040260200160405190810160405280929190818152602001828054610afb90615577565b8015610b485780601f10610b1d57610100808354040283529160200191610b48565b820191906000526020600020905b815481529060010190602001808311610b2b57829003601f168201915b50505050509050805160001415610a1d576008610b68600d6101006154ee565b610b729190615528565b600160ff919091161b6008610b8a600d6101006154ee565b610b949190615528565b60ff166001610ba560086002615443565b610baf9190615511565b901b83161415610a1d576000600160088160038083610bd1600d6101006154ee565b610bdb9190615528565b610be59190615528565b610bef9190615528565b610bf99190615528565b610c039190615528565b610c0d9190615528565b60ff166001610c1d816002615443565b610c279190615511565b901b6003806008610c3b600d6101006154ee565b610c459190615528565b610c4f9190615528565b610c599190615528565b60ff166001901b1719600160206002610c729190615443565b610c7c9190615511565b19841616600081815261019360205260409020805491925090610c9e90615577565b80601f0160208091040260200160405190810160405280929190818152602001828054610cca90615577565b8015610d175780601f10610cec57610100808354040283529160200191610d17565b820191906000526020600020905b815481529060010190602001808311610cfa57829003601f168201915b5050505050915050919050565b60005b8351811015610d7557610d64848281518110610d5357634e487b7160e01b600052603260045260246000fd5b602002602001015184600185611ee4565b50610d6e816155de565b9050610d27565b50505050565b600061095e826000611762565b600080610d9485610d7b565b9050600061019581856008610dac600d6101006154ee565b610db69190615528565b60ff16600a901b851717815260200190815260200160002054905080600014610e1057610194805482908110610dfc57634e487b7160e01b600052603260045260246000fd5b9060005260206000200154925050506111a0565b6000604051806101000160405280866001600860016003806008600d60ff16610100610e3c91906154ee565b610e469190615528565b610e509190615528565b610e5a9190615528565b610e649190615528565b610e6e9190615528565b610e789190615528565b60ff166001610e88816002615443565b610e929190615511565b901b6003806008610ea6600d6101006154ee565b610eb09190615528565b610eba9190615528565b610ec49190615528565b600160ff919091161b871717178152602001866003806008610ee9600d6101006154ee565b610ef39190615528565b610efd9190615528565b610f079190615528565b60ff166001901b86171781526020016001600860016003806008600d60ff16610100610f3391906154ee565b610f3d9190615528565b610f479190615528565b610f519190615528565b610f5b9190615528565b610f659190615528565b610f6f9190615528565b60ff166001610f7f816002615443565b610f899190615511565b901b6003806008610f9d600d6101006154ee565b610fa79190615528565b610fb19190615528565b610fbb9190615528565b600160ff919091161b86171781526020016003806008610fde600d6101006154ee565b610fe89190615528565b610ff29190615528565b610ffc9190615528565b60ff166001901b85178152602001866001600860016003806008600d60ff1661010061102891906154ee565b6110329190615528565b61103c9190615528565b6110469190615528565b6110509190615528565b61105a9190615528565b6110649190615528565b60ff166001611074816002615443565b61107e9190615511565b901b861717815260200160016008816003808361109e600d6101006154ee565b6110a89190615528565b6110b29190615528565b6110bc9190615528565b6110c69190615528565b6110d09190615528565b6110da9190615528565b60ff1660016110ea816002615443565b6110f49190615511565b901b851781528685176020820152604001849052905060005b60088160ff16101561119757600061114c88848460ff166008811061114257634e487b7160e01b600052603260045260246000fd5b60200201516108c8565b111561118557818160ff166008811061117557634e487b7160e01b600052603260045260246000fd5b60200201519450505050506111a0565b8061118f816155f9565b91505061110d565b50600093505050505b9392505050565b600061095e82336125a6565b600080826040516020016111c79190614ef8565b6040516020818303038152906040528051906020012090506040516020016111fe906829bab832b93ab9b2b960b91b815260090190565b604051602081830303815290604052805190602001208114156112245750600192915050565b6040516526b4b73a32b960d11b60208201526026016040516020818303038152906040528051906020012081141561125f5750600292915050565b6040516521b0b9ba32b960d11b60208201526026016040516020818303038152906040528051906020012081141561129a5750600392915050565b604051692a3930b739b332b932b960b11b6020820152602a01604051602081830303815290604052805190602001208114156112d95750600492915050565b6040516921b7b73334b3bab932b960b11b6020820152602a01604051602081830303815290604052805190602001208114156113185750600592915050565b6040516926b0b4b73a30b4b732b960b11b6020820152602a01604051602081830303815290604052805190602001208114156113575750600692915050565b6040516621b932b0ba37b960c91b6020820152602701604051602081830303815290604052805190602001208114156113935750600792915050565b604051662634b6b4ba32b960c91b6020820152602701604051602081830303815290604052805190602001208114156113cf5750600892915050565b60405165213ab93732b960d11b60208201526026016040516020818303038152906040528051906020012081141561140a5750600992915050565b604051682232b9ba3937bcb2b960b91b6020820152602901604051602081830303815290604052805190602001208114156114485750600a92915050565b604051654f7261636c6560d01b6020820152602601604051602081830303815290604052805190602001208114156114835750600b92915050565b6040516b52657365727665645b2d315d60a01b6020820152602c01604051602081830303815290604052805190602001208114156114c45750600c92915050565b826040516020016114d59190614f14565b60408051601f198184030181529082905262461bcd60e51b825261093091600401615081565b6001600160a01b038516331480611517575061151785336107f0565b61157e5760405162461bcd60e51b815260206004820152603260248201527f455243313135353a207472616e736665722063616c6c6572206973206e6f74206044820152711bdddb995c881b9bdc88185c1c1c9bdd995960721b6064820152608401610930565b61158b85858585856129e9565b5050505050565b6001600160a01b0382166000908152610196602052604081205482106115ca5760405162461bcd60e51b8152600401610930906152e4565b6001600160a01b03831660009081526101966020526040902080548390811061160357634e487b7160e01b600052603260045260246000fd5b9060005260206000200154905092915050565b306001600160a01b037f000000000000000000000000000000000000000000000000000000000000000016141561165f5760405162461bcd60e51b815260040161093090615120565b7f00000000000000000000000000000000000000000000000000000000000000006001600160a01b0316611691612ba0565b6001600160a01b0316146116b75760405162461bcd60e51b8152600401610930906151a3565b6116c081612bbc565b604080516000808252602082019092526116dc91839190612c42565b50565b6116ea600883611904565b806116f857506116f86127c8565b61175e5760405162461bcd60e51b815260206004820152603160248201527f596f75206d75737420686176652061204c696d6974657220746f6b656e20746f6044820152701031b430b733b29038bab0b73a34ba3c9760791b6064820152608401610930565b5050565b600061177060206002615443565b82106117be5760405162461bcd60e51b815260206004820152601f60248201527f496e64696365732063616e206265206174206d6f737420333220426974732e006044820152606401610930565b81600184600c8111156117e157634e487b7160e01b600052602160045260246000fd5b146117ed576000611846565b60016003806008611801600d6101006154ee565b61180b9190615528565b6118159190615528565b61181f9190615528565b6118299190615528565b60ff166001611839816002615443565b6118439190615511565b901b5b600860016003808361185b600d6101006154ee565b6118659190615528565b61186f9190615528565b6118799190615528565b6118839190615528565b61188d9190615528565b60ff1685600c8111156118b057634e487b7160e01b600052602160045260246000fd5b901b60086118c1600d6101006154ee565b6118cb9190615528565b60ff166001901b171717905092915050565b600081815261019560205260408120546118fa9085908590610d88565b1515949350505050565b60006111a08333846118dd565b60006111a03384846125cc565b600054610100900460ff166119395760005460ff1615611941565b611941612dbc565b6119a45760405162461bcd60e51b815260206004820152602e60248201527f496e697469616c697a61626c653a20636f6e747261637420697320616c72656160448201526d191e481a5b9a5d1a585b1a5e995960921b6064820152608401610930565b600054610100900460ff161580156119c6576000805461ffff19166101011790555b6119ce612dcd565b611a0c6040518060400160405280602081526020017f4572726f723a2053696e676c6520546f6b656e20555249204e6f742055736564815250612dfc565b611a14612e2c565b611a1c612e2c565b611a24612e2c565b6101948054600181018255600091825260008051602061573c8339815191520155611a5185858585611df7565b801561158b576000805461ff00191690555050505050565b60608151835114611ace5760405162461bcd60e51b815260206004820152602960248201527f455243313135353a206163636f756e747320616e6420696473206c656e677468604482015268040dad2e6dac2e8c6d60bb1b6064820152608401610930565b600083516001600160401b03811115611af757634e487b7160e01b600052604160045260246000fd5b604051908082528060200260200182016040528015611b20578160200160208202803683370190505b50905060005b8451811015611bc257611b87858281518110611b5257634e487b7160e01b600052603260045260246000fd5b6020026020010151858381518110611b7a57634e487b7160e01b600052603260045260246000fd5b60200260200101516108c8565b828281518110611ba757634e487b7160e01b600052603260045260246000fd5b6020908102919091010152611bbb816155de565b9050611b26565b509392505050565b306001600160a01b037f0000000000000000000000000000000000000000000000000000000000000000161415611c135760405162461bcd60e51b815260040161093090615120565b7f00000000000000000000000000000000000000000000000000000000000000006001600160a01b0316611c45612ba0565b6001600160a01b031614611c6b5760405162461bcd60e51b8152600401610930906151a3565b611c7482612bbc565b61175e82826001612c42565b6000808211611ce45760405162461bcd60e51b815260206004820152602a60248201527f4552432d3131353520456e756d657261626c653a20746f6b656e7320696e64656044820152697865642066726f6d203160b01b6064820152608401610930565b61019454821115611d075760405162461bcd60e51b8152600401610930906152e4565b610194805483908110611d2a57634e487b7160e01b600052603260045260246000fd5b90600052602060002001549050919050565b6000306001600160a01b037f00000000000000000000000000000000000000000000000000000000000000001614611dd75760405162461bcd60e51b815260206004820152603860248201527f555550535570677261646561626c653a206d757374206e6f742062652063616c6044820152771b1959081d1a1c9bdd59da0819195b1959d85d1958d85b1b60421b6064820152608401610930565b5060008051602061577c8339815191525b90565b61175e828260006125bf565b33611e0061255c565b6001600160a01b031614611e265760405162461bcd60e51b8152600401610930906152af565b611e336101918585614481565b5061158b6101928383614481565b6001600160a01b038316331480611e5d5750611e5d83336107f0565b611e795760405162461bcd60e51b81526004016109309061515a565b611e84838383612e53565b505050565b61019781600b8110611e9a57600080fd5b018054909150610a3090615577565b33611eb261255c565b6001600160a01b031614611ed85760405162461bcd60e51b8152600401610930906152af565b611ee26000612fee565b565b6000600160088160038083611efc600d6101006154ee565b611f069190615528565b611f109190615528565b611f1a9190615528565b611f249190615528565b611f2e9190615528565b611f389190615528565b60ff166001611f48816002615443565b611f529190615511565b901b600160088160038083611f6a600d6101006154ee565b611f749190615528565b611f7e9190615528565b611f889190615528565b611f929190615528565b611f9c9190615528565b611fa69190615528565b60ff166001611fb6816002615443565b611fc09190615511565b901b851614156120245760405162461bcd60e51b815260206004820152602960248201527f43616e6e6f74206d696e7420696e7465726e616c20746f6b656e732066726f6d6044820152681037baba39b4b2329760b91b6064820152608401610930565b60016003806008612038600d6101006154ee565b6120429190615528565b61204c9190615528565b6120569190615528565b6120609190615528565b60ff166001901b60016003806008600d60ff1661010061208091906154ee565b61208a9190615528565b6120949190615528565b61209e9190615528565b6120a89190615528565b60ff166001901b85161480156120c7575060006120c586866108c8565b115b156120d4575060006120e4565b6120e085858585613040565b5060015b949350505050565b6060600182600c81111561211057634e487b7160e01b600052602160045260246000fd5b141561213b57505060408051808201909152600981526829bab832b93ab9b2b960b91b602082015290565b600282600c81111561215d57634e487b7160e01b600052602160045260246000fd5b141561218557505060408051808201909152600681526526b4b73a32b960d11b602082015290565b600382600c8111156121a757634e487b7160e01b600052602160045260246000fd5b14156121cf57505060408051808201909152600681526521b0b9ba32b960d11b602082015290565b600482600c8111156121f157634e487b7160e01b600052602160045260246000fd5b141561221d57505060408051808201909152600a8152692a3930b739b332b932b960b11b602082015290565b600582600c81111561223f57634e487b7160e01b600052602160045260246000fd5b141561226b57505060408051808201909152600a81526921b7b73334b3bab932b960b11b602082015290565b600682600c81111561228d57634e487b7160e01b600052602160045260246000fd5b14156122b957505060408051808201909152600a81526926b0b4b73a30b4b732b960b11b602082015290565b600782600c8111156122db57634e487b7160e01b600052602160045260246000fd5b141561230457505060408051808201909152600781526621b932b0ba37b960c91b602082015290565b600882600c81111561232657634e487b7160e01b600052602160045260246000fd5b141561234f5750506040805180820190915260078152662634b6b4ba32b960c91b602082015290565b600982600c81111561237157634e487b7160e01b600052602160045260246000fd5b1415612399575050604080518082019091526006815265213ab93732b960d11b602082015290565b600a82600c8111156123bb57634e487b7160e01b600052602160045260246000fd5b14156123e65750506040805180820190915260098152682232b9ba3937bcb2b960b91b602082015290565b600b82600c81111561240857634e487b7160e01b600052602160045260246000fd5b14156124305750506040805180820190915260068152654f7261636c6560d01b602082015290565b600c82600c81111561245257634e487b7160e01b600052602160045260246000fd5b1415610a1d57505060408051808201909152600c81526b52657365727665645b2d315d60a01b602082015290565b61248b600584611904565b8061249957506124996127c8565b6125025760405162461bcd60e51b815260206004820152603460248201527f596f75206d7573742068617665206120436f6e6669677572657220746f6b656e604482015273103a379031b430b733b29036b2ba30b230ba309760611b6064820152608401610930565b60008381526101936020526040902061251c908383614481565b50827f6bb7ff708619ba0610cba295a58592e0451dee2622938c8755667688daf3529b838360405161254f929190615052565b60405180910390a2505050565b6097546001600160a01b031690565b6101928054610a3090615577565b612584848484612480565b610d7584826116df565b610194546000906125a190600190615511565b905090565b60006111a0838360006118dd565b61175e338383613140565b611e848383836000613221565b610194546000908060086125e3600d6101006154ee565b6125ed9190615528565b60ff166009901b179150612602600783611904565b8061261057506126106127c8565b6126785760405162461bcd60e51b815260206004820152603360248201527f596f75206d757374206861766520612043726561746f7220746f6b656e20746f6044820152721031b932b0ba32903732bb903a37b5b2b7399760691b6064820152608401610930565b61019480546001810190915560008051602061573c833981519152018290556000828152610195602052604081208290555b84518110156126f9576126e78582815181106126d657634e487b7160e01b600052603260045260246000fd5b602002602001015187846001613221565b806126f1816155de565b9150506126aa565b5060005b83518110156127495761273784828151811061272957634e487b7160e01b600052603260045260246000fd5b602002602001015183612960565b80612741816155de565b9150506126fd565b50604080518381526001600160a01b03871660208201527f7757890bcab34d673dfca6b71df1b57f75a2fe4231d6e8de726caf534ab1fdd6910160405180910390a1509392505050565b60006127a06001836125a6565b8061095e57506127ae61255c565b6001600160a01b0316826001600160a01b03161492915050565b60006125a133612793565b604080516000808252602082019092526127ee3382836125cc565b91505090565b6001600160a01b038516331480612810575061281085336107f0565b61282c5760405162461bcd60e51b81526004016109309061515a565b61158b85858585856133dc565b3361284261255c565b6001600160a01b0316146128685760405162461bcd60e51b8152600401610930906152af565b6001600160a01b0381166128cd5760405162461bcd60e51b815260206004820152602660248201527f4f776e61626c653a206e6577206f776e657220697320746865207a65726f206160448201526564647265737360d01b6064820152608401610930565b6116dc81612fee565b6128e2600984846118dd565b806128f157506128f183612793565b6129555760405162461bcd60e51b815260206004820152602f60248201527f596f75206d75737420686176652061204275726e657220746f6b656e20746f2060448201526e3232b9ba3937bc903a37b5b2b7399760891b6064820152608401610930565b611e848383836134eb565b6000818152610195602052604081205461297b908490611762565b9050600861298c600d6101006154ee565b6129969190615528565b610194805460018101909155600a60ff929092169190911b9190911760008051602061573c8339815191528201819055600090815261019560205260409020555050565b6001600160a01b03163b151590565b8151835114612a0a5760405162461bcd60e51b81526004016109309061537d565b6001600160a01b038416612a305760405162461bcd60e51b8152600401610930906151dd565b33612a3f8187878787876135de565b60005b8451811015612b44576000858281518110612a6d57634e487b7160e01b600052603260045260246000fd5b602002602001015190506000858381518110612a9957634e487b7160e01b600052603260045260246000fd5b60209081029190910181015160008481526065835260408082206001600160a01b038e168352909352919091205490915081811015612aea5760405162461bcd60e51b815260040161093090615265565b60008381526065602090815260408083206001600160a01b038e8116855292528083208585039055908b16825281208054849290612b299084906153e8565b9250508190555050505080612b3d906155de565b9050612a42565b50846001600160a01b0316866001600160a01b0316826001600160a01b03166000805160206156fc8339815191528787604051612b82929190615005565b60405180910390a4612b98818787878787613e04565b505050505050565b60008051602061577c833981519152546001600160a01b031690565b612bc660066111a7565b80612bd45750612bd46127c8565b6116dc5760405162461bcd60e51b815260206004820152603960248201527f596f75206d75737420686176652061204d61696e7461696e657220746f6b656e604482015278103a37903ab833b930b232903a34329031b7b73a3930b1ba1760391b6064820152608401610930565b7f4910fdfa16fed3260ed0e7147f7cc6da11a60208b5b9406d12a635614ffd91435460ff1615612c7557611e8483613f76565b826001600160a01b03166352d1902d6040518163ffffffff1660e01b815260040160206040518083038186803b158015612cae57600080fd5b505afa925050508015612cde575060408051601f3d908101601f19168201909252612cdb91810190614c38565b60015b612d415760405162461bcd60e51b815260206004820152602e60248201527f45524331393637557067726164653a206e657720696d706c656d656e7461746960448201526d6f6e206973206e6f74205555505360901b6064820152608401610930565b60008051602061577c8339815191528114612db05760405162461bcd60e51b815260206004820152602960248201527f45524331393637557067726164653a20756e737570706f727465642070726f786044820152681a58589b195555525160ba1b6064820152608401610930565b50611e84838383614010565b6000612dc7306129da565b15905090565b600054610100900460ff16612df45760405162461bcd60e51b815260040161093090615332565b611ee2614035565b600054610100900460ff16612e235760405162461bcd60e51b815260040161093090615332565b6116dc81614065565b600054610100900460ff16611ee25760405162461bcd60e51b815260040161093090615332565b6001600160a01b038316612e795760405162461bcd60e51b815260040161093090615222565b8051825114612e9a5760405162461bcd60e51b81526004016109309061537d565b6000339050612ebd818560008686604051806020016040528060008152506135de565b60005b8351811015612fa1576000848281518110612eeb57634e487b7160e01b600052603260045260246000fd5b602002602001015190506000848381518110612f1757634e487b7160e01b600052603260045260246000fd5b60209081029190910181015160008481526065835260408082206001600160a01b038c168352909352919091205490915081811015612f685760405162461bcd60e51b8152600401610930906150dc565b60009283526065602090815260408085206001600160a01b038b1686529091529092209103905580612f99816155de565b915050612ec0565b5060006001600160a01b0316846001600160a01b0316826001600160a01b03166000805160206156fc8339815191528686604051612fe0929190615005565b60405180910390a450505050565b609780546001600160a01b038381166001600160a01b0319831681179093556040519116919082907f8be0079c531659141344cd1fd0a4f28419497f9722a3daafe3b4186f6b6457e090600090a35050565b6001600160a01b0384166130a05760405162461bcd60e51b815260206004820152602160248201527f455243313135353a206d696e7420746f20746865207a65726f206164647265736044820152607360f81b6064820152608401610930565b336130c0816000876130b188614095565b6130ba88614095565b876135de565b60008481526065602090815260408083206001600160a01b0389168452909152812080548592906130f29084906153e8565b909155505060408051858152602081018590526001600160a01b03808816926000929185169160008051602061571c833981519152910160405180910390a461158b816000878787876140ee565b816001600160a01b0316836001600160a01b031614156131b45760405162461bcd60e51b815260206004820152602960248201527f455243313135353a2073657474696e6720617070726f76616c20737461747573604482015268103337b91039b2b63360b91b6064820152608401610930565b6001600160a01b03838116600081815260666020908152604080832094871680845294825291829020805460ff191686151590811790915591519182527f17307eab39ab6107e8899845ad3d59bd9653f200f220920489ca2b5937696c31910160405180910390a3505050565b8061333b57600184600c81111561324857634e487b7160e01b600052602160045260246000fd5b14156132bb576132566127c8565b6132b65760405162461bcd60e51b815260206004820152602b60248201527f596f75206d75737420626520612073757065727573657220746f20637265617460448201526a32903732bb9037b732b99760a91b6064820152608401610930565b61333b565b6132c6600383611904565b806132d457506132d46127c8565b61333b5760405162461bcd60e51b815260206004820152603260248201527f596f75206d7573742068617665207468652043617374657220726f6c6520746f6044820152711030b9b9b4b3b7103732bb903937b632b99760711b6064820152608401610930565b610d75838261334b5760006133ba565b600160088160038083613361600d6101006154ee565b61336b9190615528565b6133759190615528565b61337f9190615528565b6133899190615528565b6133939190615528565b61339d9190615528565b60ff1660016133ad816002615443565b6133b79190615511565b901b5b6133c48786611762565b17600160405180602001604052806000815250613040565b6001600160a01b0384166134025760405162461bcd60e51b8152600401610930906151dd565b336134128187876130b188614095565b60008481526065602090815260408083206001600160a01b038a168452909152902054838110156134555760405162461bcd60e51b815260040161093090615265565b60008581526065602090815260408083206001600160a01b038b81168552925280832087850390559088168252812080548692906134949084906153e8565b909155505060408051868152602081018690526001600160a01b03808916928a8216929186169160008051602061571c833981519152910160405180910390a46134e28288888888886140ee565b50505050505050565b6001600160a01b0383166135115760405162461bcd60e51b815260040161093090615222565b336135408185600061352287614095565b61352b87614095565b604051806020016040528060008152506135de565b60008381526065602090815260408083206001600160a01b0388168452909152902054828110156135835760405162461bcd60e51b8152600401610930906150dc565b60008481526065602090815260408083206001600160a01b038981168086529184528285208887039055825189815293840188905290929086169160008051602061571c833981519152910160405180910390a45050505050565b6135e66127c8565b613a3c5760005b8351811015613a3a5760016008816003808361360c600d6101006154ee565b6136169190615528565b6136209190615528565b61362a9190615528565b6136349190615528565b61363e9190615528565b6136489190615528565b60ff166001613658816002615443565b6136629190615511565b901b60016008816003808361367a600d6101006154ee565b6136849190615528565b61368e9190615528565b6136989190615528565b6136a29190615528565b6136ac9190615528565b6136b69190615528565b60ff1660016136c6816002615443565b6136d09190615511565b901b8583815181106136f257634e487b7160e01b600052603260045260246000fd5b60200260200101511614613a2a5760006001600160a01b0387161561371857600461371b565b60025b9050600281600c81111561373f57634e487b7160e01b600052602160045260246000fd5b141561398c576008613754600d6101006154ee565b61375e9190615528565b600160ff919091161b6008613776600d6101006154ee565b6137809190615528565b60ff16600161379160086002615443565b61379b9190615511565b901b8684815181106137bd57634e487b7160e01b600052603260045260246000fd5b6020026020010151161415613877576137fe60038684815181106137f157634e487b7160e01b600052603260045260246000fd5b6020026020010151611904565b8061380c575061380c6127c8565b6138725760405162461bcd60e51b815260206004820152603160248201527f596f75206d757374206861766520612043617374657220746f6b656e20746f2060448201527036b4b73a103a37b5b2b71033b0ba32b99760791b6064820152608401610930565b613a28565b60006138ae823361035f8987815181106138a157634e487b7160e01b600052603260045260246000fd5b60200260200101516109b4565b90506138d4828785815181106137f157634e487b7160e01b600052603260045260246000fd5b6139395760405162461bcd60e51b815260206004820152603060248201527f596f75206d75737420686176652061204d696e74657220746f6b656e20746f2060448201526f33b2b732b930ba32903a37b5b2b7399760811b6064820152608401610930565b6000600380600861394d600d6101006154ee565b6139579190615528565b6139619190615528565b61396b9190615528565b60ff166001901b8216111561398657613986338260016134eb565b50613a28565b6001600160a01b03861615613a28576139bf818684815181106137f157634e487b7160e01b600052603260045260246000fd5b613a285760405162461bcd60e51b815260206004820152603460248201527f596f75206d75737420686176652061205472616e73666572657220746f6b656e604482015273103a37903a3930b739b332b9103a37b5b2b7399760611b6064820152608401610930565b505b613a33816155de565b90506135ed565b505b6001600160a01b03841615613c625760005b8351811015613c60576101946001016000858381518110613a7f57634e487b7160e01b600052603260045260246000fd5b602002602001015181526020019081526020016000205460001415613b2b57610194600001848281518110613ac457634e487b7160e01b600052603260045260246000fd5b6020908102919091018101518254600181018455600093845291832090910155610194548551909161019591879085908110613b1057634e487b7160e01b600052603260045260246000fd5b60200260200101518152602001908152602001600020819055505b6101966000866001600160a01b03166001600160a01b031681526020019081526020016000206001016000858381518110613b7657634e487b7160e01b600052603260045260246000fd5b602002602001015181526020019081526020016000205460001415613c50576001600160a01b0385166000908152610196602052604090208451859083908110613bd057634e487b7160e01b600052603260045260246000fd5b6020908102919091018101518254600181810185556000948552838520909101919091556001600160a01b0388168352610196909152604082208054875190939190920191879085908110613c3557634e487b7160e01b600052603260045260246000fd5b60200260200101518152602001908152602001600020819055505b613c59816155de565b9050613a4e565b505b6001600160a01b03851615613df65760005b8351811015613df457828181518110613c9d57634e487b7160e01b600052603260045260246000fd5b6020026020010151613cc987868481518110611b7a57634e487b7160e01b600052603260045260246000fd5b11613de4576001600160a01b03861660009081526101966020526040812085516001918201908390889086908110613d1157634e487b7160e01b600052603260045260246000fd5b6020026020010151815260200190815260200160002054613d329190615511565b6001600160a01b03881660009081526101966020526040902080549192509082908110613d6f57634e487b7160e01b600052603260045260246000fd5b90600052602060002001600090556101966000886001600160a01b03166001600160a01b031681526020019081526020016000206001016000868481518110613dc857634e487b7160e01b600052603260045260246000fd5b6020026020010151815260200190815260200160002060009055505b613ded816155de565b9050613c74565b505b612b988686868686866141bf565b613e16846001600160a01b03166129da565b15612b985760405163bc197c8160e01b81526001600160a01b0385169063bc197c8190613e4f9089908990889088908890600401614f4f565b602060405180830381600087803b158015613e6957600080fd5b505af1925050508015613e99575060408051601f3d908101601f19168201909252613e9691810190614c6c565b60015b613f4657613ea5615645565b806308c379a01415613edf5750613eba61565c565b80613ec55750613ee1565b8060405162461bcd60e51b81526004016109309190615081565b505b60405162461bcd60e51b815260206004820152603460248201527f455243313135353a207472616e7366657220746f206e6f6e20455243313135356044820152732932b1b2b4bb32b91034b6b83632b6b2b73a32b960611b6064820152608401610930565b6001600160e01b0319811663bc197c8160e01b146134e25760405162461bcd60e51b815260040161093090615094565b613f7f816129da565b613fe15760405162461bcd60e51b815260206004820152602d60248201527f455243313936373a206e657720696d706c656d656e746174696f6e206973206e60448201526c1bdd08184818dbdb9d1c9858dd609a1b6064820152608401610930565b60008051602061577c83398151915280546001600160a01b0319166001600160a01b0392909216919091179055565b61401983614303565b6000825111806140265750805b15611e8457610d758383614343565b600054610100900460ff1661405c5760405162461bcd60e51b815260040161093090615332565b611ee233612fee565b600054610100900460ff1661408c5760405162461bcd60e51b815260040161093090615332565b6116dc81614435565b604080516001808252818301909252606091600091906020808301908036833701905050905082816000815181106140dd57634e487b7160e01b600052603260045260246000fd5b602090810291909101015292915050565b614100846001600160a01b03166129da565b15612b985760405163f23a6e6160e01b81526001600160a01b0385169063f23a6e61906141399089908990889088908890600401614fad565b602060405180830381600087803b15801561415357600080fd5b505af1925050508015614183575060408051601f3d908101601f1916820190925261418091810190614c6c565b60015b61418f57613ea5615645565b6001600160e01b0319811663f23a6e6160e01b146134e25760405162461bcd60e51b815260040161093090615094565b6001600160a01b0385166142625760005b8351811015614260578281815181106141f957634e487b7160e01b600052603260045260246000fd5b602002602001015160fb600086848151811061422557634e487b7160e01b600052603260045260246000fd5b60200260200101518152602001908152602001600020600082825461424a91906153e8565b909155506142599050816155de565b90506141d0565b505b6001600160a01b038416612b985760005b83518110156134e25782818151811061429c57634e487b7160e01b600052603260045260246000fd5b602002602001015160fb60008684815181106142c857634e487b7160e01b600052603260045260246000fd5b6020026020010151815260200190815260200160002060008282546142ed9190615511565b909155506142fc9050816155de565b9050614273565b61430c81613f76565b6040516001600160a01b038216907fbc7cd75a20ee27fd9adebab32041f755214dbc6bffa90cc0225b39da2e5c2d3b90600090a250565b606061434e836129da565b6143a95760405162461bcd60e51b815260206004820152602660248201527f416464726573733a2064656c65676174652063616c6c20746f206e6f6e2d636f6044820152651b9d1c9858dd60d21b6064820152608401610930565b600080846001600160a01b0316846040516143c49190614ef8565b600060405180830381855af49150503d80600081146143ff576040519150601f19603f3d011682016040523d82523d6000602084013e614404565b606091505b509150915061442c828260405180606001604052806027815260200161579c60279139614448565b95945050505050565b805161175e906067906020840190614505565b606083156144575750816111a0565b8251156144675782518084602001fd5b8160405162461bcd60e51b81526004016109309190615081565b82805461448d90615577565b90600052602060002090601f0160209004810192826144af57600085556144f5565b82601f106144c85782800160ff198235161785556144f5565b828001600101855582156144f5579182015b828111156144f55782358255916020019190600101906144da565b50614501929150614579565b5090565b82805461451190615577565b90600052602060002090601f01602090048101928261453357600085556144f5565b82601f1061454c57805160ff19168380011785556144f5565b828001600101855582156144f5579182015b828111156144f557825182559160200191906001019061455e565b5b80821115614501576000815560010161457a565b60006001600160401b038311156145a7576145a761562f565b6040516145be601f8501601f1916602001826155b2565b8091508381528484840111156145d357600080fd5b83836020830137600060208583010152509392505050565b80356001600160a01b0381168114610a1d57600080fd5b600082601f830112614612578081fd5b8135602061461f826153c5565b60405161462c82826155b2565b8381528281019150858301600585901b8701840188101561464b578586fd5b855b858110156146705761465e826145eb565b8452928401929084019060010161464d565b5090979650505050505050565b600082601f83011261468d578081fd5b8135602061469a826153c5565b6040516146a782826155b2565b8381528281019150858301600585901b870184018810156146c6578586fd5b855b85811015614670576146d982614771565b845292840192908401906001016146c8565b600082601f8301126146fb578081fd5b81356020614708826153c5565b60405161471582826155b2565b8381528281019150858301600585901b87018401881015614734578586fd5b855b8581101561467057813584529284019290840190600101614736565b600082601f830112614762578081fd5b6111a08383356020850161458e565b8035600d8110610a1d57600080fd5b60008083601f840112614791578182fd5b5081356001600160401b038111156147a7578182fd5b6020830191508360208285010111156147bf57600080fd5b9250929050565b6000602082840312156147d7578081fd5b6111a0826145eb565b600080604083850312156147f2578081fd5b6147fb836145eb565b9150614809602084016145eb565b90509250929050565b600080600080600060a08688031215614829578081fd5b614832866145eb565b9450614840602087016145eb565b935060408601356001600160401b038082111561485b578283fd5b61486789838a016146eb565b9450606088013591508082111561487c578283fd5b61488889838a016146eb565b9350608088013591508082111561489d578283fd5b506148aa88828901614752565b9150509295509295909350565b600080600080600060a086880312156148ce578081fd5b6148d7866145eb565b94506148e5602087016145eb565b9350604086013592506060860135915060808601356001600160401b0381111561490d578182fd5b6148aa88828901614752565b60008060006060848603121561492d578081fd5b614936846145eb565b925060208401356001600160401b0380821115614951578283fd5b61495d8783880161467d565b93506040860135915080821115614972578283fd5b5061497f8682870161467d565b9150509250925092565b60008060006060848603121561499d578081fd5b6149a6846145eb565b925060208401356001600160401b03808211156149c1578283fd5b6149cd878388016146eb565b935060408601359150808211156149e2578283fd5b5061497f868287016146eb565b60008060408385031215614a01578182fd5b614a0a836145eb565b915060208301358015158114614a1e578182fd5b809150509250929050565b60008060408385031215614a3b578182fd5b614a44836145eb565b915060208301356001600160401b03811115614a5e578182fd5b614a6a85828601614752565b9150509250929050565b60008060408385031215614a86578182fd5b614a8f836145eb565b946020939093013593505050565b600080600060608486031215614ab1578081fd5b614aba846145eb565b95602085013595506040909401359392505050565b60008060008060808587031215614ae4578182fd5b614aed856145eb565b9350602085013592506040850135915060608501356001600160401b03811115614b15578182fd5b614b2187828801614752565b91505092959194509250565b60008060408385031215614b3f578182fd5b82356001600160401b0380821115614b55578384fd5b614b6186838701614602565b93506020850135915080821115614b76578283fd5b50614a6a858286016146eb565b600080600060608486031215614b97578081fd5b83356001600160401b0380821115614bad578283fd5b614bb987838801614602565b9450602086013593506040860135915080821115614bd5578283fd5b5061497f86828701614752565b60008060408385031215614bf4578182fd5b82356001600160401b0380821115614c0a578384fd5b614c168683870161467d565b93506020850135915080821115614c2b578283fd5b50614a6a8582860161467d565b600060208284031215614c49578081fd5b5051919050565b600060208284031215614c61578081fd5b81356111a0816156e5565b600060208284031215614c7d578081fd5b81516111a0816156e5565b600060208284031215614c99578081fd5b6111a082614771565b60008060408385031215614cb4578182fd5b6147fb83614771565b600080600060608486031215614cd1578081fd5b614cda84614771565b9250614ce8602085016145eb565b9150604084013590509250925092565b60008060408385031215614d0a578182fd5b614a8f83614771565b60008060008060408587031215614d28578182fd5b84356001600160401b0380821115614d3e578384fd5b614d4a88838901614780565b90965094506020870135915080821115614d62578384fd5b50614d6f87828801614780565b95989497509550505050565b600060208284031215614d8c578081fd5b81356001600160401b03811115614da1578182fd5b8201601f81018413614db1578182fd5b6120e48482356020840161458e565b600060208284031215614dd1578081fd5b5035919050565b600080600060408486031215614dec578081fd5b8335925060208401356001600160401b03811115614e08578182fd5b614e1486828701614780565b9497909650939450505050565b60008060008060608587031215614e36578182fd5b8435935060208501356001600160401b03811115614e52578283fd5b614e5e87828801614780565b9598909750949560400135949350505050565b60008060408385031215614e83578182fd5b50508035926020909101359150565b6000815180845260208085019450808401835b83811015614ec157815187529582019590820190600101614ea5565b509495945050505050565b60008151808452614ee481602086016020860161554b565b601f01601f19169290920160200192915050565b60008251614f0a81846020870161554b565b9190910192915050565b7202ab735b737bbb7103937b632903a3cb8329d1606d1b815260008251614f4281601385016020870161554b565b9190910160130192915050565b6001600160a01b0386811682528516602082015260a060408201819052600090614f7b90830186614e92565b8281036060840152614f8d8186614e92565b90508281036080840152614fa18185614ecc565b98975050505050505050565b6001600160a01b03868116825285166020820152604081018490526060810183905260a060808201819052600090614fe790830184614ecc565b979650505050505050565b6020815260006111a06020830184614e92565b6040815260006150186040830185614e92565b828103602084015261442c8185614e92565b60208101600d831061504c57634e487b7160e01b600052602160045260246000fd5b91905290565b60208152816020820152818360408301376000818301604090810191909152601f909201601f19160101919050565b6020815260006111a06020830184614ecc565b60208082526028908201527f455243313135353a204552433131353552656365697665722072656a656374656040820152676420746f6b656e7360c01b606082015260800190565b60208082526024908201527f455243313135353a206275726e20616d6f756e7420657863656564732062616c604082015263616e636560e01b606082015260800190565b6020808252602c9082015260008051602061575c83398151915260408201526b19195b1959d85d1958d85b1b60a21b606082015260800190565b60208082526029908201527f455243313135353a2063616c6c6572206973206e6f74206f776e6572206e6f7260408201526808185c1c1c9bdd995960ba1b606082015260800190565b6020808252602c9082015260008051602061575c83398151915260408201526b6163746976652070726f787960a01b606082015260800190565b60208082526025908201527f455243313135353a207472616e7366657220746f20746865207a65726f206164604082015264647265737360d81b606082015260800190565b60208082526023908201527f455243313135353a206275726e2066726f6d20746865207a65726f206164647260408201526265737360e81b606082015260800190565b6020808252602a908201527f455243313135353a20696e73756666696369656e742062616c616e636520666f60408201526939103a3930b739b332b960b11b606082015260800190565b6020808252818101527f4f776e61626c653a2063616c6c6572206973206e6f7420746865206f776e6572604082015260600190565b6020808252602e908201527f4552432d3131353520456e756d657261626c653a20746f6b656e20696e64657860408201526d206f7574206f6620626f756e647360901b606082015260800190565b6020808252602b908201527f496e697469616c697a61626c653a20636f6e7472616374206973206e6f74206960408201526a6e697469616c697a696e6760a81b606082015260800190565b60208082526028908201527f455243313135353a2069647320616e6420616d6f756e7473206c656e677468206040820152670dad2e6dac2e8c6d60c31b606082015260800190565b60006001600160401b038211156153de576153de61562f565b5060051b60200190565b600082198211156153fb576153fb615619565b500190565b600181815b8085111561543b57816000190482111561542157615421615619565b8085161561542e57918102915b93841c9390800290615405565b509250929050565b60006111a060ff84168360008261545c5750600161095e565b816154695750600061095e565b816001811461547f5760028114615489576154a5565b600191505061095e565b60ff84111561549a5761549a615619565b50506001821b61095e565b5060208310610133831016604e8410600b84101617156154c8575081810a61095e565b6154d28383615400565b80600019048211156154e6576154e6615619565b029392505050565b600061ffff8381169083168181101561550957615509615619565b039392505050565b60008282101561552357615523615619565b500390565b600060ff821660ff84168082101561554257615542615619565b90039392505050565b60005b8381101561556657818101518382015260200161554e565b83811115610d755750506000910152565b600181811c9082168061558b57607f821691505b602082108114156155ac57634e487b7160e01b600052602260045260246000fd5b50919050565b601f8201601f191681016001600160401b03811182821017156155d7576155d761562f565b6040525050565b60006000198214156155f2576155f2615619565b5060010190565b600060ff821660ff81141561561057615610615619565b60010192915050565b634e487b7160e01b600052601160045260246000fd5b634e487b7160e01b600052604160045260246000fd5b600060033d1115611de857600481823e5160e01c90565b600060443d101561566a5790565b6040516003193d81016004833e81513d6001600160401b03808311602484018310171561569957505050505090565b82850191508151818111156156b15750505050505090565b843d87010160208285010111156156cb5750505050505090565b6156da602082860101876155b2565b509095945050505050565b6001600160e01b0319811681146116dc57600080fdfe4a39dc06d4c0dbc64b70af90fd698a233a518aa5d07e595d983b8c0526c8f7fbc3d58168c5ae7397731d063d5bbf3d657854427343f4c083240f7aacaa2d0f62a6f1ac7ad7b125ba5a5e1c96b00ad6914f90a503b1ac3d85a9dadbb4c639df9246756e6374696f6e206d7573742062652063616c6c6564207468726f75676820360894a13ba1a3210667c828492db98dca3e2076cc3735a920a3ca505d382bbc416464726573733a206c6f772d6c6576656c2064656c65676174652063616c6c206661696c6564a2646970667358221220a14abd4a091f26e78d81f6374520a96ded2d637cba054e320b23f7354734b7dd64736f6c63430008040033",
  "linkReferences": {},
  "deployedLinkReferences": {}
}