{
  "_format": "hh-sol-artifact-1",
  "contractName": "BulkDisbursableNFTs",
  "sourceName": "src/BulkDisbursableNFTs.sol",
  "abi": [
    {
      "inputs": [],
      "stateMutability": "nonpayable",
      "type": "constructor"
    },
    {
      "anonymous": false,
      "inputs": [
        {
          "indexed": false,
          "internalType": "address",
          "name": "previousAdmin",
          "type": "address"
        },
        {
          "indexed": false,
          "internalType": "address",
          "name": "newAdmin",
          "type": "address"
        }
      ],
      "name": "AdminChanged",
      "type": "event"
    },
    {
      "anonymous": false,
      "inputs": [
        {
          "indexed": true,
          "internalType": "address",
          "name": "account",
          "type": "address"
        },
        {
          "indexed": true,
          "internalType": "address",
          "name": "operator",
          "type": "address"
        },
        {
          "indexed": false,
          "internalType": "bool",
          "name": "approved",
          "type": "bool"
        }
      ],
      "name": "ApprovalForAll",
      "type": "event"
    },
    {
      "anonymous": false,
      "inputs": [
        {
          "indexed": true,
          "internalType": "address",
          "name": "beacon",
          "type": "address"
        }
      ],
      "name": "BeaconUpgraded",
      "type": "event"
    },
    {
      "anonymous": false,
      "inputs": [
        {
          "indexed": false,
          "internalType": "uint256",
          "name": "id",
          "type": "uint256"
        },
        {
          "indexed": false,
          "internalType": "address",
          "name": "controller",
          "type": "address"
        }
      ],
      "name": "Created",
      "type": "event"
    },
    {
      "anonymous": false,
      "inputs": [
        {
          "indexed": false,
          "internalType": "uint8",
          "name": "version",
          "type": "uint8"
        }
      ],
      "name": "Initialized",
      "type": "event"
    },
    {
      "anonymous": false,
      "inputs": [
        {
          "indexed": true,
          "internalType": "address",
          "name": "previousOwner",
          "type": "address"
        },
        {
          "indexed": true,
          "internalType": "address",
          "name": "newOwner",
          "type": "address"
        }
      ],
      "name": "OwnershipTransferred",
      "type": "event"
    },
    {
      "anonymous": false,
      "inputs": [
        {
          "indexed": true,
          "internalType": "address",
          "name": "operator",
          "type": "address"
        },
        {
          "indexed": true,
          "internalType": "address",
          "name": "from",
          "type": "address"
        },
        {
          "indexed": true,
          "internalType": "address",
          "name": "to",
          "type": "address"
        },
        {
          "indexed": false,
          "internalType": "uint256[]",
          "name": "ids",
          "type": "uint256[]"
        },
        {
          "indexed": false,
          "internalType": "uint256[]",
          "name": "values",
          "type": "uint256[]"
        }
      ],
      "name": "TransferBatch",
      "type": "event"
    },
    {
      "anonymous": false,
      "inputs": [
        {
          "indexed": true,
          "internalType": "address",
          "name": "operator",
          "type": "address"
        },
        {
          "indexed": true,
          "internalType": "address",
          "name": "from",
          "type": "address"
        },
        {
          "indexed": true,
          "internalType": "address",
          "name": "to",
          "type": "address"
        },
        {
          "indexed": false,
          "internalType": "uint256",
          "name": "id",
          "type": "uint256"
        },
        {
          "indexed": false,
          "internalType": "uint256",
          "name": "value",
          "type": "uint256"
        }
      ],
      "name": "TransferSingle",
      "type": "event"
    },
    {
      "anonymous": false,
      "inputs": [
        {
          "indexed": false,
          "internalType": "string",
          "name": "value",
          "type": "string"
        },
        {
          "indexed": true,
          "internalType": "uint256",
          "name": "id",
          "type": "uint256"
        }
      ],
      "name": "URI",
      "type": "event"
    },
    {
      "anonymous": false,
      "inputs": [
        {
          "indexed": true,
          "internalType": "address",
          "name": "implementation",
          "type": "address"
        }
      ],
      "name": "Upgraded",
      "type": "event"
    },
    {
      "inputs": [
        {
          "internalType": "address",
          "name": "account",
          "type": "address"
        },
        {
          "internalType": "uint256",
          "name": "id",
          "type": "uint256"
        }
      ],
      "name": "balanceOf",
      "outputs": [
        {
          "internalType": "uint256",
          "name": "",
          "type": "uint256"
        }
      ],
      "stateMutability": "view",
      "type": "function"
    },
    {
      "inputs": [
        {
          "internalType": "address[]",
          "name": "accounts",
          "type": "address[]"
        },
        {
          "internalType": "uint256[]",
          "name": "ids",
          "type": "uint256[]"
        }
      ],
      "name": "balanceOfBatch",
      "outputs": [
        {
          "internalType": "uint256[]",
          "name": "",
          "type": "uint256[]"
        }
      ],
      "stateMutability": "view",
      "type": "function"
    },
    {
      "inputs": [
        {
          "internalType": "address",
          "name": "owner",
          "type": "address"
        },
        {
          "internalType": "uint256",
          "name": "id",
          "type": "uint256"
        },
        {
          "internalType": "uint256",
          "name": "quantity",
          "type": "uint256"
        }
      ],
      "name": "burn",
      "outputs": [],
      "stateMutability": "nonpayable",
      "type": "function"
    },
    {
      "inputs": [
        {
          "internalType": "address",
          "name": "account",
          "type": "address"
        },
        {
          "internalType": "uint256[]",
          "name": "ids",
          "type": "uint256[]"
        },
        {
          "internalType": "uint256[]",
          "name": "values",
          "type": "uint256[]"
        }
      ],
      "name": "burnBatch",
      "outputs": [],
      "stateMutability": "nonpayable",
      "type": "function"
    },
    {
      "inputs": [
        {
          "internalType": "enum Roles.Role[]",
          "name": "grants",
          "type": "uint8[]"
        },
        {
          "internalType": "enum Roles.Role[]",
          "name": "disables",
          "type": "uint8[]"
        }
      ],
      "name": "create",
      "outputs": [
        {
          "internalType": "uint256",
          "name": "id",
          "type": "uint256"
        }
      ],
      "stateMutability": "nonpayable",
      "type": "function"
    },
    {
      "inputs": [
        {
          "internalType": "address",
          "name": "maintainer",
          "type": "address"
        },
        {
          "internalType": "enum Roles.Role[]",
          "name": "grants",
          "type": "uint8[]"
        },
        {
          "internalType": "enum Roles.Role[]",
          "name": "disables",
          "type": "uint8[]"
        }
      ],
      "name": "create",
      "outputs": [
        {
          "internalType": "uint256",
          "name": "id",
          "type": "uint256"
        }
      ],
      "stateMutability": "nonpayable",
      "type": "function"
    },
    {
      "inputs": [],
      "name": "create",
      "outputs": [
        {
          "internalType": "uint256",
          "name": "id",
          "type": "uint256"
        }
      ],
      "stateMutability": "nonpayable",
      "type": "function"
    },
    {
      "inputs": [
        {
          "internalType": "enum Roles.Role",
          "name": "toDisable",
          "type": "uint8"
        },
        {
          "internalType": "uint256",
          "name": "disablingIndex",
          "type": "uint256"
        }
      ],
      "name": "disableRole",
      "outputs": [],
      "stateMutability": "nonpayable",
      "type": "function"
    },
    {
      "inputs": [
        {
          "internalType": "uint256",
          "name": "id",
          "type": "uint256"
        }
      ],
      "name": "exists",
      "outputs": [
        {
          "internalType": "bool",
          "name": "",
          "type": "bool"
        }
      ],
      "stateMutability": "view",
      "type": "function"
    },
    {
      "inputs": [
        {
          "internalType": "enum Roles.Role",
          "name": "role",
          "type": "uint8"
        },
        {
          "internalType": "address",
          "name": "user",
          "type": "address"
        },
        {
          "internalType": "uint256",
          "name": "index",
          "type": "uint256"
        }
      ],
      "name": "gateToken",
      "outputs": [
        {
          "internalType": "uint256",
          "name": "id",
          "type": "uint256"
        }
      ],
      "stateMutability": "view",
      "type": "function"
    },
    {
      "inputs": [
        {
          "internalType": "uint256",
          "name": "id",
          "type": "uint256"
        }
      ],
      "name": "getMax",
      "outputs": [
        {
          "internalType": "int64",
          "name": "max",
          "type": "int64"
        }
      ],
      "stateMutability": "view",
      "type": "function"
    },
    {
      "inputs": [
        {
          "internalType": "uint256",
          "name": "id",
          "type": "uint256"
        }
      ],
      "name": "getPerUserMax",
      "outputs": [
        {
          "internalType": "int256",
          "name": "max",
          "type": "int256"
        }
      ],
      "stateMutability": "view",
      "type": "function"
    },
    {
      "inputs": [
        {
          "internalType": "enum Roles.Role",
          "name": "role",
          "type": "uint8"
        },
        {
          "internalType": "address",
          "name": "user",
          "type": "address"
        },
        {
          "internalType": "uint256",
          "name": "id",
          "type": "uint256"
        },
        {
          "internalType": "bool",
          "name": "singleUse",
          "type": "bool"
        }
      ],
      "name": "grantRole",
      "outputs": [],
      "stateMutability": "nonpayable",
      "type": "function"
    },
    {
      "inputs": [
        {
          "internalType": "enum Roles.Role",
          "name": "role",
          "type": "uint8"
        },
        {
          "internalType": "address",
          "name": "user",
          "type": "address"
        }
      ],
      "name": "grantRole",
      "outputs": [],
      "stateMutability": "nonpayable",
      "type": "function"
    },
    {
      "inputs": [
        {
          "internalType": "enum Roles.Role",
          "name": "role",
          "type": "uint8"
        },
        {
          "internalType": "address",
          "name": "user",
          "type": "address"
        },
        {
          "internalType": "bool",
          "name": "singleUse",
          "type": "bool"
        }
      ],
      "name": "grantRole",
      "outputs": [],
      "stateMutability": "nonpayable",
      "type": "function"
    },
    {
      "inputs": [
        {
          "internalType": "enum Roles.Role",
          "name": "role",
          "type": "uint8"
        },
        {
          "internalType": "address",
          "name": "user",
          "type": "address"
        },
        {
          "internalType": "uint256",
          "name": "id",
          "type": "uint256"
        }
      ],
      "name": "grantRole",
      "outputs": [],
      "stateMutability": "nonpayable",
      "type": "function"
    },
    {
      "inputs": [
        {
          "internalType": "enum Roles.Role",
          "name": "role",
          "type": "uint8"
        }
      ],
      "name": "hasRole",
      "outputs": [
        {
          "internalType": "bool",
          "name": "has",
          "type": "bool"
        }
      ],
      "stateMutability": "view",
      "type": "function"
    },
    {
      "inputs": [
        {
          "internalType": "enum Roles.Role",
          "name": "role",
          "type": "uint8"
        },
        {
          "internalType": "address",
          "name": "user",
          "type": "address"
        },
        {
          "internalType": "uint256",
          "name": "id",
          "type": "uint256"
        }
      ],
      "name": "hasRole",
      "outputs": [
        {
          "internalType": "bool",
          "name": "has",
          "type": "bool"
        }
      ],
      "stateMutability": "view",
      "type": "function"
    },
    {
      "inputs": [
        {
          "internalType": "enum Roles.Role",
          "name": "role",
          "type": "uint8"
        },
        {
          "internalType": "uint256",
          "name": "id",
          "type": "uint256"
        }
      ],
      "name": "hasRole",
      "outputs": [
        {
          "internalType": "bool",
          "name": "has",
          "type": "bool"
        }
      ],
      "stateMutability": "view",
      "type": "function"
    },
    {
      "inputs": [
        {
          "internalType": "enum Roles.Role",
          "name": "role",
          "type": "uint8"
        },
        {
          "internalType": "address",
          "name": "user",
          "type": "address"
        }
      ],
      "name": "hasRole",
      "outputs": [
        {
          "internalType": "bool",
          "name": "has",
          "type": "bool"
        }
      ],
      "stateMutability": "view",
      "type": "function"
    },
    {
      "inputs": [
        {
          "internalType": "string",
          "name": "_name",
          "type": "string"
        },
        {
          "internalType": "string",
          "name": "_symbol",
          "type": "string"
        }
      ],
      "name": "initialize",
      "outputs": [],
      "stateMutability": "nonpayable",
      "type": "function"
    },
    {
      "inputs": [
        {
          "internalType": "uint256",
          "name": "",
          "type": "uint256"
        }
      ],
      "name": "intValues",
      "outputs": [
        {
          "internalType": "int256",
          "name": "",
          "type": "int256"
        }
      ],
      "stateMutability": "view",
      "type": "function"
    },
    {
      "inputs": [
        {
          "internalType": "address",
          "name": "account",
          "type": "address"
        },
        {
          "internalType": "address",
          "name": "operator",
          "type": "address"
        }
      ],
      "name": "isApprovedForAll",
      "outputs": [
        {
          "internalType": "bool",
          "name": "",
          "type": "bool"
        }
      ],
      "stateMutability": "view",
      "type": "function"
    },
    {
      "inputs": [
        {
          "internalType": "uint256",
          "name": "tokenId",
          "type": "uint256"
        }
      ],
      "name": "isSuper",
      "outputs": [
        {
          "internalType": "bool",
          "name": "superuser",
          "type": "bool"
        }
      ],
      "stateMutability": "view",
      "type": "function"
    },
    {
      "inputs": [
        {
          "internalType": "address",
          "name": "user",
          "type": "address"
        },
        {
          "internalType": "uint256",
          "name": "tokenId",
          "type": "uint256"
        }
      ],
      "name": "isSuper",
      "outputs": [
        {
          "internalType": "bool",
          "name": "superuser",
          "type": "bool"
        }
      ],
      "stateMutability": "view",
      "type": "function"
    },
    {
      "inputs": [
        {
          "internalType": "address",
          "name": "user",
          "type": "address"
        }
      ],
      "name": "isSuper",
      "outputs": [
        {
          "internalType": "bool",
          "name": "superuser",
          "type": "bool"
        }
      ],
      "stateMutability": "view",
      "type": "function"
    },
    {
      "inputs": [],
      "name": "isSuper",
      "outputs": [
        {
          "internalType": "bool",
          "name": "superuser",
          "type": "bool"
        }
      ],
      "stateMutability": "view",
      "type": "function"
    },
    {
      "inputs": [
        {
          "internalType": "address[]",
          "name": "to",
          "type": "address[]"
        },
        {
          "internalType": "uint256",
          "name": "id",
          "type": "uint256"
        },
        {
          "internalType": "bytes",
          "name": "data",
          "type": "bytes"
        }
      ],
      "name": "mint",
      "outputs": [],
      "stateMutability": "nonpayable",
      "type": "function"
    },
    {
      "inputs": [
        {
          "internalType": "address",
          "name": "recipient",
          "type": "address"
        },
        {
          "internalType": "uint256",
          "name": "id",
          "type": "uint256"
        },
        {
          "internalType": "uint256",
          "name": "amount",
          "type": "uint256"
        },
        {
          "internalType": "bytes",
          "name": "data",
          "type": "bytes"
        }
      ],
      "name": "mint",
      "outputs": [
        {
          "internalType": "bool",
          "name": "minted",
          "type": "bool"
        }
      ],
      "stateMutability": "nonpayable",
      "type": "function"
    },
    {
      "inputs": [],
      "name": "name",
      "outputs": [
        {
          "internalType": "string",
          "name": "",
          "type": "string"
        }
      ],
      "stateMutability": "view",
      "type": "function"
    },
    {
      "inputs": [],
      "name": "owner",
      "outputs": [
        {
          "internalType": "address",
          "name": "",
          "type": "address"
        }
      ],
      "stateMutability": "view",
      "type": "function"
    },
    {
      "inputs": [],
      "name": "proxiableUUID",
      "outputs": [
        {
          "internalType": "bytes32",
          "name": "",
          "type": "bytes32"
        }
      ],
      "stateMutability": "view",
      "type": "function"
    },
    {
      "inputs": [],
      "name": "renounceOwnership",
      "outputs": [],
      "stateMutability": "nonpayable",
      "type": "function"
    },
    {
      "inputs": [
        {
          "internalType": "enum Roles.Role",
          "name": "role",
          "type": "uint8"
        }
      ],
      "name": "roleToken",
      "outputs": [
        {
          "internalType": "uint256",
          "name": "id",
          "type": "uint256"
        }
      ],
      "stateMutability": "view",
      "type": "function"
    },
    {
      "inputs": [
        {
          "internalType": "enum Roles.Role",
          "name": "role",
          "type": "uint8"
        },
        {
          "internalType": "uint256",
          "name": "index",
          "type": "uint256"
        }
      ],
      "name": "roleToken",
      "outputs": [
        {
          "internalType": "uint256",
          "name": "id",
          "type": "uint256"
        }
      ],
      "stateMutability": "view",
      "type": "function"
    },
    {
      "inputs": [
        {
          "internalType": "address",
          "name": "from",
          "type": "address"
        },
        {
          "internalType": "address",
          "name": "to",
          "type": "address"
        },
        {
          "internalType": "uint256[]",
          "name": "ids",
          "type": "uint256[]"
        },
        {
          "internalType": "uint256[]",
          "name": "amounts",
          "type": "uint256[]"
        },
        {
          "internalType": "bytes",
          "name": "data",
          "type": "bytes"
        }
      ],
      "name": "safeBatchTransferFrom",
      "outputs": [],
      "stateMutability": "nonpayable",
      "type": "function"
    },
    {
      "inputs": [
        {
          "internalType": "address",
          "name": "from",
          "type": "address"
        },
        {
          "internalType": "address",
          "name": "to",
          "type": "address"
        },
        {
          "internalType": "uint256",
          "name": "id",
          "type": "uint256"
        },
        {
          "internalType": "uint256",
          "name": "amount",
          "type": "uint256"
        },
        {
          "internalType": "bytes",
          "name": "data",
          "type": "bytes"
        }
      ],
      "name": "safeTransferFrom",
      "outputs": [],
      "stateMutability": "nonpayable",
      "type": "function"
    },
    {
      "inputs": [
        {
          "internalType": "address",
          "name": "operator",
          "type": "address"
        },
        {
          "internalType": "bool",
          "name": "approved",
          "type": "bool"
        }
      ],
      "name": "setApprovalForAll",
      "outputs": [],
      "stateMutability": "nonpayable",
      "type": "function"
    },
    {
      "inputs": [
        {
          "internalType": "string",
          "name": "_name",
          "type": "string"
        },
        {
          "internalType": "string",
          "name": "_symbol",
          "type": "string"
        }
      ],
      "name": "setDescription",
      "outputs": [],
      "stateMutability": "nonpayable",
      "type": "function"
    },
    {
      "inputs": [
        {
          "internalType": "uint256",
          "name": "id",
          "type": "uint256"
        },
        {
          "internalType": "int64",
          "name": "max",
          "type": "int64"
        }
      ],
      "name": "setMax",
      "outputs": [],
      "stateMutability": "nonpayable",
      "type": "function"
    },
    {
      "inputs": [
        {
          "internalType": "uint256",
          "name": "id",
          "type": "uint256"
        },
        {
          "internalType": "int64",
          "name": "max",
          "type": "int64"
        }
      ],
      "name": "setPerUserMax",
      "outputs": [],
      "stateMutability": "nonpayable",
      "type": "function"
    },
    {
      "inputs": [
        {
          "internalType": "uint256",
          "name": "id",
          "type": "uint256"
        },
        {
          "internalType": "string",
          "name": "newURI",
          "type": "string"
        }
      ],
      "name": "setURI",
      "outputs": [],
      "stateMutability": "nonpayable",
      "type": "function"
    },
    {
      "inputs": [
        {
          "internalType": "bytes4",
          "name": "interfaceId",
          "type": "bytes4"
        }
      ],
      "name": "supportsInterface",
      "outputs": [
        {
          "internalType": "bool",
          "name": "",
          "type": "bool"
        }
      ],
      "stateMutability": "view",
      "type": "function"
    },
    {
      "inputs": [],
      "name": "symbol",
      "outputs": [
        {
          "internalType": "string",
          "name": "",
          "type": "string"
        }
      ],
      "stateMutability": "view",
      "type": "function"
    },
    {
      "inputs": [
        {
          "internalType": "uint256",
          "name": "index",
          "type": "uint256"
        }
      ],
      "name": "tokenByIndex",
      "outputs": [
        {
          "internalType": "uint256",
          "name": "id",
          "type": "uint256"
        }
      ],
      "stateMutability": "view",
      "type": "function"
    },
    {
      "inputs": [
        {
          "internalType": "uint256",
          "name": "id",
          "type": "uint256"
        }
      ],
      "name": "tokenIndex",
      "outputs": [
        {
          "internalType": "uint256",
          "name": "index",
          "type": "uint256"
        }
      ],
      "stateMutability": "view",
      "type": "function"
    },
    {
      "inputs": [
        {
          "internalType": "address",
          "name": "owner",
          "type": "address"
        },
        {
          "internalType": "uint256",
          "name": "index",
          "type": "uint256"
        }
      ],
      "name": "tokenOfOwnerByIndex",
      "outputs": [
        {
          "internalType": "uint256",
          "name": "id",
          "type": "uint256"
        }
      ],
      "stateMutability": "view",
      "type": "function"
    },
    {
      "inputs": [
        {
          "internalType": "uint256",
          "name": "id",
          "type": "uint256"
        }
      ],
      "name": "totalSupply",
      "outputs": [
        {
          "internalType": "uint256",
          "name": "",
          "type": "uint256"
        }
      ],
      "stateMutability": "view",
      "type": "function"
    },
    {
      "inputs": [
        {
          "internalType": "address",
          "name": "newOwner",
          "type": "address"
        }
      ],
      "name": "transferOwnership",
      "outputs": [],
      "stateMutability": "nonpayable",
      "type": "function"
    },
    {
      "inputs": [],
      "name": "typeSupply",
      "outputs": [
        {
          "internalType": "uint256",
          "name": "count",
          "type": "uint256"
        }
      ],
      "stateMutability": "view",
      "type": "function"
    },
    {
      "inputs": [
        {
          "internalType": "uint256",
          "name": "",
          "type": "uint256"
        }
      ],
      "name": "uintValues",
      "outputs": [
        {
          "internalType": "uint256",
          "name": "",
          "type": "uint256"
        }
      ],
      "stateMutability": "view",
      "type": "function"
    },
    {
      "inputs": [
        {
          "internalType": "address",
          "name": "newImplementation",
          "type": "address"
        }
      ],
      "name": "upgradeTo",
      "outputs": [],
      "stateMutability": "nonpayable",
      "type": "function"
    },
    {
      "inputs": [
        {
          "internalType": "address",
          "name": "newImplementation",
          "type": "address"
        },
        {
          "internalType": "bytes",
          "name": "data",
          "type": "bytes"
        }
      ],
      "name": "upgradeToAndCall",
      "outputs": [],
      "stateMutability": "payable",
      "type": "function"
    },
    {
      "inputs": [
        {
          "internalType": "uint256",
          "name": "id",
          "type": "uint256"
        }
      ],
      "name": "uri",
      "outputs": [
        {
          "internalType": "string",
          "name": "metadata",
          "type": "string"
        }
      ],
      "stateMutability": "view",
      "type": "function"
    }
  ],
  "bytecode": "0x60a0604052306080523480156200001557600080fd5b50600054610100900460ff1615808015620000375750600054600160ff909116105b80620000535750303b15801562000053575060005460ff166001145b620000bb5760405162461bcd60e51b815260206004820152602e60248201527f496e697469616c697a61626c653a20636f6e747261637420697320616c72656160448201526d191e481a5b9a5d1a585b1a5e995960921b606482015260840160405180910390fd5b6000805460ff191660011790558015620000df576000805461ff0019166101001790555b801562000126576000805461ff0019169055604051600181527f7f26b83ff96e1f2b6a682f133852f6798a09c465da95921460cefb38474024989060200160405180910390a15b506080516155596200015f600039600081816113d501528181611415015281816118f8015281816119380152611a7101526155596000f3fe6080604052600436106102645760003560e01c8062fdd58e1461026957806301ffc9a71461029c5780630583e9f8146102cc57806306fdde03146102ec5780630e89341c1461030e5780630ec0370f1461032e5780631130d4a11461035057806311ef04c41461037057806314c464271461039057806316730ab0146103b057806319e0755c146103d05780631da345ae146103f05780632eb2c2d6146104105780632f745c59146104305780633659cfe6146104505780633dbe35de146104705780634468031f1461049057806348289589146104b05780634a80070f146104d05780634cd88b76146104f05780634e1273f4146105105780634f1ef2861461053d5780634f558e79146105505780634f6ccce71461057057806352d1902d14610590578063573b9d31146105a55780635d5664e1146105c55780636755d456146105e55780636b20c45414610605578063715018a614610625578063731133e91461063a5780637b59c72a1461065a578063862440e21461067a5780638da5cb5b1461069a57806395d89b41146106c75780639d969a9c146106dc5780639e97b8f6146106f1578063a22cb46514610711578063aa8e906614610731578063b0bdf26114610751578063b383489a14610771578063ba26d0b71461079f578063bd85b039146107bf578063c3c8df99146107df578063c4096525146107ff578063d945e78b1461081f578063e688f89d1461084d578063e985e9c514610880578063edc79bac146108c9578063efc81a8c146108de578063f242432a146108f3578063f2fde38b14610913578063f5298aca14610933578063fde4047a14610953575b600080fd5b34801561027557600080fd5b506102896102843660046140d9565b610973565b6040519081526020015b60405180910390f35b3480156102a857600080fd5b506102bc6102b7366004614119565b610a0e565b6040519015158152602001610293565b3480156102d857600080fd5b506102896102e7366004614136565b610a5e565b3480156102f857600080fd5b50610301610acf565b604051610293919061419f565b34801561031a57600080fd5b50610301610329366004614136565b610b5e565b34801561033a57600080fd5b5061034e610349366004614307565b610e7c565b005b34801561035c57600080fd5b5061034e61036b366004614373565b610ebd565b34801561037c57600080fd5b5061034e61038b366004614373565b610f02565b34801561039c57600080fd5b506102896103ab3660046143b8565b610f12565b3480156103bc57600080fd5b506102896103cb3660046143d3565b610f1f565b3480156103dc57600080fd5b506102bc6103eb3660046143b8565b6112f1565b3480156103fc57600080fd5b506102bc61040b366004614136565b6112fd565b34801561041c57600080fd5b5061034e61042b36600461447a565b611309565b34801561043c57600080fd5b5061028961044b3660046140d9565b611355565b34801561045c57600080fd5b5061034e61046b366004614523565b6113cb565b34801561047c57600080fd5b5061028961048b36600461453e565b611493565b34801561049c57600080fd5b506102bc6104ab3660046143d3565b6115ee565b3480156104bc57600080fd5b506102bc6104cb36600461453e565b611615565b3480156104dc57600080fd5b506102896104eb3660046145cc565b611622565b3480156104fc57600080fd5b5061034e61050b366004614677565b61162f565b34801561051c57600080fd5b5061053061052b3660046146e2565b6117cd565b6040516102939190614777565b61034e61054b36600461478a565b6118ee565b34801561055c57600080fd5b506102bc61056b366004614136565b6119a3565b34801561057c57600080fd5b5061028961058b366004614136565b6119b6565b34801561059c57600080fd5b50610289611a64565b3480156105b157600080fd5b5061034e6105c03660046147dd565b611b13565b3480156105d157600080fd5b5061034e6105e036600461482a565b611b37565b3480156105f157600080fd5b5061034e610600366004614677565b611b44565b34801561061157600080fd5b5061034e61062036600461485d565b611b69565b34801561063157600080fd5b5061034e611bb1565b34801561064657600080fd5b506102bc6106553660046148c6565b611bc5565b34801561066657600080fd5b5061034e610675366004614926565b611c8f565b34801561068657600080fd5b5061034e610695366004614969565b611c9c565b3480156106a657600080fd5b506106af611d79565b6040516001600160a01b039091168152602001610293565b3480156106d357600080fd5b50610301611d88565b3480156106e857600080fd5b50610289611d96565b3480156106fd57600080fd5b506102bc61070c36600461482a565b611dae565b34801561071d57600080fd5b5061034e61072c3660046149b4565b611dbc565b34801561073d57600080fd5b5061034e61074c3660046143d3565b611dc7565b34801561075d57600080fd5b5061028961076c3660046149de565b611dd4565b34801561077d57600080fd5b5061028961078c366004614136565b61019a6020526000908152604090205481565b3480156107ab57600080fd5b506102bc6107ba3660046140d9565b61201a565b3480156107cb57600080fd5b506102896107da366004614136565b612051565b3480156107eb57600080fd5b506102bc6107fa366004614523565b612063565b34801561080b57600080fd5b5061028961081a366004614136565b612070565b34801561082b57600080fd5b5061028961083a366004614136565b61019b6020526000908152604090205481565b34801561085957600080fd5b5061086d610868366004614136565b6120b1565b60405160079190910b8152602001610293565b34801561088c57600080fd5b506102bc61089b366004614a47565b6001600160a01b03918216600090815260666020908152604080832093909416825291909152205460ff1690565b3480156108d557600080fd5b506102bc6120c5565b3480156108ea57600080fd5b506102896120d2565b3480156108ff57600080fd5b5061034e61090e366004614a63565b6120f3565b34801561091f57600080fd5b5061034e61092e366004614523565b612138565b34801561093f57600080fd5b5061034e61094e366004614ac7565b6121ae565b34801561095f57600080fd5b5061034e61096e36600461453e565b612239565b60006001600160a01b0383166109e35760405162461bcd60e51b815260206004820152602a60248201527f455243313135353a2061646472657373207a65726f206973206e6f742061207660448201526930b634b21037bbb732b960b11b60648201526084015b60405180910390fd5b5060008181526065602090815260408083206001600160a01b03861684529091529020545b92915050565b60006001600160e01b03198216636cdb3d1360e11b1480610a3f57506001600160e01b031982166303a24d0760e21b145b80610a0857506301ffc9a760e01b6001600160e01b0319831614610a08565b6000818152610195602052604081205490819003610aca5760405162461bcd60e51b815260206004820152602360248201527f5468652072657175657374656420746f6b656e20646f6573206e6f742065786960448201526239ba1760e91b60648201526084016109da565b919050565b6101918054610add90614afa565b80601f0160208091040260200160405190810160405280929190818152602001828054610b0990614afa565b8015610b565780601f10610b2b57610100808354040283529160200191610b56565b820191906000526020600020905b815481529060010190602001808311610b3957829003601f168201915b505050505081565b600081815261019360205260409020805460609190610b7c90614afa565b80601f0160208091040260200160405190810160405280929190818152602001828054610ba890614afa565b8015610bf55780601f10610bca57610100808354040283529160200191610bf5565b820191906000526020600020905b815481529060010190602001808311610bd857829003601f168201915b505050505090508051600003610aca5760006008610c16600d610100614b44565b610c209190614b66565b60ff166001610c3160086002614c63565b610c3b9190614c72565b901b831690506008610c50600d610100614b44565b610c5a9190614b66565b60ff166001901b811480610caf57506008610c78600d610100614b44565b610c829190614b66565b600a60ff919091161b6008610c9a600d610100614b44565b610ca49190614b66565b60ff166001901b1781145b15610e765760006008610cc5600d610100614b44565b610ccf9190614b66565b600160ff919091161b6008610ce7600d610100614b44565b610cf19190614b66565b60ff166001610d0260086002614c63565b610d0c9190614c72565b901b19600160088160038083610d25600d610100614b44565b610d2f9190614b66565b610d399190614b66565b610d439190614b66565b610d4d9190614b66565b610d579190614b66565b610d619190614b66565b60ff166001610d71816002614c63565b610d7b9190614c72565b901b6003806008610d8f600d610100614b44565b610d999190614b66565b610da39190614b66565b610dad9190614b66565b60ff166001901b1719600160206002610dc69190614c63565b610dd09190614c72565b191616851617600081815261019360205260409020805491925090610df490614afa565b80601f0160208091040260200160405190810160405280929190818152602001828054610e2090614afa565b8015610e6d5780601f10610e4257610100808354040283529160200191610e6d565b820191906000526020600020905b815481529060010190602001808311610e5057829003601f168201915b50505050509250505b50919050565b60005b8351811015610eb757610eae848281518110610e9d57610e9d614c85565b602002602001015184600185611bc5565b50600101610e7f565b50505050565b600082604051602001610ed09190614c9b565b60408051601f198184030181529181528151602092830120600090815261019b909252902060079290920b9091555050565b610f0e828260006122a4565b5050565b6000610a08826000611493565b600080610f2b85610f12565b90506000836008610f3f600d610100614b44565b610f499190614b66565b600a60ff919091161b8317176000818152610195602052604090205490915015610f765791506112ea9050565b6000604051806101000160405280866001600860016003806008600d60ff16610100610fa29190614b44565b610fac9190614b66565b610fb69190614b66565b610fc09190614b66565b610fca9190614b66565b610fd49190614b66565b610fde9190614b66565b60ff166001610fee816002614c63565b610ff89190614c72565b901b600380600861100c600d610100614b44565b6110169190614b66565b6110209190614b66565b61102a9190614b66565b600160ff919091161b87171717815260200186600380600861104f600d610100614b44565b6110599190614b66565b6110639190614b66565b61106d9190614b66565b60ff166001901b86171781526020016001600860016003806008600d60ff166101006110999190614b44565b6110a39190614b66565b6110ad9190614b66565b6110b79190614b66565b6110c19190614b66565b6110cb9190614b66565b6110d59190614b66565b60ff1660016110e5816002614c63565b6110ef9190614c72565b901b6003806008611103600d610100614b44565b61110d9190614b66565b6111179190614b66565b6111219190614b66565b600160ff919091161b86171781526020016003806008611144600d610100614b44565b61114e9190614b66565b6111589190614b66565b6111629190614b66565b60ff166001901b85178152602001866001600860016003806008600d60ff1661010061118e9190614b44565b6111989190614b66565b6111a29190614b66565b6111ac9190614b66565b6111b69190614b66565b6111c09190614b66565b6111ca9190614b66565b60ff1660016111da816002614c63565b6111e49190614c72565b901b8617178152602001600160088160038083611204600d610100614b44565b61120e9190614b66565b6112189190614b66565b6112229190614b66565b61122c9190614b66565b6112369190614b66565b6112409190614b66565b60ff166001611250816002614c63565b61125a9190614c72565b901b851781528685176020820152604001849052905060005b60088160ff1610156112e15760006112a488848460ff166008811061129a5761129a614c85565b6020020151610973565b11156112cf57818160ff16600881106112bf576112bf614c85565b60200201519450505050506112ea565b806112d981614cbb565b915050611273565b50600093505050505b9392505050565b6000610a088233611dae565b6000610a08338361201a565b6001600160a01b0385163314806113255750611325853361089b565b6113415760405162461bcd60e51b81526004016109da90614cda565b61134e858585858561236f565b5050505050565b6001600160a01b03821660009081526101986020526040812054821061138d5760405162461bcd60e51b81526004016109da90614d28565b6001600160a01b0383166000908152610198602052604090208054839081106113b8576113b8614c85565b9060005260206000200154905092915050565b6001600160a01b037f00000000000000000000000000000000000000000000000000000000000000001630036114135760405162461bcd60e51b81526004016109da90614d76565b7f00000000000000000000000000000000000000000000000000000000000000006001600160a01b0316611445612503565b6001600160a01b03161461146b5760405162461bcd60e51b81526004016109da90614db0565b6114748161251f565b60408051600080825260208201909252611490918391906125a5565b50565b60006114a160206002614c63565b82106114ad6020612710565b6040516020016114bd9190614dea565b604051602081830303815290604052906114ea5760405162461bcd60e51b81526004016109da919061419f565b5081600184600c81111561150057611500614e39565b1461150c576000611565565b60016003806008611520600d610100614b44565b61152a9190614b66565b6115349190614b66565b61153e9190614b66565b6115489190614b66565b60ff166001611558816002614c63565b6115629190614c72565b901b5b600860016003808361157a600d610100614b44565b6115849190614b66565b61158e9190614b66565b6115989190614b66565b6115a29190614b66565b6115ac9190614b66565b60ff1685600c8111156115c1576115c1614e39565b901b60086115d2600d610100614b44565b6115dc9190614b66565b60ff166001901b171717905092915050565b6000818152610195602052604081205461160b9085908590610f1f565b1515949350505050565b60006112ea8333846115ee565b60006112ea338484611dd4565b600054610100900460ff161580801561164f5750600054600160ff909116105b80611670575061165e306127a2565b158015611670575060005460ff166001145b6116d35760405162461bcd60e51b815260206004820152602e60248201527f496e697469616c697a61626c653a20636f6e747261637420697320616c72656160448201526d191e481a5b9a5d1a585b1a5e995960921b60648201526084016109da565b6000805460ff1916600117905580156116f6576000805461ff0019166101001790555b6116fe6127b1565b61173c6040518060400160405280602081526020017f4572726f723a2053696e676c6520546f6b656e20555249204e6f7420557365648152506127e0565b611744612810565b61174c612810565b611754612810565b6101948054600181018255600091825260008051602061549d833981519152015561178185858585611b44565b801561134e576000805461ff0019169055604051600181527f7f26b83ff96e1f2b6a682f133852f6798a09c465da95921460cefb38474024989060200160405180910390a15050505050565b606081518351146118325760405162461bcd60e51b815260206004820152602960248201527f455243313135353a206163636f756e747320616e6420696473206c656e677468604482015268040dad2e6dac2e8c6d60bb1b60648201526084016109da565b600083516001600160401b0381111561184d5761184d6141b2565b604051908082528060200260200182016040528015611876578160200160208202803683370190505b50905060005b84518110156118e6576118c185828151811061189a5761189a614c85565b60200260200101518583815181106118b4576118b4614c85565b6020026020010151610973565b8282815181106118d3576118d3614c85565b602090810291909101015260010161187c565b509392505050565b6001600160a01b037f00000000000000000000000000000000000000000000000000000000000000001630036119365760405162461bcd60e51b81526004016109da90614d76565b7f00000000000000000000000000000000000000000000000000000000000000006001600160a01b0316611968612503565b6001600160a01b03161461198e5760405162461bcd60e51b81526004016109da90614db0565b6119978261251f565b610f0e828260016125a5565b6000806119af83612051565b1192915050565b6000808211611a1a5760405162461bcd60e51b815260206004820152602a60248201527f4552432d3131353520456e756d657261626c653a20746f6b656e7320696e64656044820152697865642066726f6d203160b01b60648201526084016109da565b61019454821115611a3d5760405162461bcd60e51b81526004016109da90614d28565b610194805483908110611a5257611a52614c85565b90600052602060002001549050919050565b6000306001600160a01b037f00000000000000000000000000000000000000000000000000000000000000001614611aff5760405162461bcd60e51b815260206004820152603860248201527f555550535570677261646561626c653a206d757374206e6f742062652063616c6044820152771b1959081d1a1c9bdd59da0819195b1959d85d1958d85b1b60421b60648201526084016109da565b506000805160206154dd8339815191525b90565b610eb784848415611b2c57611b2785610a5e565b611b2f565b60005b846000612837565b610f0e8282600080611b13565b611b4c612a88565b610191611b5a848683614eac565b5061019261134e828483614eac565b6001600160a01b038316331480611b855750611b85833361089b565b611ba15760405162461bcd60e51b81526004016109da90614cda565b611bac838383612ae7565b505050565b611bb9612a88565b611bc36000612c6a565b565b600060016003806008611bdb600d610100614b44565b611be59190614b66565b611bef9190614b66565b611bf99190614b66565b611c039190614b66565b60ff166001901b60016003806008600d60ff16610100611c239190614b44565b611c2d9190614b66565b611c379190614b66565b611c419190614b66565b611c4b9190614b66565b60ff166001901b8516148015611c6a57506000611c688686610973565b115b15611c7757506000611c87565b611c8385858585612cbc565b5060015b949350505050565b611bac8383600084611b13565b611ca7600584611615565b80611cb65750611cb6836112fd565b611d1f5760405162461bcd60e51b815260206004820152603460248201527f596f75206d7573742068617665206120436f6e6669677572657220746f6b656e604482015273103a379031b430b733b29036b2ba30b230ba309760611b60648201526084016109da565b600083815261019360205260409020611d39828483614eac565b50827f6bb7ff708619ba0610cba295a58592e0451dee2622938c8755667688daf3529b8383604051611d6c929190614f65565b60405180910390a2505050565b6097546001600160a01b031690565b6101928054610add90614afa565b61019454600090611da990600190614c72565b905090565b60006112ea838360006115ee565b610f0e338383612dcf565b611bac8383836000611b13565b61019454600090806008611deb600d610100614b44565b611df59190614b66565b60ff166009901b179150611e0a600783611615565b80611e195750611e19826112fd565b611e815760405162461bcd60e51b815260206004820152603360248201527f596f75206d757374206861766520612043726561746f7220746f6b656e20746f6044820152721031b932b0ba32903732bb903a37b5b2b7399760691b60648201526084016109da565b61019480546001810190915560008051602061549d833981519152018290556000828152610195602052604081208290555b8451811015611eec57611ee4858281518110611ed157611ed1614c85565b6020026020010151878460006001612837565b600101611eb3565b5060005b8351811015611f2457611f1c848281518110611f0e57611f0e614c85565b602002602001015183612239565b600101611ef0565b50611f30826001610ebd565b604080518381526001600160a01b03871660208201527f7757890bcab34d673dfca6b71df1b57f75a2fe4231d6e8de726caf534ab1fdd6910160405180910390a16000611f806007336000610f1f565b90506003806008611f94600d610100614b44565b611f9e9190614b66565b611fa89190614b66565b611fb29190614b66565b600160ff919091161b6003806008611fcd600d610100614b44565b611fd79190614b66565b611fe19190614b66565b611feb9190614b66565b60ff166001901b82160361200657612006335b826001612eaf565b612011836001610ebd565b50509392505050565b6000612028600184846115ee565b806112ea5750612036611d79565b6001600160a01b0316836001600160a01b0316149392505050565b600090815260fb602052604090205490565b6000610a0882600061201a565b600080826040516020016120849190614c9b565b60408051601f198184030181529181528151602092830120600090815261019b9092529020549392505050565b600080826040516020016120849190614f94565b6000611da933600061201a565b604080516000808252602082019092526120ed338283611dd4565b91505090565b6001600160a01b03851633148061210f575061210f853361089b565b61212b5760405162461bcd60e51b81526004016109da90614cda565b61134e8585858585612fb9565b612140612a88565b6001600160a01b0381166121a55760405162461bcd60e51b815260206004820152602660248201527f4f776e61626c653a206e6577206f776e657220697320746865207a65726f206160448201526564647265737360d01b60648201526084016109da565b61149081612c6a565b6121ba600984846115ee565b806121ca57506121ca838361201a565b61222e5760405162461bcd60e51b815260206004820152602f60248201527f596f75206d75737420686176652061204275726e657220746f6b656e20746f2060448201526e3232b9ba3937bc903a37b5b2b7399760891b60648201526084016109da565b611bac838383612eaf565b60006122458383611493565b90506008612256600d610100614b44565b6122609190614b66565b610194805460018101909155600a60ff929092169190911b9190911760008051602061549d8339815191528201819055600090815261019560205260409020555050565b80612329576122b4600884611615565b806122c357506122c3836112fd565b6123295760405162461bcd60e51b815260206004820152603160248201527f596f75206d75737420686176652061204c696d6974657220746f6b656e20746f6044820152701031b430b733b29038bab0b73a34ba3c9760791b60648201526084016109da565b60008360405160200161233c9190614f94565b60408051601f198184030181529181528151602092830120600090815261019b909252902060079390930b909255505050565b81518351146123905760405162461bcd60e51b81526004016109da90614fab565b6001600160a01b0384166123b65760405162461bcd60e51b81526004016109da90614ff3565b336123c58187878787876130e3565b60005b84518110156124a75760008582815181106123e5576123e5614c85565b60200260200101519050600085838151811061240357612403614c85565b60209081029190910181015160008481526065835260408082206001600160a01b038e1683529093529190912054909150818110156124545760405162461bcd60e51b81526004016109da90615038565b60008381526065602090815260408083206001600160a01b038e8116855292528083208585039055908b16825281208054849290612493908490615082565b9091555050600190930192506123c8915050565b50846001600160a01b0316866001600160a01b0316826001600160a01b031660008051602061545d83398151915287876040516124e5929190615095565b60405180910390a46124fb81878787878761398b565b505050505050565b6000805160206154dd833981519152546001600160a01b031690565b61252960066112f1565b8061253757506125376120c5565b6114905760405162461bcd60e51b815260206004820152603960248201527f596f75206d75737420686176652061204d61696e7461696e657220746f6b656e604482015278103a37903ab833b930b232903a34329031b7b73a3930b1ba1760391b60648201526084016109da565b7f4910fdfa16fed3260ed0e7147f7cc6da11a60208b5b9406d12a635614ffd91435460ff16156125d857611bac83613aed565b826001600160a01b03166352d1902d6040518163ffffffff1660e01b8152600401602060405180830381865afa925050508015612632575060408051601f3d908101601f1916820190925261262f918101906150c3565b60015b6126955760405162461bcd60e51b815260206004820152602e60248201527f45524331393637557067726164653a206e657720696d706c656d656e7461746960448201526d6f6e206973206e6f74205555505360901b60648201526084016109da565b6000805160206154dd83398151915281146127045760405162461bcd60e51b815260206004820152602960248201527f45524331393637557067726164653a20756e737570706f727465642070726f786044820152681a58589b195555525160ba1b60648201526084016109da565b50611bac838383613b87565b6060600061271d83613bac565b60010190506000816001600160401b0381111561273c5761273c6141b2565b6040519080825280601f01601f191660200182016040528015612766576020820181803683370190505b5090508181016020015b600019016f181899199a1a9b1b9c1cb0b131b232b360811b600a86061a8153600a850494508461277057509392505050565b6001600160a01b03163b151590565b600054610100900460ff166127d85760405162461bcd60e51b81526004016109da906150dc565b611bc3613c82565b600054610100900460ff166128075760405162461bcd60e51b81526004016109da906150dc565b61149081613cb2565b600054610100900460ff16611bc35760405162461bcd60e51b81526004016109da906150dc565b8061297e57600185600c81111561285057612850614e39565b036128ec5761287f610194600001848154811061286f5761286f614c85565b90600052602060002001546112fd565b6128e75760405162461bcd60e51b815260206004820152603360248201527f596f75206d75737420626520612053757065727573657220746f206372656174604482015272329037ba3432b91029bab832b93ab9b2b9399760691b60648201526084016109da565b61297e565b6128f7600384611615565b806129175750612917610194600001848154811061286f5761286f614c85565b61297e5760405162461bcd60e51b815260206004820152603260248201527f596f75206d7573742068617665207468652043617374657220726f6c6520746f6044820152711030b9b9b4b3b7103732bb903937b632b99760711b60648201526084016109da565b60008261298c5760006129c4565b600380600861299e600d610100614b44565b6129a89190614b66565b6129b29190614b66565b6129bc9190614b66565b60ff166001901b5b826129d0576000612a3f565b6001600881600380836129e6600d610100614b44565b6129f09190614b66565b6129fa9190614b66565b612a049190614b66565b612a0e9190614b66565b612a189190614b66565b612a229190614b66565b60ff166001612a32816002614c63565b612a3c9190614c72565b901b5b612a498887611493565b17179050612a6c81612a5a836120b1565b612a65906001615127565b60016122a4565b6124fb8582600160405180602001604052806000815250612cbc565b33612a91611d79565b6001600160a01b031614611bc35760405162461bcd60e51b815260206004820181905260248201527f4f776e61626c653a2063616c6c6572206973206e6f7420746865206f776e657260448201526064016109da565b6001600160a01b038316612b0d5760405162461bcd60e51b81526004016109da90615154565b8051825114612b2e5760405162461bcd60e51b81526004016109da90614fab565b6000339050612b51818560008686604051806020016040528060008152506130e3565b60005b8351811015612c0f576000848281518110612b7157612b71614c85565b602002602001015190506000848381518110612b8f57612b8f614c85565b60209081029190910181015160008481526065835260408082206001600160a01b038c168352909352919091205490915081811015612be05760405162461bcd60e51b81526004016109da90615197565b60009283526065602090815260408085206001600160a01b038b16865290915290922091039055600101612b54565b5060006001600160a01b0316846001600160a01b0316826001600160a01b031660008051602061545d8339815191528686604051612c4e929190615095565b60405180910390a4604080516020810190915260009052610eb7565b609780546001600160a01b038381166001600160a01b0319831681179093556040519116919082907f8be0079c531659141344cd1fd0a4f28419497f9722a3daafe3b4186f6b6457e090600090a35050565b6001600160a01b038416612d1c5760405162461bcd60e51b815260206004820152602160248201527f455243313135353a206d696e7420746f20746865207a65726f206164647265736044820152607360f81b60648201526084016109da565b336000612d2885613ce2565b90506000612d3585613ce2565b9050612d46836000898585896130e3565b60008681526065602090815260408083206001600160a01b038b16845290915281208054879290612d78908490615082565b909155505060408051878152602081018790526001600160a01b03808a16926000929187169160008051602061547d833981519152910160405180910390a4612dc683600089898989613d2d565b50505050505050565b816001600160a01b0316836001600160a01b031603612e425760405162461bcd60e51b815260206004820152602960248201527f455243313135353a2073657474696e6720617070726f76616c20737461747573604482015268103337b91039b2b63360b91b60648201526084016109da565b6001600160a01b03838116600081815260666020908152604080832094871680845294825291829020805460ff191686151590811790915591519182527f17307eab39ab6107e8899845ad3d59bd9653f200f220920489ca2b5937696c31910160405180910390a3505050565b6001600160a01b038316612ed55760405162461bcd60e51b81526004016109da90615154565b336000612ee184613ce2565b90506000612eee84613ce2565b9050612f0e838760008585604051806020016040528060008152506130e3565b60008581526065602090815260408083206001600160a01b038a16845290915290205484811015612f515760405162461bcd60e51b81526004016109da90615197565b60008681526065602090815260408083206001600160a01b038b81168086529184528285208a8703905582518b81529384018a905290929088169160008051602061547d833981519152910160405180910390a4604080516020810190915260009052612dc6565b6001600160a01b038416612fdf5760405162461bcd60e51b81526004016109da90614ff3565b336000612feb85613ce2565b90506000612ff885613ce2565b90506130088389898585896130e3565b60008681526065602090815260408083206001600160a01b038c1684529091529020548581101561304b5760405162461bcd60e51b81526004016109da90615038565b60008781526065602090815260408083206001600160a01b038d8116855292528083208985039055908a1682528120805488929061308a908490615082565b909155505060408051888152602081018890526001600160a01b03808b16928c8216929188169160008051602061547d833981519152910160405180910390a46130d8848a8a8a8a8a613d2d565b505050505050505050565b60005b835181101561366e5761311184828151811061310457613104614c85565b60200260200101516112fd565b6136665760016008816003808361312b600d610100614b44565b6131359190614b66565b61313f9190614b66565b6131499190614b66565b6131539190614b66565b61315d9190614b66565b6131679190614b66565b60ff166001613177816002614c63565b6131819190614c72565b901b600160088160038083613199600d610100614b44565b6131a39190614b66565b6131ad9190614b66565b6131b79190614b66565b6131c19190614b66565b6131cb9190614b66565b6131d59190614b66565b60ff1660016131e5816002614c63565b6131ef9190614c72565b901b85838151811061320357613203614c85565b602002602001015116146136665760006001600160a01b0387161561322957600461322c565b60025b9050600281600c81111561324257613242614e39565b036135d657600061326b86848151811061325e5761325e614c85565b60200260200101516120b1565b60070b905060008112806132c457508085848151811061328d5761328d614c85565b60200260200101516132b78886815181106132aa576132aa614c85565b6020026020010151612051565b6132c19190615082565b13155b6133105760405162461bcd60e51b815260206004820181905260248201527f4d6178696d756d206d696e7420616c6c6f77616e63652065786365656465642e60448201526064016109da565b600061333487858151811061332757613327614c85565b6020026020010151612070565b9050600081128061337e57508086858151811061335357613353614c85565b60200260200101516133718a8a88815181106118b4576118b4614c85565b61337b9190615082565b13155b6133d65760405162461bcd60e51b8152602060048201526024808201527f4d6178696d756d20706572207573657220616c6c6f77616e63652065786365656044820152633232b21760e11b60648201526084016109da565b60086133e5600d610100614b44565b6133ef9190614b66565b600160ff919091161b6008613407600d610100614b44565b6134119190614b66565b60ff16600161342260086002614c63565b61342c9190614c72565b901b88868151811061344057613440614c85565b602002602001015116036134dd57613472600388868151811061346557613465614c85565b6020026020010151611615565b6134d85760405162461bcd60e51b815260206004820152603160248201527f596f75206d757374206861766520612043617374657220746f6b656e20746f2060448201527036b4b73a103a37b5b2b71033b0ba32b99760791b60648201526084016109da565b6135cf565b600061350684336103cb8b89815181106134f9576134f9614c85565b6020026020010151610a5e565b905061351e8489878151811061346557613465614c85565b6135835760405162461bcd60e51b815260206004820152603060248201527f596f75206d75737420686176652061204d696e74657220746f6b656e20746f2060448201526f33b2b732b930ba32903a37b5b2b7399760811b60648201526084016109da565b60006003806008613597600d610100614b44565b6135a19190614b66565b6135ab9190614b66565b6135b59190614b66565b60ff166001901b821611156135cd576135cd33611ffe565b505b5050613664565b6001600160a01b03861615613664576135fb8186848151811061346557613465614c85565b6136645760405162461bcd60e51b815260206004820152603460248201527f596f75206d75737420686176652061205472616e73666572657220746f6b656e604482015273103a37903a3930b739b332b9103a37b5b2b7399760611b60648201526084016109da565b505b6001016130e6565b506001600160a01b038416156138375760005b83518110156138355761019460010160008583815181106136a4576136a4614c85565b6020026020010151815260200190815260200160002054600003613733576101946000018482815181106136da576136da614c85565b602090810291909101810151825460018101845560009384529183209091015561019454855190916101959187908590811061371857613718614c85565b60200260200101518152602001908152602001600020819055505b6101986000866001600160a01b03166001600160a01b03168152602001908152602001600020600101600085838151811061377057613770614c85565b602002602001015181526020019081526020016000205460000361382d576001600160a01b03851660009081526101986020526040902084518590839081106137bb576137bb614c85565b6020908102919091018101518254600181810185556000948552838520909101919091556001600160a01b038816835261019890915260408220805487519093919092019187908590811061381257613812614c85565b60200260200101518152602001908152602001600020819055505b600101613681565b505b6001600160a01b0385161561397d5760005b835181101561397b5782818151811061386457613864614c85565b6020026020010151613882878684815181106118b4576118b4614c85565b11613973576001600160a01b038616600090815261019860205260408120855160019182019083908890869081106138bc576138bc614c85565b60200260200101518152602001908152602001600020546138dd9190614c72565b6001600160a01b0388166000908152610198602052604090208054919250908290811061390c5761390c614c85565b90600052602060002001600090556101986000886001600160a01b03166001600160a01b03168152602001908152602001600020600101600086848151811061395757613957614c85565b6020026020010151815260200190815260200160002060009055505b600101613849565b505b6124fb868686868686613def565b61399d846001600160a01b03166127a2565b156124fb5760405163bc197c8160e01b81526001600160a01b0385169063bc197c81906139d690899089908890889088906004016151db565b6020604051808303816000875af1925050508015613a11575060408051601f3d908101601f19168201909252613a0e91810190615239565b60015b613abd57613a1d615256565b806308c379a003613a565750613a31615271565b80613a3c5750613a58565b8060405162461bcd60e51b81526004016109da919061419f565b505b60405162461bcd60e51b815260206004820152603460248201527f455243313135353a207472616e7366657220746f206e6f6e2d455243313135356044820152732932b1b2b4bb32b91034b6b83632b6b2b73a32b960611b60648201526084016109da565b6001600160e01b0319811663bc197c8160e01b14612dc65760405162461bcd60e51b81526004016109da906152fa565b613af6816127a2565b613b585760405162461bcd60e51b815260206004820152602d60248201527f455243313936373a206e657720696d706c656d656e746174696f6e206973206e60448201526c1bdd08184818dbdb9d1c9858dd609a1b60648201526084016109da565b6000805160206154dd83398151915280546001600160a01b0319166001600160a01b0392909216919091179055565b613b9083613f57565b600082511180613b9d5750805b15611bac57610eb78383613f97565b60008072184f03e93ff9f4daa797ed6e38ed64bf6a1f0160401b8310613beb5772184f03e93ff9f4daa797ed6e38ed64bf6a1f0160401b830492506040015b6904ee2d6d415b85acef8160201b8310613c15576904ee2d6d415b85acef8160201b830492506020015b662386f26fc100008310613c3357662386f26fc10000830492506010015b6305f5e1008310613c4b576305f5e100830492506008015b6127108310613c5f57612710830492506004015b60648310613c71576064830492506002015b600a8310610a085760010192915050565b600054610100900460ff16613ca95760405162461bcd60e51b81526004016109da906150dc565b611bc333612c6a565b600054610100900460ff16613cd95760405162461bcd60e51b81526004016109da906150dc565b61149081613fbc565b60408051600180825281830190925260609160009190602080830190803683370190505090508281600081518110613d1c57613d1c614c85565b602090810291909101015292915050565b613d3f846001600160a01b03166127a2565b156124fb5760405163f23a6e6160e01b81526001600160a01b0385169063f23a6e6190613d789089908990889088908890600401615342565b6020604051808303816000875af1925050508015613db3575060408051601f3d908101601f19168201909252613db091810190615239565b60015b613dbf57613a1d615256565b6001600160e01b0319811663f23a6e6160e01b14612dc65760405162461bcd60e51b81526004016109da906152fa565b6001600160a01b038516613e6d5760005b8351811015613e6b57828181518110613e1b57613e1b614c85565b602002602001015160fb6000868481518110613e3957613e39614c85565b602002602001015181526020019081526020016000206000828254613e5e9190615082565b9091555050600101613e00565b505b6001600160a01b0384166124fb5760005b8351811015612dc6576000848281518110613e9b57613e9b614c85565b602002602001015190506000848381518110613eb957613eb9614c85565b60200260200101519050600060fb600084815260200190815260200160002054905081811015613f3c5760405162461bcd60e51b815260206004820152602860248201527f455243313135353a206275726e20616d6f756e74206578636565647320746f74604482015267616c537570706c7960c01b60648201526084016109da565b600092835260fb602052604090922091039055600101613e7e565b613f6081613aed565b6040516001600160a01b038216907fbc7cd75a20ee27fd9adebab32041f755214dbc6bffa90cc0225b39da2e5c2d3b90600090a250565b60606112ea83836040518060600160405280602781526020016154fd60279139613fc8565b6067610f0e8282615387565b6060600080856001600160a01b031685604051613fe59190615440565b600060405180830381855af49150503d8060008114614020576040519150601f19603f3d011682016040523d82523d6000602084013e614025565b606091505b509150915061403686838387614040565b9695505050505050565b606083156140ad5782516000036140a65761405a856127a2565b6140a65760405162461bcd60e51b815260206004820152601d60248201527f416464726573733a2063616c6c20746f206e6f6e2d636f6e747261637400000060448201526064016109da565b5081611c87565b611c878383815115613a3c5781518083602001fd5b80356001600160a01b0381168114610aca57600080fd5b600080604083850312156140ec57600080fd5b6140f5836140c2565b946020939093013593505050565b6001600160e01b03198116811461149057600080fd5b60006020828403121561412b57600080fd5b81356112ea81614103565b60006020828403121561414857600080fd5b5035919050565b60005b8381101561416a578181015183820152602001614152565b50506000910152565b6000815180845261418b81602086016020860161414f565b601f01601f19169290920160200192915050565b6020815260006112ea6020830184614173565b634e487b7160e01b600052604160045260246000fd5b601f8201601f191681016001600160401b03811182821017156141ed576141ed6141b2565b6040525050565b60006001600160401b0382111561420d5761420d6141b2565b5060051b60200190565b600082601f83011261422857600080fd5b81356020614235826141f4565b60405161424282826141c8565b80915083815260208101915060208460051b87010193508684111561426657600080fd5b602086015b848110156142895761427c816140c2565b835291830191830161426b565b509695505050505050565b600082601f8301126142a557600080fd5b81356001600160401b038111156142be576142be6141b2565b6040516142d5601f8301601f1916602001826141c8565b8181528460208386010111156142ea57600080fd5b816020850160208301376000918101602001919091529392505050565b60008060006060848603121561431c57600080fd5b83356001600160401b038082111561433357600080fd5b61433f87838801614217565b945060208601359350604086013591508082111561435c57600080fd5b5061436986828701614294565b9150509250925092565b6000806040838503121561438657600080fd5b8235915060208301358060070b811461439e57600080fd5b809150509250929050565b8035600d8110610aca57600080fd5b6000602082840312156143ca57600080fd5b6112ea826143a9565b6000806000606084860312156143e857600080fd5b6143f1846143a9565b92506143ff602085016140c2565b9150604084013590509250925092565b600082601f83011261442057600080fd5b8135602061442d826141f4565b60405161443a82826141c8565b80915083815260208101915060208460051b87010193508684111561445e57600080fd5b602086015b848110156142895780358352918301918301614463565b600080600080600060a0868803121561449257600080fd5b61449b866140c2565b94506144a9602087016140c2565b935060408601356001600160401b03808211156144c557600080fd5b6144d189838a0161440f565b945060608801359150808211156144e757600080fd5b6144f389838a0161440f565b9350608088013591508082111561450957600080fd5b5061451688828901614294565b9150509295509295909350565b60006020828403121561453557600080fd5b6112ea826140c2565b6000806040838503121561455157600080fd5b6140f5836143a9565b600082601f83011261456b57600080fd5b81356020614578826141f4565b60405161458582826141c8565b80915083815260208101915060208460051b8701019350868411156145a957600080fd5b602086015b84811015614289576145bf816143a9565b83529183019183016145ae565b600080604083850312156145df57600080fd5b82356001600160401b03808211156145f657600080fd5b6146028683870161455a565b9350602085013591508082111561461857600080fd5b506146258582860161455a565b9150509250929050565b60008083601f84011261464157600080fd5b5081356001600160401b0381111561465857600080fd5b60208301915083602082850101111561467057600080fd5b9250929050565b6000806000806040858703121561468d57600080fd5b84356001600160401b03808211156146a457600080fd5b6146b08883890161462f565b909650945060208701359150808211156146c957600080fd5b506146d68782880161462f565b95989497509550505050565b600080604083850312156146f557600080fd5b82356001600160401b038082111561470c57600080fd5b61471886838701614217565b9350602085013591508082111561472e57600080fd5b506146258582860161440f565b60008151808452602080850194506020840160005b8381101561476c57815187529582019590820190600101614750565b509495945050505050565b6020815260006112ea602083018461473b565b6000806040838503121561479d57600080fd5b6147a6836140c2565b915060208301356001600160401b038111156147c157600080fd5b61462585828601614294565b80358015158114610aca57600080fd5b600080600080608085870312156147f357600080fd5b6147fc856143a9565b935061480a602086016140c2565b92506040850135915061481f606086016147cd565b905092959194509250565b6000806040838503121561483d57600080fd5b614846836143a9565b9150614854602084016140c2565b90509250929050565b60008060006060848603121561487257600080fd5b61487b846140c2565b925060208401356001600160401b038082111561489757600080fd5b6148a38783880161440f565b935060408601359150808211156148b957600080fd5b506143698682870161440f565b600080600080608085870312156148dc57600080fd5b6148e5856140c2565b9350602085013592506040850135915060608501356001600160401b0381111561490e57600080fd5b61491a87828801614294565b91505092959194509250565b60008060006060848603121561493b57600080fd5b614944846143a9565b9250614952602085016140c2565b9150614960604085016147cd565b90509250925092565b60008060006040848603121561497e57600080fd5b8335925060208401356001600160401b0381111561499b57600080fd5b6149a78682870161462f565b9497909650939450505050565b600080604083850312156149c757600080fd5b6149d0836140c2565b9150614854602084016147cd565b6000806000606084860312156149f357600080fd5b6149fc846140c2565b925060208401356001600160401b0380821115614a1857600080fd5b614a248783880161455a565b93506040860135915080821115614a3a57600080fd5b506143698682870161455a565b60008060408385031215614a5a57600080fd5b614846836140c2565b600080600080600060a08688031215614a7b57600080fd5b614a84866140c2565b9450614a92602087016140c2565b9350604086013592506060860135915060808601356001600160401b03811115614abb57600080fd5b61451688828901614294565b600080600060608486031215614adc57600080fd5b614ae5846140c2565b95602085013595506040909401359392505050565b600181811c90821680614b0e57607f821691505b602082108103610e7657634e487b7160e01b600052602260045260246000fd5b634e487b7160e01b600052601160045260246000fd5b61ffff828116828216039080821115614b5f57614b5f614b2e565b5092915050565b60ff8281168282160390811115610a0857610a08614b2e565b600181815b80851115614bba578160001904821115614ba057614ba0614b2e565b80851615614bad57918102915b93841c9390800290614b84565b509250929050565b600082614bd157506001610a08565b81614bde57506000610a08565b8160018114614bf45760028114614bfe57614c1a565b6001915050610a08565b60ff841115614c0f57614c0f614b2e565b50506001821b610a08565b5060208310610133831016604e8410600b8410161715614c3d575081810a610a08565b614c478383614b7f565b8060001904821115614c5b57614c5b614b2e565b029392505050565b60006112ea60ff841683614bc2565b81810381811115610a0857610a08614b2e565b634e487b7160e01b600052603260045260246000fd5b6b0e0cae440eae6cae440dac2f60a31b8152600c810191909152602c0190565b600060ff821660ff8103614cd157614cd1614b2e565b60010192915050565b6020808252602e908201527f455243313135353a2063616c6c6572206973206e6f7420746f6b656e206f776e60408201526d195c881bdc88185c1c1c9bdd995960921b606082015260800190565b6020808252602e908201527f4552432d3131353520456e756d657261626c653a20746f6b656e20696e64657860408201526d206f7574206f6620626f756e647360901b606082015260800190565b6020808252602c908201526000805160206154bd83398151915260408201526b19195b1959d85d1958d85b1b60a21b606082015260800190565b6020808252602c908201526000805160206154bd83398151915260408201526b6163746976652070726f787960a01b606082015260800190565b76024b73234b1b2b99031b0b71031329030ba1036b7b9ba1604d1b815260008251614e1c81601785016020870161414f565b65103134ba399760d11b6017939091019283015250601d01919050565b634e487b7160e01b600052602160045260246000fd5b601f821115611bac576000816000526020600020601f850160051c81016020861015614e785750805b601f850160051c820191505b818110156124fb57828155600101614e84565b600019600383901b1c191660019190911b1790565b6001600160401b03831115614ec357614ec36141b2565b614ed783614ed18354614afa565b83614e4f565b6000601f841160018114614f055760008515614ef35750838201355b614efd8682614e97565b84555061134e565b600083815260209020601f19861690835b82811015614f365786850135825560209485019460019092019101614f16565b5086821015614f535760001960f88860031b161c19848701351681555b505060018560011b0183555050505050565b60208152816020820152818360408301376000818301604090810191909152601f909201601f19160101919050565b620dac2f60eb1b8152600381019190915260230190565b60208082526028908201527f455243313135353a2069647320616e6420616d6f756e7473206c656e677468206040820152670dad2e6dac2e8c6d60c31b606082015260800190565b60208082526025908201527f455243313135353a207472616e7366657220746f20746865207a65726f206164604082015264647265737360d81b606082015260800190565b6020808252602a908201527f455243313135353a20696e73756666696369656e742062616c616e636520666f60408201526939103a3930b739b332b960b11b606082015260800190565b80820180821115610a0857610a08614b2e565b6040815260006150a8604083018561473b565b82810360208401526150ba818561473b565b95945050505050565b6000602082840312156150d557600080fd5b5051919050565b6020808252602b908201527f496e697469616c697a61626c653a20636f6e7472616374206973206e6f74206960408201526a6e697469616c697a696e6760a81b606082015260800190565b600781810b9083900b0160016001603f1b03811360016001603f1b031982121715610a0857610a08614b2e565b60208082526023908201527f455243313135353a206275726e2066726f6d20746865207a65726f206164647260408201526265737360e81b606082015260800190565b60208082526024908201527f455243313135353a206275726e20616d6f756e7420657863656564732062616c604082015263616e636560e01b606082015260800190565b6001600160a01b0386811682528516602082015260a0604082018190526000906152079083018661473b565b8281036060840152615219818661473b565b9050828103608084015261522d8185614173565b98975050505050505050565b60006020828403121561524b57600080fd5b81516112ea81614103565b600060033d1115611b105760046000803e5060005160e01c90565b600060443d101561527f5790565b6040516003193d81016004833e81513d6001600160401b0380831160248401831017156152ae57505050505090565b82850191508151818111156152c65750505050505090565b843d87010160208285010111156152e05750505050505090565b6152ef602082860101876141c8565b509095945050505050565b60208082526028908201527f455243313135353a204552433131353552656365697665722072656a656374656040820152676420746f6b656e7360c01b606082015260800190565b6001600160a01b03868116825285166020820152604081018490526060810183905260a06080820181905260009061537c90830184614173565b979650505050505050565b81516001600160401b038111156153a0576153a06141b2565b6153b4816153ae8454614afa565b84614e4f565b602080601f8311600181146153e357600084156153d15750858301515b6153db8582614e97565b8655506124fb565b600085815260208120601f198616915b82811015615412578886015182559484019460019091019084016153f3565b50858210156154305787850151600019600388901b60f8161c191681555b5050505050600190811b01905550565b6000825161545281846020870161414f565b919091019291505056fe4a39dc06d4c0dbc64b70af90fd698a233a518aa5d07e595d983b8c0526c8f7fbc3d58168c5ae7397731d063d5bbf3d657854427343f4c083240f7aacaa2d0f62a6f1ac7ad7b125ba5a5e1c96b00ad6914f90a503b1ac3d85a9dadbb4c639df9246756e6374696f6e206d7573742062652063616c6c6564207468726f75676820360894a13ba1a3210667c828492db98dca3e2076cc3735a920a3ca505d382bbc416464726573733a206c6f772d6c6576656c2064656c65676174652063616c6c206661696c6564a2646970667358221220b2de141e76bac4b8cd815de4f5d71c91ff482c1d0655ad7dddf1e7d25452306864736f6c63430008170033",
  "linkReferences": {},
  "deployedLinkReferences": {}
}