{
  "_format": "hh-sol-artifact-1",
  "contractName": "Roles",
  "sourceName": "src/Roles.sol",
  "abi": [
    {
      "inputs": [
        {
          "internalType": "string",
          "name": "roleName",
          "type": "string"
        }
      ],
      "name": "roleIndexForName",
      "outputs": [
        {
          "internalType": "uint8",
          "name": "role",
          "type": "uint8"
        }
      ],
      "stateMutability": "pure",
      "type": "function"
    },
    {
      "inputs": [
        {
          "internalType": "uint8",
          "name": "index",
          "type": "uint8"
        }
      ],
      "name": "roleNameByIndex",
      "outputs": [
        {
          "internalType": "string",
          "name": "",
          "type": "string"
        }
      ],
      "stateMutability": "pure",
      "type": "function"
    }
  ],
  "bytecode": "0x61099d61003a600b82828239805160001a60731461002d57634e487b7160e01b600052600060045260246000fd5b30600052607381538281f3fe73000000000000000000000000000000000000000030146080604052600436106100405760003560e01c8063778f5a7b14610045578063814c24501461006f575b600080fd5b61005861005336600461079e565b61008f565b60405160ff90911681526020015b60405180910390f35b61008261007d36600461084e565b6103bf565b60405161006691906108c1565b600080826040516020016100a391906108d4565b6040516020818303038152906040528051906020012090506040516020016100da906829bab832b93ab9b2b960b91b815260090190565b6040516020818303038152906040528051906020012081036101005760015b9392505050565b6040516526b4b73a32b960d11b60208201526026016040516020818303038152906040528051906020012081036101385760026100f9565b6040516521b0b9ba32b960d11b60208201526026016040516020818303038152906040528051906020012081036101705760036100f9565b604051692a3930b739b332b932b960b11b6020820152602a016040516020818303038152906040528051906020012081036101ac5760046100f9565b6040516921b7b73334b3bab932b960b11b6020820152602a016040516020818303038152906040528051906020012081036101e85760056100f9565b6040516926b0b4b73a30b4b732b960b11b6020820152602a016040516020818303038152906040528051906020012081036102245760066100f9565b6040516621b932b0ba37b960c91b602082015260270160405160208183030381529060405280519060200120810361025d5760076100f9565b604051662634b6b4ba32b960c91b60208201526027016040516020818303038152906040528051906020012081036102965760086100f9565b60405165213ab93732b960d11b60208201526026016040516020818303038152906040528051906020012081036102ce5760096100f9565b604051682232b9ba3937bcb2b960b91b602082015260290160405160208183030381529060405280519060200120810361030957600a6100f9565b604051654f7261636c6560d01b602082015260260160405160208183030381529060405280519060200120810361034157600b6100f9565b6040516b14995cd95c9d995913185cdd60a21b6020820152602c0160405160208183030381529060405280519060200120810361037f57600c6100f9565b8260405160200161039091906108f0565b60408051601f198184030181529082905262461bcd60e51b82526103b6916004016108c1565b60405180910390fd5b606060001960ff8316016103f257505060408051808201909152600981526829bab832b93ab9b2b960b91b602082015290565b60011960ff83160161042057505060408051808201909152600681526526b4b73a32b960d11b602082015290565b60021960ff83160161044e57505060408051808201909152600681526521b0b9ba32b960d11b602082015290565b60031960ff83160161048057505060408051808201909152600a8152692a3930b739b332b932b960b11b602082015290565b60041960ff8316016104b257505060408051808201909152600a81526921b7b73334b3bab932b960b11b602082015290565b60051960ff8316016104e457505060408051808201909152600a81526926b0b4b73a30b4b732b960b11b602082015290565b60061960ff83160161051357505060408051808201909152600781526621b932b0ba37b960c91b602082015290565b60071960ff8316016105425750506040805180820190915260078152662634b6b4ba32b960c91b602082015290565b60081960ff831601610570575050604080518082019091526006815265213ab93732b960d11b602082015290565b60091960ff8316016105a15750506040805180820190915260098152682232b9ba3937bcb2b960b91b602082015290565b600a1960ff8316016105cf5750506040805180820190915260068152654f7261636c6560d01b602082015290565b600b1960ff83160161060357505060408051808201909152600c81526b14995cd95c9d995913185cdd60a21b602082015290565b61060f8260ff1661061f565b604051602001610390919061092b565b6060600061062c836106b1565b60010190506000816001600160401b0381111561064b5761064b610788565b6040519080825280601f01601f191660200182016040528015610675576020820181803683370190505b5090508181016020015b600019016f181899199a1a9b1b9c1cb0b131b232b360811b600a86061a8153600a850494508461067f57509392505050565b60008072184f03e93ff9f4daa797ed6e38ed64bf6a1f0160401b83106106f05772184f03e93ff9f4daa797ed6e38ed64bf6a1f0160401b830492506040015b6904ee2d6d415b85acef8160201b831061071a576904ee2d6d415b85acef8160201b830492506020015b662386f26fc10000831061073857662386f26fc10000830492506010015b6305f5e1008310610750576305f5e100830492506008015b612710831061076457612710830492506004015b60648310610776576064830492506002015b600a8310610782576001015b92915050565b634e487b7160e01b600052604160045260246000fd5b6000602082840312156107b057600080fd5b81356001600160401b03808211156107c757600080fd5b818401915084601f8301126107db57600080fd5b8135818111156107ed576107ed610788565b604051601f8201601f19908116603f0116810190838211818310171561081557610815610788565b8160405282815287602084870101111561082e57600080fd5b826020860160208301376000928101602001929092525095945050505050565b60006020828403121561086057600080fd5b813560ff811681146100f957600080fd5b60005b8381101561088c578181015183820152602001610874565b50506000910152565b600081518084526108ad816020860160208601610871565b601f01601f19169290920160200192915050565b6020815260006100f96020830184610895565b600082516108e6818460208701610871565b9190910192915050565b7202ab735b737bbb7103937b632903a3cb8329d1606d1b81526000825161091e816013850160208701610871565b9190910160130192915050565b7302ab735b737bbb7102937b6329024b73232bc1d160651b81526000825161095a816014850160208701610871565b919091016014019291505056fea2646970667358221220662dbaa50bee539c2544ac9de068fafaa6bd4a75bf08164683a7c8c15443dfdf64736f6c63430008170033",
  "linkReferences": {},
  "deployedLinkReferences": {}
}